{
  "address": "0xaEE4E8F123632bf55C92760802e49Bfd993aA904",
  "abi": [
    {
      "inputs": [],
      "stateMutability": "nonpayable",
      "type": "constructor"
    },
    {
      "inputs": [],
      "name": "EndDateEarlierThanStartDate",
      "type": "error"
    },
    {
      "inputs": [],
      "name": "InsuranceAlreadyRequested",
      "type": "error"
    },
    {
      "inputs": [],
      "name": "InsuranceInActivePeriod",
      "type": "error"
    },
    {
      "inputs": [],
      "name": "NotEnoughInsuranceLiquidity",
      "type": "error"
    },
    {
      "inputs": [],
      "name": "NotEnoughTokenBalance",
      "type": "error"
    },
    {
      "inputs": [],
      "name": "PoolIdNotCreated",
      "type": "error"
    },
    {
      "inputs": [],
      "name": "ReimburesementRequirementNotMet",
      "type": "error"
    },
    {
      "anonymous": false,
      "inputs": [
        {
          "indexed": false,
          "internalType": "uint16",
          "name": "poolId",
          "type": "uint16"
        },
        {
          "indexed": false,
          "internalType": "address",
          "name": "tokenAddress",
          "type": "address"
        },
        {
          "indexed": false,
          "internalType": "address",
          "name": "insuranceRequester",
          "type": "address"
        },
        {
          "indexed": false,
          "internalType": "uint256",
          "name": "liquidtyToInsure",
          "type": "uint256"
        },
        {
          "indexed": false,
          "internalType": "uint256",
          "name": "fee",
          "type": "uint256"
        }
      ],
      "name": "InsuranceRequestCreated",
      "type": "event"
    },
    {
      "anonymous": false,
      "inputs": [
        {
          "indexed": false,
          "internalType": "uint16",
          "name": "poolId",
          "type": "uint16"
        },
        {
          "indexed": false,
          "internalType": "address",
          "name": "tokenAddress",
          "type": "address"
        },
        {
          "indexed": false,
          "internalType": "int256",
          "name": "basePrice",
          "type": "int256"
        },
        {
          "indexed": false,
          "internalType": "int256",
          "name": "tresholdPrice",
          "type": "int256"
        },
        {
          "indexed": false,
          "internalType": "uint8",
          "name": "fee",
          "type": "uint8"
        },
        {
          "indexed": false,
          "internalType": "uint256",
          "name": "liquidityAdded",
          "type": "uint256"
        },
        {
          "indexed": false,
          "internalType": "uint256",
          "name": "startDate",
          "type": "uint256"
        },
        {
          "indexed": false,
          "internalType": "uint256",
          "name": "endDate",
          "type": "uint256"
        }
      ],
      "name": "PoolUpdated",
      "type": "event"
    },
    {
      "inputs": [
        {
          "internalType": "uint16",
          "name": "_id",
          "type": "uint16"
        },
        {
          "internalType": "uint256",
          "name": "_amount",
          "type": "uint256"
        }
      ],
      "name": "getReimbursement",
      "outputs": [
        {
          "internalType": "uint256",
          "name": "",
          "type": "uint256"
        }
      ],
      "stateMutability": "view",
      "type": "function"
    },
    {
      "inputs": [
        {
          "internalType": "uint16",
          "name": "_id",
          "type": "uint16"
        },
        {
          "internalType": "uint256",
          "name": "_amount",
          "type": "uint256"
        }
      ],
      "name": "getUserFee",
      "outputs": [
        {
          "internalType": "uint256",
          "name": "",
          "type": "uint256"
        }
      ],
      "stateMutability": "view",
      "type": "function"
    },
    {
      "inputs": [],
      "name": "id",
      "outputs": [
        {
          "internalType": "uint16",
          "name": "",
          "type": "uint16"
        }
      ],
      "stateMutability": "view",
      "type": "function"
    },
    {
      "inputs": [
        {
          "internalType": "address",
          "name": "_tokenAddress",
          "type": "address"
        },
        {
          "internalType": "address",
          "name": "_priceFeed",
          "type": "address"
        },
        {
          "internalType": "int256",
          "name": "_insuranceLossCoverage",
          "type": "int256"
        },
        {
          "internalType": "uint8",
          "name": "_fee",
          "type": "uint8"
        },
        {
          "internalType": "uint256",
          "name": "_startDateFromDeployInSeconds",
          "type": "uint256"
        },
        {
          "internalType": "uint256",
          "name": "_endDateFromDeployInSeconds",
          "type": "uint256"
        }
      ],
      "name": "initPool",
      "outputs": [
        {
          "components": [
            {
              "internalType": "uint16",
              "name": "id",
              "type": "uint16"
            },
            {
              "internalType": "address",
              "name": "tokenAddress",
              "type": "address"
            },
            {
              "internalType": "uint256",
              "name": "totalLiquidity",
              "type": "uint256"
            },
            {
              "internalType": "uint256",
              "name": "priceLossCover",
              "type": "uint256"
            },
            {
              "internalType": "int256",
              "name": "basePrice",
              "type": "int256"
            },
            {
              "internalType": "int256",
              "name": "insuranceTreshold",
              "type": "int256"
            },
            {
              "internalType": "uint8",
              "name": "fee",
              "type": "uint8"
            },
            {
              "internalType": "uint256",
              "name": "startDate",
              "type": "uint256"
            },
            {
              "internalType": "uint256",
              "name": "endDate",
              "type": "uint256"
            }
          ],
          "internalType": "struct DataTypes.PoolData",
          "name": "",
          "type": "tuple"
        }
      ],
      "stateMutability": "nonpayable",
      "type": "function"
    },
    {
      "inputs": [
        {
          "internalType": "uint16",
          "name": "",
          "type": "uint16"
        },
        {
          "internalType": "address",
          "name": "",
          "type": "address"
        }
      ],
      "name": "insuranceRequests",
      "outputs": [
        {
          "internalType": "uint16",
          "name": "id",
          "type": "uint16"
        },
        {
          "internalType": "address",
          "name": "insuranceRequester",
          "type": "address"
        },
        {
          "internalType": "uint256",
          "name": "liquidtyToInsure",
          "type": "uint256"
        },
        {
          "internalType": "uint256",
          "name": "reimbursementAmount",
          "type": "uint256"
        },
        {
          "internalType": "uint256",
          "name": "fee",
          "type": "uint256"
        }
      ],
      "stateMutability": "view",
      "type": "function"
    },
    {
      "inputs": [
        {
          "internalType": "uint16",
          "name": "",
          "type": "uint16"
        }
      ],
      "name": "liquiditySupplyList",
      "outputs": [
        {
          "internalType": "uint16",
          "name": "id",
          "type": "uint16"
        },
        {
          "internalType": "address",
          "name": "liquidityProvider",
          "type": "address"
        },
        {
          "internalType": "uint256",
          "name": "liquidityAdded",
          "type": "uint256"
        }
      ],
      "stateMutability": "view",
      "type": "function"
    },
    {
      "inputs": [
        {
          "internalType": "uint16",
          "name": "",
          "type": "uint16"
        }
      ],
      "name": "poolDataList",
      "outputs": [
        {
          "internalType": "uint16",
          "name": "id",
          "type": "uint16"
        },
        {
          "internalType": "address",
          "name": "tokenAddress",
          "type": "address"
        },
        {
          "internalType": "uint256",
          "name": "totalLiquidity",
          "type": "uint256"
        },
        {
          "internalType": "uint256",
          "name": "priceLossCover",
          "type": "uint256"
        },
        {
          "internalType": "int256",
          "name": "basePrice",
          "type": "int256"
        },
        {
          "internalType": "int256",
          "name": "insuranceTreshold",
          "type": "int256"
        },
        {
          "internalType": "uint8",
          "name": "fee",
          "type": "uint8"
        },
        {
          "internalType": "uint256",
          "name": "startDate",
          "type": "uint256"
        },
        {
          "internalType": "uint256",
          "name": "endDate",
          "type": "uint256"
        }
      ],
      "stateMutability": "view",
      "type": "function"
    },
    {
      "inputs": [
        {
          "internalType": "uint16",
          "name": "_id",
          "type": "uint16"
        },
        {
          "internalType": "uint256",
          "name": "_amount",
          "type": "uint256"
        }
      ],
      "name": "requestInsurance",
      "outputs": [],
      "stateMutability": "nonpayable",
      "type": "function"
    },
    {
      "inputs": [
        {
          "internalType": "uint16",
          "name": "_id",
          "type": "uint16"
        }
      ],
      "name": "requestReimbursement",
      "outputs": [],
      "stateMutability": "nonpayable",
      "type": "function"
    },
    {
      "inputs": [
        {
          "internalType": "uint16",
          "name": "_id",
          "type": "uint16"
        },
        {
          "internalType": "uint256",
          "name": "_amount",
          "type": "uint256"
        }
      ],
      "name": "supplyPool",
      "outputs": [
        {
          "internalType": "uint256",
          "name": "",
          "type": "uint256"
        }
      ],
      "stateMutability": "nonpayable",
      "type": "function"
    }
  ],
  "transactionHash": "0xbefba751432b4423c32cece52638b49f37c605a77ef42161e0e2491bd2ef2660",
  "args": [],
  "numDeployments": 3,
  "solcInputHash": "3696a5a25de8ac71492e118830b0c8e1",
  "bytecode": "0x608060405234801561001057600080fd5b5060008060006101000a81548161ffff021916908361ffff1602179055506121ff8061003d6000396000f3fe608060405234801561001057600080fd5b506004361061009e5760003560e01c806382c804dd1161006657806382c804dd14610199578063a5ff706b146101b5578063af640d0f146101e5578063b307fc7514610203578063dca5ed481461023b5761009e565b80631f563bfd146100a35780635fae9b92146100d3578063636241071461010757806368c704a2146101395780637bbece7514610169575b600080fd5b6100bd60048036038101906100b89190611680565b610257565b6040516100ca919061181d565b60405180910390f35b6100ed60048036038101906100e89190611865565b610646565b6040516100fe9594939291906118d2565b60405180910390f35b610121600480360381019061011c9190611925565b6106b7565b60405161013093929190611952565b60405180910390f35b610153600480360381019061014e9190611989565b61070f565b60405161016091906119c9565b60405180910390f35b610183600480360381019061017e9190611989565b61078c565b60405161019091906119c9565b60405180910390f35b6101b360048036038101906101ae9190611989565b610b6b565b005b6101cf60048036038101906101ca9190611989565b611029565b6040516101dc91906119c9565b60405180910390f35b6101ed6110c8565b6040516101fa91906119e4565b60405180910390f35b61021d60048036038101906102189190611925565b6110da565b60405161023299989796959493929190611a1d565b60405180910390f35b61025560048036038101906102509190611925565b611163565b005b61025f61148b565b85600160006101000a81548173ffffffffffffffffffffffffffffffffffffffff021916908373ffffffffffffffffffffffffffffffffffffffff16021790555086600260006101000a81548173ffffffffffffffffffffffffffffffffffffffff021916908373ffffffffffffffffffffffffffffffffffffffff16021790555086600060026101000a81548173ffffffffffffffffffffffffffffffffffffffff021916908373ffffffffffffffffffffffffffffffffffffffff16021790555060006001846103319190611ad9565b4261033c9190611b33565b9050600060018461034d9190611ad9565b426103589190611b33565b9050818111610393576040517f14cc095100000000000000000000000000000000000000000000000000000000815260040160405180910390fd5b61039b61148b565b60006103a56113ea565b90506000896064836103b79190611bb8565b6103c19190611c22565b826103cc9190611d39565b905060008054906101000a900461ffff16836000019061ffff16908161ffff1681525050600060029054906101000a900473ffffffffffffffffffffffffffffffffffffffff16836020019073ffffffffffffffffffffffffffffffffffffffff16908173ffffffffffffffffffffffffffffffffffffffff16815250508983606001818152505081836080018181525050808360a0018181525050888360c0019060ff16908160ff1681525050848360e0018181525050838361010001818152505082600360008060009054906101000a900461ffff1661ffff1661ffff16815260200190815260200160002060008201518160000160006101000a81548161ffff021916908361ffff16021790555060208201518160000160026101000a81548173ffffffffffffffffffffffffffffffffffffffff021916908373ffffffffffffffffffffffffffffffffffffffff16021790555060408201518160010155606082015181600201556080820151816003015560a0820151816004015560c08201518160050160006101000a81548160ff021916908360ff16021790555060e0820151816006015561010082015181600701559050507f60208157873c458e968e0270eaeab9e1f660d5a1ce88ca3efe8ed007b366f7ec60008054906101000a900461ffff16600060029054906101000a900473ffffffffffffffffffffffffffffffffffffffff1684848d60008b8b6040516105f3989796959493929190611e12565b60405180910390a160016000808282829054906101000a900461ffff1661061a9190611e90565b92506101000a81548161ffff021916908361ffff16021790555082955050505050509695505050505050565b6005602052816000526040600020602052806000526040600020600091509150508060000160009054906101000a900461ffff16908060000160029054906101000a900473ffffffffffffffffffffffffffffffffffffffff16908060010154908060020154908060030154905085565b60046020528060005260406000206000915090508060000160009054906101000a900461ffff16908060000160029054906101000a900473ffffffffffffffffffffffffffffffffffffffff16908060010154905083565b600080600360008561ffff1661ffff1681526020019081526020016000206002015490506000816064856107439190611ec8565b61074d9190611ad9565b846107589190611ef9565b905060008185838761076a9190611ef9565b6107749190611ad9565b61077e9190611ec8565b905080935050505092915050565b60008060009054906101000a900461ffff1661ffff168361ffff1611156107df576040517ff23f6c1500000000000000000000000000000000000000000000000000000000815260040160405180910390fd5b600360008461ffff1661ffff168152602001908152602001600020600601544210610836576040517fdb589d0800000000000000000000000000000000000000000000000000000000815260040160405180910390fd5b61083e6114f4565b600260009054906101000a900473ffffffffffffffffffffffffffffffffffffffff1673ffffffffffffffffffffffffffffffffffffffff166323b872dd3330866040518463ffffffff1660e01b815260040161089d93929190611f2d565b6020604051808303816000875af11580156108bc573d6000803e3d6000fd5b505050506040513d601f19601f820116820180604052508101906108e09190611f9c565b5082600360008661ffff1661ffff168152602001908152602001600020600101600082825461090f9190611b33565b9250508190555083816000019061ffff16908161ffff168152505033816020019073ffffffffffffffffffffffffffffffffffffffff16908173ffffffffffffffffffffffffffffffffffffffff16815250508281604001818152505080600460008661ffff1661ffff16815260200190815260200160002060008201518160000160006101000a81548161ffff021916908361ffff16021790555060208201518160000160026101000a81548173ffffffffffffffffffffffffffffffffffffffff021916908373ffffffffffffffffffffffffffffffffffffffff160217905550604082015181600101559050507f60208157873c458e968e0270eaeab9e1f660d5a1ce88ca3efe8ed007b366f7ec84600360008761ffff1661ffff16815260200190815260200160002060000160029054906101000a900473ffffffffffffffffffffffffffffffffffffffff16600360008861ffff1661ffff16815260200190815260200160002060030154600360008961ffff1661ffff16815260200190815260200160002060040154600360008a61ffff1661ffff16815260200190815260200160002060050160009054906101000a900460ff16600360008b61ffff1661ffff16815260200190815260200160002060010154600360008c61ffff1661ffff16815260200190815260200160002060060154600360008d61ffff1661ffff16815260200190815260200160002060070154604051610b3b989796959493929190611fc9565b60405180910390a1600360008561ffff1661ffff1681526020019081526020016000206001015491505092915050565b6000600360008461ffff1661ffff168152602001908152602001600020600101549050600360008461ffff1661ffff168152602001908152602001600020600601544210610be5576040517fdb589d0800000000000000000000000000000000000000000000000000000000815260040160405180910390fd5b6000600260009054906101000a900473ffffffffffffffffffffffffffffffffffffffff1673ffffffffffffffffffffffffffffffffffffffff166370a08231336040518263ffffffff1660e01b8152600401610c429190612047565b602060405180830381865afa158015610c5f573d6000803e3d6000fd5b505050506040513d601f19601f82011682018060405250810190610c839190612077565b905082811015610cbf576040517f5dd3b4d100000000000000000000000000000000000000000000000000000000815260040160405180910390fd5b6000600560008661ffff1661ffff16815260200190815260200160002060003373ffffffffffffffffffffffffffffffffffffffff1673ffffffffffffffffffffffffffffffffffffffff1681526020019081526020016000206001015414610d54576040517fc5ea839600000000000000000000000000000000000000000000000000000000815260040160405180910390fd5b610d5c61152f565b6000610d688686611029565b90506000610d76878761070f565b905084811115610db2576040517f3f735c4f00000000000000000000000000000000000000000000000000000000815260040160405180910390fd5b600260009054906101000a900473ffffffffffffffffffffffffffffffffffffffff1673ffffffffffffffffffffffffffffffffffffffff166323b872dd3330856040518463ffffffff1660e01b8152600401610e1193929190611f2d565b6020604051808303816000875af1158015610e30573d6000803e3d6000fd5b505050506040513d601f19601f82011682018060405250810190610e549190611f9c565b5086836000019061ffff16908161ffff168152505033836020019073ffffffffffffffffffffffffffffffffffffffff16908173ffffffffffffffffffffffffffffffffffffffff168152505085836040018181525050808360600181815250508183608001818152505082600560008961ffff1661ffff16815260200190815260200160002060003373ffffffffffffffffffffffffffffffffffffffff1673ffffffffffffffffffffffffffffffffffffffff16815260200190815260200160002060008201518160000160006101000a81548161ffff021916908361ffff16021790555060208201518160000160026101000a81548173ffffffffffffffffffffffffffffffffffffffff021916908373ffffffffffffffffffffffffffffffffffffffff1602179055506040820151816001015560608201518160020155608082015181600301559050507f6f7b24a89bff54221f25713c015469512753a3c6491219a91c0ff35e7812190f87600360008a61ffff1661ffff16815260200190815260200160002060000160029054906101000a900473ffffffffffffffffffffffffffffffffffffffff163389866040516110189594939291906120a4565b60405180910390a150505050505050565b600080600360008561ffff1661ffff1681526020019081526020016000206001015490506000600360008661ffff1661ffff16815260200190815260200160002060050160009054906101000a900460ff1660ff169050600060648261ffff16846110949190611ad9565b61109e9190611ec8565b905060008382876110af9190611ad9565b6110b99190611ec8565b90508094505050505092915050565b60008054906101000a900461ffff1681565b60036020528060005260406000206000915090508060000160009054906101000a900461ffff16908060000160029054906101000a900473ffffffffffffffffffffffffffffffffffffffff16908060010154908060020154908060030154908060040154908060050160009054906101000a900460ff16908060060154908060070154905089565b600360008261ffff1661ffff1681526020019081526020016000206006015442116111ba576040517fdb589d0800000000000000000000000000000000000000000000000000000000815260040160405180910390fd5b600360008261ffff1661ffff16815260200190815260200160002060070154421115611212576040517fdb589d0800000000000000000000000000000000000000000000000000000000815260040160405180910390fd5b600061121c6113ea565b9050600360008361ffff1661ffff16815260200190815260200160002060040154811315611276576040517ff65ecfbb00000000000000000000000000000000000000000000000000000000815260040160405180910390fd5b6000600560008461ffff1661ffff16815260200190815260200160002060003373ffffffffffffffffffffffffffffffffffffffff1673ffffffffffffffffffffffffffffffffffffffff1681526020019081526020016000206002015490506000600260009054906101000a900473ffffffffffffffffffffffffffffffffffffffff1673ffffffffffffffffffffffffffffffffffffffff166323b872dd3033856040518463ffffffff1660e01b815260040161133793929190611f2d565b6020604051808303816000875af1158015611356573d6000803e3d6000fd5b505050506040513d601f19601f8201168201806040525081019061137a9190611f9c565b905080156113e4576000600560008661ffff1661ffff16815260200190815260200160002060003373ffffffffffffffffffffffffffffffffffffffff1673ffffffffffffffffffffffffffffffffffffffff168152602001908152602001600020600101819055505b50505050565b600080600160009054906101000a900473ffffffffffffffffffffffffffffffffffffffff1673ffffffffffffffffffffffffffffffffffffffff1663feaf968c6040518163ffffffff1660e01b815260040160a060405180830381865afa15801561145a573d6000803e3d6000fd5b505050506040513d601f19601f8201168201806040525081019061147e919061214e565b5050509150508091505090565b604051806101200160405280600061ffff168152602001600073ffffffffffffffffffffffffffffffffffffffff16815260200160008152602001600081526020016000815260200160008152602001600060ff16815260200160008152602001600081525090565b6040518060600160405280600061ffff168152602001600073ffffffffffffffffffffffffffffffffffffffff168152602001600081525090565b6040518060a00160405280600061ffff168152602001600073ffffffffffffffffffffffffffffffffffffffff1681526020016000815260200160008152602001600081525090565b600080fd5b600073ffffffffffffffffffffffffffffffffffffffff82169050919050565b60006115a88261157d565b9050919050565b6115b88161159d565b81146115c357600080fd5b50565b6000813590506115d5816115af565b92915050565b6000819050919050565b6115ee816115db565b81146115f957600080fd5b50565b60008135905061160b816115e5565b92915050565b600060ff82169050919050565b61162781611611565b811461163257600080fd5b50565b6000813590506116448161161e565b92915050565b6000819050919050565b61165d8161164a565b811461166857600080fd5b50565b60008135905061167a81611654565b92915050565b60008060008060008060c0878903121561169d5761169c611578565b5b60006116ab89828a016115c6565b96505060206116bc89828a016115c6565b95505060406116cd89828a016115fc565b94505060606116de89828a01611635565b93505060806116ef89828a0161166b565b92505060a061170089828a0161166b565b9150509295509295509295565b600061ffff82169050919050565b6117248161170d565b82525050565b6117338161159d565b82525050565b6117428161164a565b82525050565b611751816115db565b82525050565b61176081611611565b82525050565b6101208201600082015161177d600085018261171b565b506020820151611790602085018261172a565b5060408201516117a36040850182611739565b5060608201516117b66060850182611739565b5060808201516117c96080850182611748565b5060a08201516117dc60a0850182611748565b5060c08201516117ef60c0850182611757565b5060e082015161180260e0850182611739565b50610100820151611817610100850182611739565b50505050565b6000610120820190506118336000830184611766565b92915050565b6118428161170d565b811461184d57600080fd5b50565b60008135905061185f81611839565b92915050565b6000806040838503121561187c5761187b611578565b5b600061188a85828601611850565b925050602061189b858286016115c6565b9150509250929050565b6118ae8161170d565b82525050565b6118bd8161159d565b82525050565b6118cc8161164a565b82525050565b600060a0820190506118e760008301886118a5565b6118f460208301876118b4565b61190160408301866118c3565b61190e60608301856118c3565b61191b60808301846118c3565b9695505050505050565b60006020828403121561193b5761193a611578565b5b600061194984828501611850565b91505092915050565b600060608201905061196760008301866118a5565b61197460208301856118b4565b61198160408301846118c3565b949350505050565b600080604083850312156119a05761199f611578565b5b60006119ae85828601611850565b92505060206119bf8582860161166b565b9150509250929050565b60006020820190506119de60008301846118c3565b92915050565b60006020820190506119f960008301846118a5565b92915050565b611a08816115db565b82525050565b611a1781611611565b82525050565b600061012082019050611a33600083018c6118a5565b611a40602083018b6118b4565b611a4d604083018a6118c3565b611a5a60608301896118c3565b611a6760808301886119ff565b611a7460a08301876119ff565b611a8160c0830186611a0e565b611a8e60e08301856118c3565b611a9c6101008301846118c3565b9a9950505050505050505050565b7f4e487b7100000000000000000000000000000000000000000000000000000000600052601160045260246000fd5b6000611ae48261164a565b9150611aef8361164a565b9250817fffffffffffffffffffffffffffffffffffffffffffffffffffffffffffffffff0483118215151615611b2857611b27611aaa565b5b828202905092915050565b6000611b3e8261164a565b9150611b498361164a565b9250827fffffffffffffffffffffffffffffffffffffffffffffffffffffffffffffffff03821115611b7e57611b7d611aaa565b5b828201905092915050565b7f4e487b7100000000000000000000000000000000000000000000000000000000600052601260045260246000fd5b6000611bc3826115db565b9150611bce836115db565b925082611bde57611bdd611b89565b5b600160000383147f800000000000000000000000000000000000000000000000000000000000000083141615611c1757611c16611aaa565b5b828205905092915050565b6000611c2d826115db565b9150611c38836115db565b9250827f7fffffffffffffffffffffffffffffffffffffffffffffffffffffffffffffff0482116000841360008413161615611c7757611c76611aaa565b5b817f80000000000000000000000000000000000000000000000000000000000000000583126000841260008413161615611cb457611cb3611aaa565b5b827f80000000000000000000000000000000000000000000000000000000000000000582126000841360008412161615611cf157611cf0611aaa565b5b827f7fffffffffffffffffffffffffffffffffffffffffffffffffffffffffffffff0582126000841260008412161615611d2e57611d2d611aaa565b5b828202905092915050565b6000611d44826115db565b9150611d4f836115db565b9250827f800000000000000000000000000000000000000000000000000000000000000001821260008412151615611d8a57611d89611aaa565b5b827f7fffffffffffffffffffffffffffffffffffffffffffffffffffffffffffffff018213600084121615611dc257611dc1611aaa565b5b828203905092915050565b6000819050919050565b6000819050919050565b6000611dfc611df7611df284611dcd565b611dd7565b61164a565b9050919050565b611e0c81611de1565b82525050565b600061010082019050611e28600083018b6118a5565b611e35602083018a6118b4565b611e4260408301896119ff565b611e4f60608301886119ff565b611e5c6080830187611a0e565b611e6960a0830186611e03565b611e7660c08301856118c3565b611e8360e08301846118c3565b9998505050505050505050565b6000611e9b8261170d565b9150611ea68361170d565b92508261ffff03821115611ebd57611ebc611aaa565b5b828201905092915050565b6000611ed38261164a565b9150611ede8361164a565b925082611eee57611eed611b89565b5b828204905092915050565b6000611f048261164a565b9150611f0f8361164a565b925082821015611f2257611f21611aaa565b5b828203905092915050565b6000606082019050611f4260008301866118b4565b611f4f60208301856118b4565b611f5c60408301846118c3565b949350505050565b60008115159050919050565b611f7981611f64565b8114611f8457600080fd5b50565b600081519050611f9681611f70565b92915050565b600060208284031215611fb257611fb1611578565b5b6000611fc084828501611f87565b91505092915050565b600061010082019050611fdf600083018b6118a5565b611fec602083018a6118b4565b611ff960408301896119ff565b61200660608301886119ff565b6120136080830187611a0e565b61202060a08301866118c3565b61202d60c08301856118c3565b61203a60e08301846118c3565b9998505050505050505050565b600060208201905061205c60008301846118b4565b92915050565b60008151905061207181611654565b92915050565b60006020828403121561208d5761208c611578565b5b600061209b84828501612062565b91505092915050565b600060a0820190506120b960008301886118a5565b6120c660208301876118b4565b6120d360408301866118b4565b6120e060608301856118c3565b6120ed60808301846118c3565b9695505050505050565b600069ffffffffffffffffffff82169050919050565b612116816120f7565b811461212157600080fd5b50565b6000815190506121338161210d565b92915050565b600081519050612148816115e5565b92915050565b600080600080600060a0868803121561216a57612169611578565b5b600061217888828901612124565b955050602061218988828901612139565b945050604061219a88828901612062565b93505060606121ab88828901612062565b92505060806121bc88828901612124565b915050929550929590935056fea26469706673582212206b40c2d1029a8d19aca110a12d75520cdd432dc0234a0600c39a153625c9527464736f6c634300080a0033",
  "devdoc": {
    "kind": "dev",
    "methods": {},
    "version": 1
  },
  "userdoc": {
    "kind": "user",
    "methods": {},
    "version": 1
  },
  "storageLayout": {
    "storage": [
      {
        "astId": 134,
        "contract": "contracts/MacInsuranceMain.sol:MacInsuranceMain",
        "label": "id",
        "offset": 0,
        "slot": "0",
        "type": "t_uint16"
      },
      {
        "astId": 136,
        "contract": "contracts/MacInsuranceMain.sol:MacInsuranceMain",
        "label": "tokenAddress",
        "offset": 2,
        "slot": "0",
        "type": "t_address"
      },
      {
        "astId": 139,
        "contract": "contracts/MacInsuranceMain.sol:MacInsuranceMain",
        "label": "priceFeed",
        "offset": 0,
        "slot": "1",
        "type": "t_contract(AggregatorV3Interface)45"
      },
      {
        "astId": 142,
        "contract": "contracts/MacInsuranceMain.sol:MacInsuranceMain",
        "label": "insuredToken",
        "offset": 0,
        "slot": "2",
        "type": "t_contract(IERC20)123"
      },
      {
        "astId": 147,
        "contract": "contracts/MacInsuranceMain.sol:MacInsuranceMain",
        "label": "poolDataList",
        "offset": 0,
        "slot": "3",
        "type": "t_mapping(t_uint16,t_struct(PoolData)847_storage)"
      },
      {
        "astId": 152,
        "contract": "contracts/MacInsuranceMain.sol:MacInsuranceMain",
        "label": "liquiditySupplyList",
        "offset": 0,
        "slot": "4",
        "type": "t_mapping(t_uint16,t_struct(PoolLiquiditySupply)854_storage)"
      },
      {
        "astId": 159,
        "contract": "contracts/MacInsuranceMain.sol:MacInsuranceMain",
        "label": "insuranceRequests",
        "offset": 0,
        "slot": "5",
        "type": "t_mapping(t_uint16,t_mapping(t_address,t_struct(InsuranceRequest)865_storage))"
      }
    ],
    "types": {
      "t_address": {
        "encoding": "inplace",
        "label": "address",
        "numberOfBytes": "20"
      },
      "t_contract(AggregatorV3Interface)45": {
        "encoding": "inplace",
        "label": "contract AggregatorV3Interface",
        "numberOfBytes": "20"
      },
      "t_contract(IERC20)123": {
        "encoding": "inplace",
        "label": "contract IERC20",
        "numberOfBytes": "20"
      },
      "t_int256": {
        "encoding": "inplace",
        "label": "int256",
        "numberOfBytes": "32"
      },
      "t_mapping(t_address,t_struct(InsuranceRequest)865_storage)": {
        "encoding": "mapping",
        "key": "t_address",
        "label": "mapping(address => struct DataTypes.InsuranceRequest)",
        "numberOfBytes": "32",
        "value": "t_struct(InsuranceRequest)865_storage"
      },
      "t_mapping(t_uint16,t_mapping(t_address,t_struct(InsuranceRequest)865_storage))": {
        "encoding": "mapping",
        "key": "t_uint16",
        "label": "mapping(uint16 => mapping(address => struct DataTypes.InsuranceRequest))",
        "numberOfBytes": "32",
        "value": "t_mapping(t_address,t_struct(InsuranceRequest)865_storage)"
      },
      "t_mapping(t_uint16,t_struct(PoolData)847_storage)": {
        "encoding": "mapping",
        "key": "t_uint16",
        "label": "mapping(uint16 => struct DataTypes.PoolData)",
        "numberOfBytes": "32",
        "value": "t_struct(PoolData)847_storage"
      },
      "t_mapping(t_uint16,t_struct(PoolLiquiditySupply)854_storage)": {
        "encoding": "mapping",
        "key": "t_uint16",
        "label": "mapping(uint16 => struct DataTypes.PoolLiquiditySupply)",
        "numberOfBytes": "32",
        "value": "t_struct(PoolLiquiditySupply)854_storage"
      },
      "t_struct(InsuranceRequest)865_storage": {
        "encoding": "inplace",
        "label": "struct DataTypes.InsuranceRequest",
        "members": [
          {
            "astId": 856,
            "contract": "contracts/MacInsuranceMain.sol:MacInsuranceMain",
            "label": "id",
            "offset": 0,
            "slot": "0",
            "type": "t_uint16"
          },
          {
            "astId": 858,
            "contract": "contracts/MacInsuranceMain.sol:MacInsuranceMain",
            "label": "insuranceRequester",
            "offset": 2,
            "slot": "0",
            "type": "t_address"
          },
          {
            "astId": 860,
            "contract": "contracts/MacInsuranceMain.sol:MacInsuranceMain",
            "label": "liquidtyToInsure",
            "offset": 0,
            "slot": "1",
            "type": "t_uint256"
          },
          {
            "astId": 862,
            "contract": "contracts/MacInsuranceMain.sol:MacInsuranceMain",
            "label": "reimbursementAmount",
            "offset": 0,
            "slot": "2",
            "type": "t_uint256"
          },
          {
            "astId": 864,
            "contract": "contracts/MacInsuranceMain.sol:MacInsuranceMain",
            "label": "fee",
            "offset": 0,
            "slot": "3",
            "type": "t_uint256"
          }
        ],
        "numberOfBytes": "128"
      },
      "t_struct(PoolData)847_storage": {
        "encoding": "inplace",
        "label": "struct DataTypes.PoolData",
        "members": [
          {
            "astId": 830,
            "contract": "contracts/MacInsuranceMain.sol:MacInsuranceMain",
            "label": "id",
            "offset": 0,
            "slot": "0",
            "type": "t_uint16"
          },
          {
            "astId": 832,
            "contract": "contracts/MacInsuranceMain.sol:MacInsuranceMain",
            "label": "tokenAddress",
            "offset": 2,
            "slot": "0",
            "type": "t_address"
          },
          {
            "astId": 834,
            "contract": "contracts/MacInsuranceMain.sol:MacInsuranceMain",
            "label": "totalLiquidity",
            "offset": 0,
            "slot": "1",
            "type": "t_uint256"
          },
          {
            "astId": 836,
            "contract": "contracts/MacInsuranceMain.sol:MacInsuranceMain",
            "label": "priceLossCover",
            "offset": 0,
            "slot": "2",
            "type": "t_uint256"
          },
          {
            "astId": 838,
            "contract": "contracts/MacInsuranceMain.sol:MacInsuranceMain",
            "label": "basePrice",
            "offset": 0,
            "slot": "3",
            "type": "t_int256"
          },
          {
            "astId": 840,
            "contract": "contracts/MacInsuranceMain.sol:MacInsuranceMain",
            "label": "insuranceTreshold",
            "offset": 0,
            "slot": "4",
            "type": "t_int256"
          },
          {
            "astId": 842,
            "contract": "contracts/MacInsuranceMain.sol:MacInsuranceMain",
            "label": "fee",
            "offset": 0,
            "slot": "5",
            "type": "t_uint8"
          },
          {
            "astId": 844,
            "contract": "contracts/MacInsuranceMain.sol:MacInsuranceMain",
            "label": "startDate",
            "offset": 0,
            "slot": "6",
            "type": "t_uint256"
          },
          {
            "astId": 846,
            "contract": "contracts/MacInsuranceMain.sol:MacInsuranceMain",
            "label": "endDate",
            "offset": 0,
            "slot": "7",
            "type": "t_uint256"
          }
        ],
        "numberOfBytes": "256"
      },
      "t_struct(PoolLiquiditySupply)854_storage": {
        "encoding": "inplace",
        "label": "struct DataTypes.PoolLiquiditySupply",
        "members": [
          {
            "astId": 849,
            "contract": "contracts/MacInsuranceMain.sol:MacInsuranceMain",
            "label": "id",
            "offset": 0,
            "slot": "0",
            "type": "t_uint16"
          },
          {
            "astId": 851,
            "contract": "contracts/MacInsuranceMain.sol:MacInsuranceMain",
            "label": "liquidityProvider",
            "offset": 2,
            "slot": "0",
            "type": "t_address"
          },
          {
            "astId": 853,
            "contract": "contracts/MacInsuranceMain.sol:MacInsuranceMain",
            "label": "liquidityAdded",
            "offset": 0,
            "slot": "1",
            "type": "t_uint256"
          }
        ],
        "numberOfBytes": "64"
      },
      "t_uint16": {
        "encoding": "inplace",
        "label": "uint16",
        "numberOfBytes": "2"
      },
      "t_uint256": {
        "encoding": "inplace",
        "label": "uint256",
        "numberOfBytes": "32"
      },
      "t_uint8": {
        "encoding": "inplace",
        "label": "uint8",
        "numberOfBytes": "1"
      }
    }
  }
}