{
  "address": "0xB153690860cc40A6E073BCadB9221f85e8e005aa",
  "abi": [
    {
      "inputs": [],
      "stateMutability": "nonpayable",
      "type": "constructor"
    },
    {
      "inputs": [],
      "name": "EndDateEarlierThanStartDate",
      "type": "error"
    },
    {
      "inputs": [],
      "name": "InsuranceAlreadyRequested",
      "type": "error"
    },
    {
      "inputs": [],
      "name": "InsuranceInActivePeriod",
      "type": "error"
    },
    {
      "inputs": [],
      "name": "NotEnoughLiquidity",
      "type": "error"
    },
    {
      "inputs": [],
      "name": "NotEnoughTokenBalance",
      "type": "error"
    },
    {
      "inputs": [],
      "name": "PoolIdNotCreated",
      "type": "error"
    },
    {
      "inputs": [],
      "name": "ReimburesementRequirementNotMet",
      "type": "error"
    },
    {
      "anonymous": false,
      "inputs": [
        {
          "indexed": false,
          "internalType": "uint16",
          "name": "poolId",
          "type": "uint16"
        },
        {
          "indexed": false,
          "internalType": "address",
          "name": "tokenAddress",
          "type": "address"
        },
        {
          "indexed": false,
          "internalType": "address",
          "name": "insuranceRequester",
          "type": "address"
        },
        {
          "indexed": false,
          "internalType": "uint256",
          "name": "liquidtyToInsure",
          "type": "uint256"
        },
        {
          "indexed": false,
          "internalType": "uint128",
          "name": "fee",
          "type": "uint128"
        }
      ],
      "name": "InsuranceRequestCreated",
      "type": "event"
    },
    {
      "anonymous": false,
      "inputs": [
        {
          "indexed": false,
          "internalType": "uint16",
          "name": "poolId",
          "type": "uint16"
        },
        {
          "indexed": false,
          "internalType": "address",
          "name": "tokenAddress",
          "type": "address"
        },
        {
          "indexed": false,
          "internalType": "address",
          "name": "owner",
          "type": "address"
        },
        {
          "indexed": false,
          "internalType": "int256",
          "name": "basePrice",
          "type": "int256"
        },
        {
          "indexed": false,
          "internalType": "int256",
          "name": "tresholdPrice",
          "type": "int256"
        },
        {
          "indexed": false,
          "internalType": "uint256",
          "name": "startDate",
          "type": "uint256"
        },
        {
          "indexed": false,
          "internalType": "uint256",
          "name": "endDate",
          "type": "uint256"
        }
      ],
      "name": "PoolCreated",
      "type": "event"
    },
    {
      "anonymous": false,
      "inputs": [
        {
          "indexed": false,
          "internalType": "uint16",
          "name": "poolId",
          "type": "uint16"
        },
        {
          "indexed": false,
          "internalType": "address",
          "name": "liquidityProvider",
          "type": "address"
        },
        {
          "indexed": false,
          "internalType": "uint256",
          "name": "liquidityAdded",
          "type": "uint256"
        }
      ],
      "name": "PoolLiquidityAdded",
      "type": "event"
    },
    {
      "inputs": [],
      "name": "getLatestPrice",
      "outputs": [
        {
          "internalType": "int256",
          "name": "",
          "type": "int256"
        }
      ],
      "stateMutability": "view",
      "type": "function"
    },
    {
      "inputs": [],
      "name": "id",
      "outputs": [
        {
          "internalType": "uint16",
          "name": "",
          "type": "uint16"
        }
      ],
      "stateMutability": "view",
      "type": "function"
    },
    {
      "inputs": [
        {
          "internalType": "address",
          "name": "_tokenAddress",
          "type": "address"
        },
        {
          "internalType": "address",
          "name": "_priceFeed",
          "type": "address"
        },
        {
          "internalType": "int256",
          "name": "_insuranceLossCoverage",
          "type": "int256"
        },
        {
          "internalType": "uint8",
          "name": "_fee",
          "type": "uint8"
        },
        {
          "internalType": "uint32",
          "name": "_startDateFromDeployInDays",
          "type": "uint32"
        },
        {
          "internalType": "uint32",
          "name": "_endDateFromDeployInDays",
          "type": "uint32"
        }
      ],
      "name": "initPool",
      "outputs": [
        {
          "components": [
            {
              "internalType": "uint16",
              "name": "id",
              "type": "uint16"
            },
            {
              "internalType": "address",
              "name": "tokenAddress",
              "type": "address"
            },
            {
              "internalType": "uint256",
              "name": "totalLiquidity",
              "type": "uint256"
            },
            {
              "internalType": "uint256",
              "name": "priceLossCover",
              "type": "uint256"
            },
            {
              "internalType": "int256",
              "name": "basePrice",
              "type": "int256"
            },
            {
              "internalType": "int256",
              "name": "insuranceTreshold",
              "type": "int256"
            },
            {
              "internalType": "uint8",
              "name": "fee",
              "type": "uint8"
            },
            {
              "internalType": "uint256",
              "name": "startDate",
              "type": "uint256"
            },
            {
              "internalType": "uint256",
              "name": "endDate",
              "type": "uint256"
            }
          ],
          "internalType": "struct DataTypes.PoolData",
          "name": "",
          "type": "tuple"
        }
      ],
      "stateMutability": "nonpayable",
      "type": "function"
    },
    {
      "inputs": [
        {
          "internalType": "uint16",
          "name": "",
          "type": "uint16"
        },
        {
          "internalType": "address",
          "name": "",
          "type": "address"
        }
      ],
      "name": "insuranceRequests",
      "outputs": [
        {
          "internalType": "uint16",
          "name": "id",
          "type": "uint16"
        },
        {
          "internalType": "address",
          "name": "insuranceRequester",
          "type": "address"
        },
        {
          "internalType": "uint256",
          "name": "liquidtyToInsure",
          "type": "uint256"
        },
        {
          "internalType": "uint256",
          "name": "reimbursementAmount",
          "type": "uint256"
        },
        {
          "internalType": "uint256",
          "name": "fee",
          "type": "uint256"
        }
      ],
      "stateMutability": "view",
      "type": "function"
    },
    {
      "inputs": [
        {
          "internalType": "uint16",
          "name": "",
          "type": "uint16"
        }
      ],
      "name": "liquiditySupplyList",
      "outputs": [
        {
          "internalType": "uint16",
          "name": "id",
          "type": "uint16"
        },
        {
          "internalType": "address",
          "name": "liquidityProvider",
          "type": "address"
        },
        {
          "internalType": "uint256",
          "name": "liquidityAdded",
          "type": "uint256"
        }
      ],
      "stateMutability": "view",
      "type": "function"
    },
    {
      "inputs": [
        {
          "internalType": "uint16",
          "name": "",
          "type": "uint16"
        }
      ],
      "name": "poolDataList",
      "outputs": [
        {
          "internalType": "uint16",
          "name": "id",
          "type": "uint16"
        },
        {
          "internalType": "address",
          "name": "tokenAddress",
          "type": "address"
        },
        {
          "internalType": "uint256",
          "name": "totalLiquidity",
          "type": "uint256"
        },
        {
          "internalType": "uint256",
          "name": "priceLossCover",
          "type": "uint256"
        },
        {
          "internalType": "int256",
          "name": "basePrice",
          "type": "int256"
        },
        {
          "internalType": "int256",
          "name": "insuranceTreshold",
          "type": "int256"
        },
        {
          "internalType": "uint8",
          "name": "fee",
          "type": "uint8"
        },
        {
          "internalType": "uint256",
          "name": "startDate",
          "type": "uint256"
        },
        {
          "internalType": "uint256",
          "name": "endDate",
          "type": "uint256"
        }
      ],
      "stateMutability": "view",
      "type": "function"
    },
    {
      "inputs": [
        {
          "internalType": "uint16",
          "name": "_id",
          "type": "uint16"
        },
        {
          "internalType": "uint32",
          "name": "_amount",
          "type": "uint32"
        }
      ],
      "name": "requestInsurance",
      "outputs": [],
      "stateMutability": "nonpayable",
      "type": "function"
    },
    {
      "inputs": [
        {
          "internalType": "uint16",
          "name": "_id",
          "type": "uint16"
        }
      ],
      "name": "requestReimbursement",
      "outputs": [],
      "stateMutability": "nonpayable",
      "type": "function"
    },
    {
      "inputs": [
        {
          "internalType": "uint16",
          "name": "_id",
          "type": "uint16"
        },
        {
          "internalType": "uint256",
          "name": "_amount",
          "type": "uint256"
        }
      ],
      "name": "supplyPool",
      "outputs": [
        {
          "internalType": "uint256",
          "name": "",
          "type": "uint256"
        }
      ],
      "stateMutability": "nonpayable",
      "type": "function"
    }
  ],
  "transactionHash": "0x46807009b37494b7f1bf7c51976e01ec57a2bd0c20cb99f8ca9a12a7e98e1df6",
  "args": [],
  "numDeployments": 1,
  "solcInputHash": "67eb8b510b31090adeda550a02c1efdf",
  "bytecode": "0x608060405234801561001057600080fd5b5060008060006101000a81548161ffff021916908361ffff160217905550611eaf8061003d6000396000f3fe608060405234801561001057600080fd5b50600436106100935760003560e01c80638e15f473116100665780638e15f4731461015e578063af640d0f1461017c578063b307fc751461019a578063dca5ed48146101d2578063f66502dc146101ee57610093565b8063445a66f1146100985780635fae9b92146100c857806363624107146100fc5780637bbece751461012e575b600080fd5b6100b260048036038101906100ad9190611414565b61020a565b6040516100bf91906115bb565b60405180910390f35b6100e260048036038101906100dd9190611603565b610606565b6040516100f3959493929190611670565b60405180910390f35b610116600480360381019061011191906116c3565b610677565b604051610125939291906116f0565b60405180910390f35b61014860048036038101906101439190611753565b6106cf565b6040516101559190611793565b60405180910390f35b6101666109a5565b60405161017391906117bd565b60405180910390f35b610184610a46565b60405161019191906117d8565b60405180910390f35b6101b460048036038101906101af91906116c3565b610a58565b6040516101c999989796959493929190611802565b60405180910390f35b6101ec60048036038101906101e791906116c3565b610ae1565b005b6102086004803603810190610203919061188f565b610cb9565b005b610212611219565b85600160006101000a81548173ffffffffffffffffffffffffffffffffffffffff021916908373ffffffffffffffffffffffffffffffffffffffff16021790555086600260006101000a81548173ffffffffffffffffffffffffffffffffffffffff021916908373ffffffffffffffffffffffffffffffffffffffff16021790555086600060026101000a81548173ffffffffffffffffffffffffffffffffffffffff021916908373ffffffffffffffffffffffffffffffffffffffff160217905550600062015180846102e691906118fe565b63ffffffff16426102f7919061193c565b90506000620151808461030a91906118fe565b63ffffffff164261031b919061193c565b9050818111610356576040517f14cc095100000000000000000000000000000000000000000000000000000000815260040160405180910390fd5b61035e611219565b60006103686109a5565b905060008960648361037a91906119c1565b6103849190611a2b565b8261038f9190611b42565b905060008054906101000a900461ffff16836000019061ffff16908161ffff1681525050600060029054906101000a900473ffffffffffffffffffffffffffffffffffffffff16836020019073ffffffffffffffffffffffffffffffffffffffff16908173ffffffffffffffffffffffffffffffffffffffff16815250508983606001818152505081836080018181525050808360a0018181525050888360c0019060ff16908160ff1681525050848360e0018181525050838361010001818152505082600360008060009054906101000a900461ffff1661ffff1661ffff16815260200190815260200160002060008201518160000160006101000a81548161ffff021916908361ffff16021790555060208201518160000160026101000a81548173ffffffffffffffffffffffffffffffffffffffff021916908373ffffffffffffffffffffffffffffffffffffffff16021790555060408201518160010155606082015181600201556080820151816003015560a0820151816004015560c08201518160050160006101000a81548160ff021916908360ff16021790555060e0820151816006015561010082015181600701559050507fc9fbab4b903204b9f00005cd0265cc53feab8914abdebed551648b4bc733f92b60008054906101000a900461ffff16600060029054906101000a900473ffffffffffffffffffffffffffffffffffffffff163385858a8a6040516105b39796959493929190611bd6565b60405180910390a160016000808282829054906101000a900461ffff166105da9190611c45565b92506101000a81548161ffff021916908361ffff16021790555082955050505050509695505050505050565b6005602052816000526040600020602052806000526040600020600091509150508060000160009054906101000a900461ffff16908060000160029054906101000a900473ffffffffffffffffffffffffffffffffffffffff16908060010154908060020154908060030154905085565b60046020528060005260406000206000915090508060000160009054906101000a900461ffff16908060000160029054906101000a900473ffffffffffffffffffffffffffffffffffffffff16908060010154905083565b60008060009054906101000a900461ffff1661ffff168361ffff161115610722576040517ff23f6c1500000000000000000000000000000000000000000000000000000000815260040160405180910390fd5b600360008461ffff1661ffff168152602001908152602001600020600601544211610779576040517fdb589d0800000000000000000000000000000000000000000000000000000000815260040160405180910390fd5b610781611282565b600260009054906101000a900473ffffffffffffffffffffffffffffffffffffffff1673ffffffffffffffffffffffffffffffffffffffff166323b872dd3330866040518463ffffffff1660e01b81526004016107e093929190611c7d565b6020604051808303816000875af11580156107ff573d6000803e3d6000fd5b505050506040513d601f19601f820116820180604052508101906108239190611cec565b5082600360008661ffff1661ffff1681526020019081526020016000206001016000828254610852919061193c565b9250508190555083816000019061ffff16908161ffff168152505033816020019073ffffffffffffffffffffffffffffffffffffffff16908173ffffffffffffffffffffffffffffffffffffffff16815250508281604001818152505080600460008661ffff1661ffff16815260200190815260200160002060008201518160000160006101000a81548161ffff021916908361ffff16021790555060208201518160000160026101000a81548173ffffffffffffffffffffffffffffffffffffffff021916908373ffffffffffffffffffffffffffffffffffffffff160217905550604082015181600101559050507fb59fb6b7f81c4b116222f2e6feea340f3ce6818a0a6870b31e0019b24396d8db843385604051610975939291906116f0565b60405180910390a1600360008561ffff1661ffff1681526020019081526020016000206001015491505092915050565b600080600160009054906101000a900473ffffffffffffffffffffffffffffffffffffffff1673ffffffffffffffffffffffffffffffffffffffff1663feaf968c6040518163ffffffff1660e01b815260040160a060405180830381865afa158015610a15573d6000803e3d6000fd5b505050506040513d601f19601f82011682018060405250810190610a399190611d85565b5050509150508091505090565b60008054906101000a900461ffff1681565b60036020528060005260406000206000915090508060000160009054906101000a900461ffff16908060000160029054906101000a900473ffffffffffffffffffffffffffffffffffffffff16908060010154908060020154908060030154908060040154908060050160009054906101000a900460ff16908060060154908060070154905089565b6000610aeb6109a5565b9050600360008361ffff1661ffff16815260200190815260200160002060040154811215610b45576040517ff65ecfbb00000000000000000000000000000000000000000000000000000000815260040160405180910390fd5b6000600560008461ffff1661ffff16815260200190815260200160002060003373ffffffffffffffffffffffffffffffffffffffff1673ffffffffffffffffffffffffffffffffffffffff1681526020019081526020016000206002015490506000600260009054906101000a900473ffffffffffffffffffffffffffffffffffffffff1673ffffffffffffffffffffffffffffffffffffffff166323b872dd3033856040518463ffffffff1660e01b8152600401610c0693929190611c7d565b6020604051808303816000875af1158015610c25573d6000803e3d6000fd5b505050506040513d601f19601f82011682018060405250810190610c499190611cec565b90508015610cb3576000600560008661ffff1661ffff16815260200190815260200160002060003373ffffffffffffffffffffffffffffffffffffffff1673ffffffffffffffffffffffffffffffffffffffff168152602001908152602001600020600101819055505b50505050565b6000600360008461ffff1661ffff168152602001908152602001600020600101549050808263ffffffff161115610d1c576040517f4323a55500000000000000000000000000000000000000000000000000000000815260040160405180910390fd5b600360008461ffff1661ffff168152602001908152602001600020600601544211610d73576040517fdb589d0800000000000000000000000000000000000000000000000000000000815260040160405180910390fd5b6000600260009054906101000a900473ffffffffffffffffffffffffffffffffffffffff1673ffffffffffffffffffffffffffffffffffffffff166370a08231336040518263ffffffff1660e01b8152600401610dd09190611e00565b602060405180830381865afa158015610ded573d6000803e3d6000fd5b505050506040513d601f19601f82011682018060405250810190610e119190611e1b565b90508263ffffffff16811015610e53576040517f5dd3b4d100000000000000000000000000000000000000000000000000000000815260040160405180910390fd5b6000600560008661ffff1661ffff16815260200190815260200160002060003373ffffffffffffffffffffffffffffffffffffffff1673ffffffffffffffffffffffffffffffffffffffff1681526020019081526020016000206001015414610ee8576040517fc5ea839600000000000000000000000000000000000000000000000000000000815260040160405180910390fd5b610ef06112bd565b6000610f02868663ffffffff16611118565b90506000610f16878763ffffffff166111ab565b9050600260009054906101000a900473ffffffffffffffffffffffffffffffffffffffff1673ffffffffffffffffffffffffffffffffffffffff166323b872dd3330856040518463ffffffff1660e01b8152600401610f7793929190611c7d565b6020604051808303816000875af1158015610f96573d6000803e3d6000fd5b505050506040513d601f19601f82011682018060405250810190610fba9190611cec565b5086836000019061ffff16908161ffff168152505033836020019073ffffffffffffffffffffffffffffffffffffffff16908173ffffffffffffffffffffffffffffffffffffffff16815250508563ffffffff16836040018181525050808360600181815250508183608001818152505082600560008961ffff1661ffff16815260200190815260200160002060003373ffffffffffffffffffffffffffffffffffffffff1673ffffffffffffffffffffffffffffffffffffffff16815260200190815260200160002060008201518160000160006101000a81548161ffff021916908361ffff16021790555060208201518160000160026101000a81548173ffffffffffffffffffffffffffffffffffffffff021916908373ffffffffffffffffffffffffffffffffffffffff16021790555060408201518160010155606082015181600201556080820151816003015590505050505050505050565b600080600360008561ffff1661ffff1681526020019081526020016000206001015490506000600360008661ffff1661ffff16815260200190815260200160002060050160009054906101000a900460ff1660ff16905060008161ffff16836111819190611e48565b905060008184876111929190611e48565b61119c9190611e48565b90508094505050505092915050565b600080600360008561ffff1661ffff1681526020019081526020016000206002015490506000600360008661ffff1661ffff16815260200190815260200160002060040154905060008183866112019190611e48565b61120b9190611e48565b905080935050505092915050565b604051806101200160405280600061ffff168152602001600073ffffffffffffffffffffffffffffffffffffffff16815260200160008152602001600081526020016000815260200160008152602001600060ff16815260200160008152602001600081525090565b6040518060600160405280600061ffff168152602001600073ffffffffffffffffffffffffffffffffffffffff168152602001600081525090565b6040518060a00160405280600061ffff168152602001600073ffffffffffffffffffffffffffffffffffffffff1681526020016000815260200160008152602001600081525090565b600080fd5b600073ffffffffffffffffffffffffffffffffffffffff82169050919050565b60006113368261130b565b9050919050565b6113468161132b565b811461135157600080fd5b50565b6000813590506113638161133d565b92915050565b6000819050919050565b61137c81611369565b811461138757600080fd5b50565b60008135905061139981611373565b92915050565b600060ff82169050919050565b6113b58161139f565b81146113c057600080fd5b50565b6000813590506113d2816113ac565b92915050565b600063ffffffff82169050919050565b6113f1816113d8565b81146113fc57600080fd5b50565b60008135905061140e816113e8565b92915050565b60008060008060008060c0878903121561143157611430611306565b5b600061143f89828a01611354565b965050602061145089828a01611354565b955050604061146189828a0161138a565b945050606061147289828a016113c3565b935050608061148389828a016113ff565b92505060a061149489828a016113ff565b9150509295509295509295565b600061ffff82169050919050565b6114b8816114a1565b82525050565b6114c78161132b565b82525050565b6000819050919050565b6114e0816114cd565b82525050565b6114ef81611369565b82525050565b6114fe8161139f565b82525050565b6101208201600082015161151b60008501826114af565b50602082015161152e60208501826114be565b50604082015161154160408501826114d7565b50606082015161155460608501826114d7565b50608082015161156760808501826114e6565b5060a082015161157a60a08501826114e6565b5060c082015161158d60c08501826114f5565b5060e08201516115a060e08501826114d7565b506101008201516115b56101008501826114d7565b50505050565b6000610120820190506115d16000830184611504565b92915050565b6115e0816114a1565b81146115eb57600080fd5b50565b6000813590506115fd816115d7565b92915050565b6000806040838503121561161a57611619611306565b5b6000611628858286016115ee565b925050602061163985828601611354565b9150509250929050565b61164c816114a1565b82525050565b61165b8161132b565b82525050565b61166a816114cd565b82525050565b600060a0820190506116856000830188611643565b6116926020830187611652565b61169f6040830186611661565b6116ac6060830185611661565b6116b96080830184611661565b9695505050505050565b6000602082840312156116d9576116d8611306565b5b60006116e7848285016115ee565b91505092915050565b60006060820190506117056000830186611643565b6117126020830185611652565b61171f6040830184611661565b949350505050565b611730816114cd565b811461173b57600080fd5b50565b60008135905061174d81611727565b92915050565b6000806040838503121561176a57611769611306565b5b6000611778858286016115ee565b92505060206117898582860161173e565b9150509250929050565b60006020820190506117a86000830184611661565b92915050565b6117b781611369565b82525050565b60006020820190506117d260008301846117ae565b92915050565b60006020820190506117ed6000830184611643565b92915050565b6117fc8161139f565b82525050565b600061012082019050611818600083018c611643565b611825602083018b611652565b611832604083018a611661565b61183f6060830189611661565b61184c60808301886117ae565b61185960a08301876117ae565b61186660c08301866117f3565b61187360e0830185611661565b611881610100830184611661565b9a9950505050505050505050565b600080604083850312156118a6576118a5611306565b5b60006118b4858286016115ee565b92505060206118c5858286016113ff565b9150509250929050565b7f4e487b7100000000000000000000000000000000000000000000000000000000600052601160045260246000fd5b6000611909826113d8565b9150611914836113d8565b92508163ffffffff0483118215151615611931576119306118cf565b5b828202905092915050565b6000611947826114cd565b9150611952836114cd565b9250827fffffffffffffffffffffffffffffffffffffffffffffffffffffffffffffffff03821115611987576119866118cf565b5b828201905092915050565b7f4e487b7100000000000000000000000000000000000000000000000000000000600052601260045260246000fd5b60006119cc82611369565b91506119d783611369565b9250826119e7576119e6611992565b5b600160000383147f800000000000000000000000000000000000000000000000000000000000000083141615611a2057611a1f6118cf565b5b828205905092915050565b6000611a3682611369565b9150611a4183611369565b9250827f7fffffffffffffffffffffffffffffffffffffffffffffffffffffffffffffff0482116000841360008413161615611a8057611a7f6118cf565b5b817f80000000000000000000000000000000000000000000000000000000000000000583126000841260008413161615611abd57611abc6118cf565b5b827f80000000000000000000000000000000000000000000000000000000000000000582126000841360008412161615611afa57611af96118cf565b5b827f7fffffffffffffffffffffffffffffffffffffffffffffffffffffffffffffff0582126000841260008412161615611b3757611b366118cf565b5b828202905092915050565b6000611b4d82611369565b9150611b5883611369565b9250827f800000000000000000000000000000000000000000000000000000000000000001821260008412151615611b9357611b926118cf565b5b827f7fffffffffffffffffffffffffffffffffffffffffffffffffffffffffffffff018213600084121615611bcb57611bca6118cf565b5b828203905092915050565b600060e082019050611beb600083018a611643565b611bf86020830189611652565b611c056040830188611652565b611c1260608301876117ae565b611c1f60808301866117ae565b611c2c60a0830185611661565b611c3960c0830184611661565b98975050505050505050565b6000611c50826114a1565b9150611c5b836114a1565b92508261ffff03821115611c7257611c716118cf565b5b828201905092915050565b6000606082019050611c926000830186611652565b611c9f6020830185611652565b611cac6040830184611661565b949350505050565b60008115159050919050565b611cc981611cb4565b8114611cd457600080fd5b50565b600081519050611ce681611cc0565b92915050565b600060208284031215611d0257611d01611306565b5b6000611d1084828501611cd7565b91505092915050565b600069ffffffffffffffffffff82169050919050565b611d3881611d19565b8114611d4357600080fd5b50565b600081519050611d5581611d2f565b92915050565b600081519050611d6a81611373565b92915050565b600081519050611d7f81611727565b92915050565b600080600080600060a08688031215611da157611da0611306565b5b6000611daf88828901611d46565b9550506020611dc088828901611d5b565b9450506040611dd188828901611d70565b9350506060611de288828901611d70565b9250506080611df388828901611d46565b9150509295509295909350565b6000602082019050611e156000830184611652565b92915050565b600060208284031215611e3157611e30611306565b5b6000611e3f84828501611d70565b91505092915050565b6000611e53826114cd565b9150611e5e836114cd565b925082611e6e57611e6d611992565b5b82820490509291505056fea2646970667358221220936b1916f2e45a7058db3bf922e7f14fdf9224fb443ac59fe16b91064b0f74ed64736f6c634300080a0033",
  "devdoc": {
    "kind": "dev",
    "methods": {},
    "version": 1
  },
  "userdoc": {
    "kind": "user",
    "methods": {},
    "version": 1
  },
  "storageLayout": {
    "storage": [
      {
        "astId": 134,
        "contract": "contracts/MacInsuranceMain.sol:MacInsuranceMain",
        "label": "id",
        "offset": 0,
        "slot": "0",
        "type": "t_uint16"
      },
      {
        "astId": 136,
        "contract": "contracts/MacInsuranceMain.sol:MacInsuranceMain",
        "label": "tokenAddress",
        "offset": 2,
        "slot": "0",
        "type": "t_address"
      },
      {
        "astId": 139,
        "contract": "contracts/MacInsuranceMain.sol:MacInsuranceMain",
        "label": "priceFeed",
        "offset": 0,
        "slot": "1",
        "type": "t_contract(AggregatorV3Interface)45"
      },
      {
        "astId": 142,
        "contract": "contracts/MacInsuranceMain.sol:MacInsuranceMain",
        "label": "insuredToken",
        "offset": 0,
        "slot": "2",
        "type": "t_contract(IERC20)123"
      },
      {
        "astId": 147,
        "contract": "contracts/MacInsuranceMain.sol:MacInsuranceMain",
        "label": "poolDataList",
        "offset": 0,
        "slot": "3",
        "type": "t_mapping(t_uint16,t_struct(PoolData)784_storage)"
      },
      {
        "astId": 152,
        "contract": "contracts/MacInsuranceMain.sol:MacInsuranceMain",
        "label": "liquiditySupplyList",
        "offset": 0,
        "slot": "4",
        "type": "t_mapping(t_uint16,t_struct(PoolLiquiditySupply)791_storage)"
      },
      {
        "astId": 159,
        "contract": "contracts/MacInsuranceMain.sol:MacInsuranceMain",
        "label": "insuranceRequests",
        "offset": 0,
        "slot": "5",
        "type": "t_mapping(t_uint16,t_mapping(t_address,t_struct(InsuranceRequest)802_storage))"
      }
    ],
    "types": {
      "t_address": {
        "encoding": "inplace",
        "label": "address",
        "numberOfBytes": "20"
      },
      "t_contract(AggregatorV3Interface)45": {
        "encoding": "inplace",
        "label": "contract AggregatorV3Interface",
        "numberOfBytes": "20"
      },
      "t_contract(IERC20)123": {
        "encoding": "inplace",
        "label": "contract IERC20",
        "numberOfBytes": "20"
      },
      "t_int256": {
        "encoding": "inplace",
        "label": "int256",
        "numberOfBytes": "32"
      },
      "t_mapping(t_address,t_struct(InsuranceRequest)802_storage)": {
        "encoding": "mapping",
        "key": "t_address",
        "label": "mapping(address => struct DataTypes.InsuranceRequest)",
        "numberOfBytes": "32",
        "value": "t_struct(InsuranceRequest)802_storage"
      },
      "t_mapping(t_uint16,t_mapping(t_address,t_struct(InsuranceRequest)802_storage))": {
        "encoding": "mapping",
        "key": "t_uint16",
        "label": "mapping(uint16 => mapping(address => struct DataTypes.InsuranceRequest))",
        "numberOfBytes": "32",
        "value": "t_mapping(t_address,t_struct(InsuranceRequest)802_storage)"
      },
      "t_mapping(t_uint16,t_struct(PoolData)784_storage)": {
        "encoding": "mapping",
        "key": "t_uint16",
        "label": "mapping(uint16 => struct DataTypes.PoolData)",
        "numberOfBytes": "32",
        "value": "t_struct(PoolData)784_storage"
      },
      "t_mapping(t_uint16,t_struct(PoolLiquiditySupply)791_storage)": {
        "encoding": "mapping",
        "key": "t_uint16",
        "label": "mapping(uint16 => struct DataTypes.PoolLiquiditySupply)",
        "numberOfBytes": "32",
        "value": "t_struct(PoolLiquiditySupply)791_storage"
      },
      "t_struct(InsuranceRequest)802_storage": {
        "encoding": "inplace",
        "label": "struct DataTypes.InsuranceRequest",
        "members": [
          {
            "astId": 793,
            "contract": "contracts/MacInsuranceMain.sol:MacInsuranceMain",
            "label": "id",
            "offset": 0,
            "slot": "0",
            "type": "t_uint16"
          },
          {
            "astId": 795,
            "contract": "contracts/MacInsuranceMain.sol:MacInsuranceMain",
            "label": "insuranceRequester",
            "offset": 2,
            "slot": "0",
            "type": "t_address"
          },
          {
            "astId": 797,
            "contract": "contracts/MacInsuranceMain.sol:MacInsuranceMain",
            "label": "liquidtyToInsure",
            "offset": 0,
            "slot": "1",
            "type": "t_uint256"
          },
          {
            "astId": 799,
            "contract": "contracts/MacInsuranceMain.sol:MacInsuranceMain",
            "label": "reimbursementAmount",
            "offset": 0,
            "slot": "2",
            "type": "t_uint256"
          },
          {
            "astId": 801,
            "contract": "contracts/MacInsuranceMain.sol:MacInsuranceMain",
            "label": "fee",
            "offset": 0,
            "slot": "3",
            "type": "t_uint256"
          }
        ],
        "numberOfBytes": "128"
      },
      "t_struct(PoolData)784_storage": {
        "encoding": "inplace",
        "label": "struct DataTypes.PoolData",
        "members": [
          {
            "astId": 767,
            "contract": "contracts/MacInsuranceMain.sol:MacInsuranceMain",
            "label": "id",
            "offset": 0,
            "slot": "0",
            "type": "t_uint16"
          },
          {
            "astId": 769,
            "contract": "contracts/MacInsuranceMain.sol:MacInsuranceMain",
            "label": "tokenAddress",
            "offset": 2,
            "slot": "0",
            "type": "t_address"
          },
          {
            "astId": 771,
            "contract": "contracts/MacInsuranceMain.sol:MacInsuranceMain",
            "label": "totalLiquidity",
            "offset": 0,
            "slot": "1",
            "type": "t_uint256"
          },
          {
            "astId": 773,
            "contract": "contracts/MacInsuranceMain.sol:MacInsuranceMain",
            "label": "priceLossCover",
            "offset": 0,
            "slot": "2",
            "type": "t_uint256"
          },
          {
            "astId": 775,
            "contract": "contracts/MacInsuranceMain.sol:MacInsuranceMain",
            "label": "basePrice",
            "offset": 0,
            "slot": "3",
            "type": "t_int256"
          },
          {
            "astId": 777,
            "contract": "contracts/MacInsuranceMain.sol:MacInsuranceMain",
            "label": "insuranceTreshold",
            "offset": 0,
            "slot": "4",
            "type": "t_int256"
          },
          {
            "astId": 779,
            "contract": "contracts/MacInsuranceMain.sol:MacInsuranceMain",
            "label": "fee",
            "offset": 0,
            "slot": "5",
            "type": "t_uint8"
          },
          {
            "astId": 781,
            "contract": "contracts/MacInsuranceMain.sol:MacInsuranceMain",
            "label": "startDate",
            "offset": 0,
            "slot": "6",
            "type": "t_uint256"
          },
          {
            "astId": 783,
            "contract": "contracts/MacInsuranceMain.sol:MacInsuranceMain",
            "label": "endDate",
            "offset": 0,
            "slot": "7",
            "type": "t_uint256"
          }
        ],
        "numberOfBytes": "256"
      },
      "t_struct(PoolLiquiditySupply)791_storage": {
        "encoding": "inplace",
        "label": "struct DataTypes.PoolLiquiditySupply",
        "members": [
          {
            "astId": 786,
            "contract": "contracts/MacInsuranceMain.sol:MacInsuranceMain",
            "label": "id",
            "offset": 0,
            "slot": "0",
            "type": "t_uint16"
          },
          {
            "astId": 788,
            "contract": "contracts/MacInsuranceMain.sol:MacInsuranceMain",
            "label": "liquidityProvider",
            "offset": 2,
            "slot": "0",
            "type": "t_address"
          },
          {
            "astId": 790,
            "contract": "contracts/MacInsuranceMain.sol:MacInsuranceMain",
            "label": "liquidityAdded",
            "offset": 0,
            "slot": "1",
            "type": "t_uint256"
          }
        ],
        "numberOfBytes": "64"
      },
      "t_uint16": {
        "encoding": "inplace",
        "label": "uint16",
        "numberOfBytes": "2"
      },
      "t_uint256": {
        "encoding": "inplace",
        "label": "uint256",
        "numberOfBytes": "32"
      },
      "t_uint8": {
        "encoding": "inplace",
        "label": "uint8",
        "numberOfBytes": "1"
      }
    }
  }
}