{
  "address": "0xF082bb00Ed368fCA5ec554395A2c2a16b5815De5",
  "abi": [
    {
      "inputs": [],
      "stateMutability": "nonpayable",
      "type": "constructor"
    },
    {
      "inputs": [],
      "name": "EndDateEarlierThanStartDate",
      "type": "error"
    },
    {
      "inputs": [],
      "name": "InsuranceAlreadyRequested",
      "type": "error"
    },
    {
      "inputs": [],
      "name": "InsuranceInActivePeriod",
      "type": "error"
    },
    {
      "inputs": [],
      "name": "LiquidtyAlreadyWithdrawn",
      "type": "error"
    },
    {
      "inputs": [],
      "name": "NotEnoughInsuranceLiquidity",
      "type": "error"
    },
    {
      "inputs": [],
      "name": "NotEnoughTokenBalance",
      "type": "error"
    },
    {
      "inputs": [],
      "name": "PoolIdNotExist",
      "type": "error"
    },
    {
      "inputs": [],
      "name": "ReimburesementAlreadyReceived",
      "type": "error"
    },
    {
      "inputs": [],
      "name": "ReimburesementRequirementNotMet",
      "type": "error"
    },
    {
      "inputs": [],
      "name": "RequesterUnauthorized",
      "type": "error"
    },
    {
      "inputs": [],
      "name": "TransferFailed",
      "type": "error"
    },
    {
      "anonymous": false,
      "inputs": [
        {
          "indexed": false,
          "internalType": "uint16",
          "name": "poolId",
          "type": "uint16"
        },
        {
          "indexed": false,
          "internalType": "address",
          "name": "tokenAddress",
          "type": "address"
        },
        {
          "indexed": false,
          "internalType": "address",
          "name": "insuranceRequester",
          "type": "address"
        },
        {
          "indexed": false,
          "internalType": "uint256",
          "name": "liquidtyToInsure",
          "type": "uint256"
        },
        {
          "indexed": false,
          "internalType": "uint256",
          "name": "fee",
          "type": "uint256"
        }
      ],
      "name": "InsuranceRequestCreated",
      "type": "event"
    },
    {
      "anonymous": false,
      "inputs": [
        {
          "indexed": false,
          "internalType": "uint16",
          "name": "poolId",
          "type": "uint16"
        },
        {
          "indexed": false,
          "internalType": "address",
          "name": "tokenAddress",
          "type": "address"
        },
        {
          "indexed": false,
          "internalType": "int256",
          "name": "basePrice",
          "type": "int256"
        },
        {
          "indexed": false,
          "internalType": "int256",
          "name": "tresholdPrice",
          "type": "int256"
        },
        {
          "indexed": false,
          "internalType": "uint8",
          "name": "fee",
          "type": "uint8"
        },
        {
          "indexed": false,
          "internalType": "uint256",
          "name": "liquidityAdded",
          "type": "uint256"
        },
        {
          "indexed": false,
          "internalType": "uint256",
          "name": "startDate",
          "type": "uint256"
        },
        {
          "indexed": false,
          "internalType": "uint256",
          "name": "endDate",
          "type": "uint256"
        }
      ],
      "name": "PoolUpdated",
      "type": "event"
    },
    {
      "inputs": [
        {
          "internalType": "uint16",
          "name": "_id",
          "type": "uint16"
        },
        {
          "internalType": "uint256",
          "name": "_amount",
          "type": "uint256"
        }
      ],
      "name": "getReimbursement",
      "outputs": [
        {
          "internalType": "uint256",
          "name": "",
          "type": "uint256"
        }
      ],
      "stateMutability": "view",
      "type": "function"
    },
    {
      "inputs": [
        {
          "internalType": "uint16",
          "name": "_id",
          "type": "uint16"
        },
        {
          "internalType": "uint256",
          "name": "_amount",
          "type": "uint256"
        }
      ],
      "name": "getUserFee",
      "outputs": [
        {
          "internalType": "uint256",
          "name": "",
          "type": "uint256"
        }
      ],
      "stateMutability": "view",
      "type": "function"
    },
    {
      "inputs": [],
      "name": "id",
      "outputs": [
        {
          "internalType": "uint16",
          "name": "",
          "type": "uint16"
        }
      ],
      "stateMutability": "view",
      "type": "function"
    },
    {
      "inputs": [
        {
          "internalType": "address",
          "name": "_tokenAddress",
          "type": "address"
        },
        {
          "internalType": "address",
          "name": "_priceFeed",
          "type": "address"
        },
        {
          "internalType": "int256",
          "name": "_insuranceLossCoverage",
          "type": "int256"
        },
        {
          "internalType": "uint8",
          "name": "_fee",
          "type": "uint8"
        },
        {
          "internalType": "uint256",
          "name": "_startDateFromDeployInSeconds",
          "type": "uint256"
        },
        {
          "internalType": "uint256",
          "name": "_endDateFromDeployInSeconds",
          "type": "uint256"
        }
      ],
      "name": "initPool",
      "outputs": [
        {
          "components": [
            {
              "internalType": "uint16",
              "name": "id",
              "type": "uint16"
            },
            {
              "internalType": "address",
              "name": "tokenAddress",
              "type": "address"
            },
            {
              "internalType": "uint256",
              "name": "totalLiquidity",
              "type": "uint256"
            },
            {
              "internalType": "uint256",
              "name": "priceLossCover",
              "type": "uint256"
            },
            {
              "internalType": "int256",
              "name": "basePrice",
              "type": "int256"
            },
            {
              "internalType": "int256",
              "name": "insuranceTreshold",
              "type": "int256"
            },
            {
              "internalType": "uint8",
              "name": "fee",
              "type": "uint8"
            },
            {
              "internalType": "uint256",
              "name": "startDate",
              "type": "uint256"
            },
            {
              "internalType": "uint256",
              "name": "endDate",
              "type": "uint256"
            }
          ],
          "internalType": "struct DataTypes.PoolData",
          "name": "",
          "type": "tuple"
        }
      ],
      "stateMutability": "nonpayable",
      "type": "function"
    },
    {
      "inputs": [
        {
          "internalType": "uint16",
          "name": "",
          "type": "uint16"
        },
        {
          "internalType": "address",
          "name": "",
          "type": "address"
        }
      ],
      "name": "insuranceRequests",
      "outputs": [
        {
          "internalType": "uint16",
          "name": "id",
          "type": "uint16"
        },
        {
          "internalType": "address",
          "name": "insuranceRequester",
          "type": "address"
        },
        {
          "internalType": "uint256",
          "name": "liquidtyToInsure",
          "type": "uint256"
        },
        {
          "internalType": "uint256",
          "name": "reimbursementAmount",
          "type": "uint256"
        },
        {
          "internalType": "uint256",
          "name": "fee",
          "type": "uint256"
        },
        {
          "internalType": "bool",
          "name": "reimbursementReceived",
          "type": "bool"
        }
      ],
      "stateMutability": "view",
      "type": "function"
    },
    {
      "inputs": [
        {
          "internalType": "uint16",
          "name": "",
          "type": "uint16"
        },
        {
          "internalType": "address",
          "name": "",
          "type": "address"
        }
      ],
      "name": "liquiditySupplyList",
      "outputs": [
        {
          "internalType": "uint16",
          "name": "id",
          "type": "uint16"
        },
        {
          "internalType": "address",
          "name": "liquidityProvider",
          "type": "address"
        },
        {
          "internalType": "uint256",
          "name": "liquidityAdded",
          "type": "uint256"
        },
        {
          "internalType": "bool",
          "name": "liquidityWithdrawn",
          "type": "bool"
        }
      ],
      "stateMutability": "view",
      "type": "function"
    },
    {
      "inputs": [
        {
          "internalType": "uint16",
          "name": "",
          "type": "uint16"
        }
      ],
      "name": "poolDataList",
      "outputs": [
        {
          "internalType": "uint16",
          "name": "id",
          "type": "uint16"
        },
        {
          "internalType": "address",
          "name": "tokenAddress",
          "type": "address"
        },
        {
          "internalType": "uint256",
          "name": "totalLiquidity",
          "type": "uint256"
        },
        {
          "internalType": "uint256",
          "name": "priceLossCover",
          "type": "uint256"
        },
        {
          "internalType": "int256",
          "name": "basePrice",
          "type": "int256"
        },
        {
          "internalType": "int256",
          "name": "insuranceTreshold",
          "type": "int256"
        },
        {
          "internalType": "uint8",
          "name": "fee",
          "type": "uint8"
        },
        {
          "internalType": "uint256",
          "name": "startDate",
          "type": "uint256"
        },
        {
          "internalType": "uint256",
          "name": "endDate",
          "type": "uint256"
        }
      ],
      "stateMutability": "view",
      "type": "function"
    },
    {
      "inputs": [
        {
          "internalType": "uint16",
          "name": "_id",
          "type": "uint16"
        },
        {
          "internalType": "uint256",
          "name": "_amount",
          "type": "uint256"
        }
      ],
      "name": "requestInsurance",
      "outputs": [],
      "stateMutability": "nonpayable",
      "type": "function"
    },
    {
      "inputs": [
        {
          "internalType": "uint16",
          "name": "_id",
          "type": "uint16"
        }
      ],
      "name": "requestReimbursement",
      "outputs": [],
      "stateMutability": "nonpayable",
      "type": "function"
    },
    {
      "inputs": [
        {
          "internalType": "uint16",
          "name": "_id",
          "type": "uint16"
        },
        {
          "internalType": "uint256",
          "name": "_amount",
          "type": "uint256"
        }
      ],
      "name": "supplyPool",
      "outputs": [
        {
          "internalType": "uint256",
          "name": "",
          "type": "uint256"
        }
      ],
      "stateMutability": "nonpayable",
      "type": "function"
    },
    {
      "inputs": [
        {
          "internalType": "uint16",
          "name": "_id",
          "type": "uint16"
        }
      ],
      "name": "withdrawPool",
      "outputs": [],
      "stateMutability": "nonpayable",
      "type": "function"
    }
  ],
  "transactionHash": "0xb4d09fc16dce4829a96b956db08646e264d0eb345e8a13ccbfbd6b7b14edb97e",
  "args": [],
  "numDeployments": 4,
  "solcInputHash": "72bf77881fb111e8e2c71df80548f10f",
  "bytecode": "0x608060405234801561001057600080fd5b5060008060006101000a81548161ffff021916908361ffff160217905550612b9e8061003d6000396000f3fe608060405234801561001057600080fd5b50600436106100a95760003560e01c806382c804dd1161007157806382c804dd146101a6578063a5ff706b146101c2578063ae3059ac146101f2578063af640d0f1461020e578063b307fc751461022c578063dca5ed4814610264576100a9565b80630ae2e871146100ae5780631f563bfd146100e15780635fae9b921461011157806368c704a2146101465780637bbece7514610176575b600080fd5b6100c860048036038101906100c39190611f89565b610280565b6040516100d8949392919061201b565b60405180910390f35b6100fb60048036038101906100f691906120fb565b6102f8565b604051610108919061228a565b60405180910390f35b61012b60048036038101906101269190611f89565b6106e7565b60405161013d969594939291906122a6565b60405180910390f35b610160600480360381019061015b9190612307565b61076b565b60405161016d9190612347565b60405180910390f35b610190600480360381019061018b9190612307565b6107e8565b60405161019d9190612347565b60405180910390f35b6101c060048036038101906101bb9190612307565b610c66565b005b6101dc60048036038101906101d79190612307565b6111d1565b6040516101e99190612347565b60405180910390f35b61020c60048036038101906102079190612362565b611270565b005b6102166117d5565b604051610223919061238f565b60405180910390f35b61024660048036038101906102419190612362565b6117e7565b60405161025b999897969594939291906123c8565b60405180910390f35b61027e60048036038101906102799190612362565b611870565b005b6004602052816000526040600020602052806000526040600020600091509150508060000160009054906101000a900461ffff16908060000160029054906101000a900473ffffffffffffffffffffffffffffffffffffffff16908060010154908060020160009054906101000a900460ff16905084565b610300611ded565b85600160006101000a81548173ffffffffffffffffffffffffffffffffffffffff021916908373ffffffffffffffffffffffffffffffffffffffff16021790555086600260006101000a81548173ffffffffffffffffffffffffffffffffffffffff021916908373ffffffffffffffffffffffffffffffffffffffff16021790555086600060026101000a81548173ffffffffffffffffffffffffffffffffffffffff021916908373ffffffffffffffffffffffffffffffffffffffff16021790555060006001846103d29190612484565b426103dd91906124de565b905060006001846103ee9190612484565b426103f991906124de565b9050818111610434576040517f14cc095100000000000000000000000000000000000000000000000000000000815260040160405180910390fd5b61043c611ded565b6000610446611d4c565b90506000896064836104589190612563565b61046291906125cd565b8261046d91906126e4565b905060008054906101000a900461ffff16836000019061ffff16908161ffff1681525050600060029054906101000a900473ffffffffffffffffffffffffffffffffffffffff16836020019073ffffffffffffffffffffffffffffffffffffffff16908173ffffffffffffffffffffffffffffffffffffffff16815250508983606001818152505081836080018181525050808360a0018181525050888360c0019060ff16908160ff1681525050848360e0018181525050838361010001818152505082600360008060009054906101000a900461ffff1661ffff1661ffff16815260200190815260200160002060008201518160000160006101000a81548161ffff021916908361ffff16021790555060208201518160000160026101000a81548173ffffffffffffffffffffffffffffffffffffffff021916908373ffffffffffffffffffffffffffffffffffffffff16021790555060408201518160010155606082015181600201556080820151816003015560a0820151816004015560c08201518160050160006101000a81548160ff021916908360ff16021790555060e0820151816006015561010082015181600701559050507f60208157873c458e968e0270eaeab9e1f660d5a1ce88ca3efe8ed007b366f7ec60008054906101000a900461ffff16600060029054906101000a900473ffffffffffffffffffffffffffffffffffffffff1684848d60008b8b6040516106949897969594939291906127bd565b60405180910390a160016000808282829054906101000a900461ffff166106bb919061283b565b92506101000a81548161ffff021916908361ffff16021790555082955050505050509695505050505050565b6005602052816000526040600020602052806000526040600020600091509150508060000160009054906101000a900461ffff16908060000160029054906101000a900473ffffffffffffffffffffffffffffffffffffffff16908060010154908060020154908060030154908060040160009054906101000a900460ff16905086565b600080600360008561ffff1661ffff16815260200190815260200160002060020154905060008160648561079f9190612873565b6107a99190612484565b846107b491906128a4565b90506000818583876107c691906128a4565b6107d09190612484565b6107da9190612873565b905080935050505092915050565b60008260008054906101000a900461ffff1661ffff168161ffff16111561083b576040517f38e7d4f200000000000000000000000000000000000000000000000000000000815260040160405180910390fd5b600360008561ffff1661ffff168152602001908152602001600020600601544210610892576040517fdb589d0800000000000000000000000000000000000000000000000000000000815260040160405180910390fd5b61089a611e56565b6000600260009054906101000a900473ffffffffffffffffffffffffffffffffffffffff1673ffffffffffffffffffffffffffffffffffffffff166323b872dd3330886040518463ffffffff1660e01b81526004016108fb939291906128d8565b6020604051808303816000875af115801561091a573d6000803e3d6000fd5b505050506040513d601f19601f8201168201806040525081019061093e919061293b565b905080156109805784600360008861ffff1661ffff168152602001908152602001600020600101600082825461097491906124de565b925050819055506109b2565b6040517f90b8ec1800000000000000000000000000000000000000000000000000000000815260040160405180910390fd5b85826000019061ffff16908161ffff168152505033826020019073ffffffffffffffffffffffffffffffffffffffff16908173ffffffffffffffffffffffffffffffffffffffff16815250508482604001818152505081600460008861ffff1661ffff16815260200190815260200160002060003373ffffffffffffffffffffffffffffffffffffffff1673ffffffffffffffffffffffffffffffffffffffff16815260200190815260200160002060008201518160000160006101000a81548161ffff021916908361ffff16021790555060208201518160000160026101000a81548173ffffffffffffffffffffffffffffffffffffffff021916908373ffffffffffffffffffffffffffffffffffffffff1602179055506040820151816001015560608201518160020160006101000a81548160ff0219169083151502179055509050507f60208157873c458e968e0270eaeab9e1f660d5a1ce88ca3efe8ed007b366f7ec86600360008961ffff1661ffff16815260200190815260200160002060000160029054906101000a900473ffffffffffffffffffffffffffffffffffffffff16600360008a61ffff1661ffff16815260200190815260200160002060030154600360008b61ffff1661ffff16815260200190815260200160002060040154600360008c61ffff1661ffff16815260200190815260200160002060050160009054906101000a900460ff16600360008d61ffff1661ffff16815260200190815260200160002060010154600360008e61ffff1661ffff16815260200190815260200160002060060154600360008f61ffff1661ffff16815260200190815260200160002060070154604051610c34989796959493929190612968565b60405180910390a1600360008761ffff1661ffff16815260200190815260200160002060010154935050505092915050565b8160008054906101000a900461ffff1661ffff168161ffff161115610cb7576040517f38e7d4f200000000000000000000000000000000000000000000000000000000815260040160405180910390fd5b6000600360008561ffff1661ffff168152602001908152602001600020600101549050600360008561ffff1661ffff168152602001908152602001600020600601544210610d31576040517fdb589d0800000000000000000000000000000000000000000000000000000000815260040160405180910390fd5b6000600260009054906101000a900473ffffffffffffffffffffffffffffffffffffffff1673ffffffffffffffffffffffffffffffffffffffff166370a08231336040518263ffffffff1660e01b8152600401610d8e91906129e6565b602060405180830381865afa158015610dab573d6000803e3d6000fd5b505050506040513d601f19601f82011682018060405250810190610dcf9190612a16565b905083811015610e0b576040517f5dd3b4d100000000000000000000000000000000000000000000000000000000815260040160405180910390fd5b6000600560008761ffff1661ffff16815260200190815260200160002060003373ffffffffffffffffffffffffffffffffffffffff1673ffffffffffffffffffffffffffffffffffffffff1681526020019081526020016000206001015414610ea0576040517fc5ea839600000000000000000000000000000000000000000000000000000000815260040160405180910390fd5b610ea8611e9a565b6000610eb487876111d1565b90506000610ec2888861076b565b905084811115610efe576040517f3f735c4f00000000000000000000000000000000000000000000000000000000815260040160405180910390fd5b6000600260009054906101000a900473ffffffffffffffffffffffffffffffffffffffff1673ffffffffffffffffffffffffffffffffffffffff166323b872dd3330866040518463ffffffff1660e01b8152600401610f5f939291906128d8565b6020604051808303816000875af1158015610f7e573d6000803e3d6000fd5b505050506040513d601f19601f82011682018060405250810190610fa2919061293b565b905080610fdb576040517f90b8ec1800000000000000000000000000000000000000000000000000000000815260040160405180910390fd5b88846000019061ffff16908161ffff168152505033846020019073ffffffffffffffffffffffffffffffffffffffff16908173ffffffffffffffffffffffffffffffffffffffff168152505087846040018181525050818460600181815250508284608001818152505083600560008b61ffff1661ffff16815260200190815260200160002060003373ffffffffffffffffffffffffffffffffffffffff1673ffffffffffffffffffffffffffffffffffffffff16815260200190815260200160002060008201518160000160006101000a81548161ffff021916908361ffff16021790555060208201518160000160026101000a81548173ffffffffffffffffffffffffffffffffffffffff021916908373ffffffffffffffffffffffffffffffffffffffff16021790555060408201518160010155606082015181600201556080820151816003015560a08201518160040160006101000a81548160ff0219169083151502179055509050507f6f7b24a89bff54221f25713c015469512753a3c6491219a91c0ff35e7812190f89600360008c61ffff1661ffff16815260200190815260200160002060000160029054906101000a900473ffffffffffffffffffffffffffffffffffffffff16338b876040516111be959493929190612a43565b60405180910390a1505050505050505050565b600080600360008561ffff1661ffff1681526020019081526020016000206001015490506000600360008661ffff1661ffff16815260200190815260200160002060050160009054906101000a900460ff1660ff169050600060648261ffff168461123c9190612484565b6112469190612873565b905060008382876112579190612484565b6112619190612873565b90508094505050505092915050565b8060008054906101000a900461ffff1661ffff168161ffff1611156112c1576040517f38e7d4f200000000000000000000000000000000000000000000000000000000815260040160405180910390fd5b3373ffffffffffffffffffffffffffffffffffffffff16600460008461ffff1661ffff16815260200190815260200160002060003373ffffffffffffffffffffffffffffffffffffffff1673ffffffffffffffffffffffffffffffffffffffff16815260200190815260200160002060000160029054906101000a900473ffffffffffffffffffffffffffffffffffffffff1673ffffffffffffffffffffffffffffffffffffffff16146113a1576040517fbbc5cb1100000000000000000000000000000000000000000000000000000000815260040160405180910390fd5b600360008361ffff1661ffff1681526020019081526020016000206007015442116113f8576040517fdb589d0800000000000000000000000000000000000000000000000000000000815260040160405180910390fd5b60011515600460008461ffff1661ffff16815260200190815260200160002060003373ffffffffffffffffffffffffffffffffffffffff1673ffffffffffffffffffffffffffffffffffffffff16815260200190815260200160002060020160009054906101000a900460ff161515141561149f576040517f2aa0f38c00000000000000000000000000000000000000000000000000000000815260040160405180910390fd5b6000600460008461ffff1661ffff16815260200190815260200160002060003373ffffffffffffffffffffffffffffffffffffffff1673ffffffffffffffffffffffffffffffffffffffff1681526020019081526020016000206001015490506000600260009054906101000a900473ffffffffffffffffffffffffffffffffffffffff1673ffffffffffffffffffffffffffffffffffffffff166323b872dd3033856040518463ffffffff1660e01b8152600401611560939291906128d8565b6020604051808303816000875af115801561157f573d6000803e3d6000fd5b505050506040513d601f19601f820116820180604052508101906115a3919061293b565b905080156115e55781600360008661ffff1661ffff16815260200190815260200160002060010160008282546115d991906128a4565b92505081905550611617565b6040517f90b8ec1800000000000000000000000000000000000000000000000000000000815260040160405180910390fd5b6001600460008661ffff1661ffff16815260200190815260200160002060003373ffffffffffffffffffffffffffffffffffffffff1673ffffffffffffffffffffffffffffffffffffffff16815260200190815260200160002060020160006101000a81548160ff0219169083151502179055507f60208157873c458e968e0270eaeab9e1f660d5a1ce88ca3efe8ed007b366f7ec84600360008761ffff1661ffff16815260200190815260200160002060000160029054906101000a900473ffffffffffffffffffffffffffffffffffffffff16600360008861ffff1661ffff16815260200190815260200160002060030154600360008961ffff1661ffff16815260200190815260200160002060040154600360008a61ffff1661ffff16815260200190815260200160002060050160009054906101000a900460ff16600360008b61ffff1661ffff16815260200190815260200160002060010154600360008c61ffff1661ffff16815260200190815260200160002060060154600360008d61ffff1661ffff168152602001908152602001600020600701546040516117c7989796959493929190612968565b60405180910390a150505050565b60008054906101000a900461ffff1681565b60036020528060005260406000206000915090508060000160009054906101000a900461ffff16908060000160029054906101000a900473ffffffffffffffffffffffffffffffffffffffff16908060010154908060020154908060030154908060040154908060050160009054906101000a900460ff16908060060154908060070154905089565b8060008054906101000a900461ffff1661ffff168161ffff1611156118c1576040517f38e7d4f200000000000000000000000000000000000000000000000000000000815260040160405180910390fd5b600360008361ffff1661ffff168152602001908152602001600020600601544211158061190b5750600360008361ffff1661ffff1681526020019081526020016000206007015442115b15611942576040517fdb589d0800000000000000000000000000000000000000000000000000000000815260040160405180910390fd5b3373ffffffffffffffffffffffffffffffffffffffff16600560008461ffff1661ffff16815260200190815260200160002060003373ffffffffffffffffffffffffffffffffffffffff1673ffffffffffffffffffffffffffffffffffffffff16815260200190815260200160002060000160029054906101000a900473ffffffffffffffffffffffffffffffffffffffff1673ffffffffffffffffffffffffffffffffffffffff1614611a22576040517fbbc5cb1100000000000000000000000000000000000000000000000000000000815260040160405180910390fd5b60011515600560008461ffff1661ffff16815260200190815260200160002060003373ffffffffffffffffffffffffffffffffffffffff1673ffffffffffffffffffffffffffffffffffffffff16815260200190815260200160002060040160009054906101000a900460ff1615151415611ac9576040517ffa43322000000000000000000000000000000000000000000000000000000000815260040160405180910390fd5b6000611ad3611d4c565b9050600360008461ffff1661ffff16815260200190815260200160002060040154811315611b2d576040517ff65ecfbb00000000000000000000000000000000000000000000000000000000815260040160405180910390fd5b6000600560008561ffff1661ffff16815260200190815260200160002060003373ffffffffffffffffffffffffffffffffffffffff1673ffffffffffffffffffffffffffffffffffffffff1681526020019081526020016000206002015490506000600260009054906101000a900473ffffffffffffffffffffffffffffffffffffffff1673ffffffffffffffffffffffffffffffffffffffff166323b872dd3033856040518463ffffffff1660e01b8152600401611bee939291906128d8565b6020604051808303816000875af1158015611c0d573d6000803e3d6000fd5b505050506040513d601f19601f82011682018060405250810190611c31919061293b565b90508015611d13576000600560008761ffff1661ffff16815260200190815260200160002060003373ffffffffffffffffffffffffffffffffffffffff1673ffffffffffffffffffffffffffffffffffffffff168152602001908152602001600020600101819055506001600560008761ffff1661ffff16815260200190815260200160002060003373ffffffffffffffffffffffffffffffffffffffff1673ffffffffffffffffffffffffffffffffffffffff16815260200190815260200160002060040160006101000a81548160ff021916908315150217905550611d45565b6040517f90b8ec1800000000000000000000000000000000000000000000000000000000815260040160405180910390fd5b5050505050565b600080600160009054906101000a900473ffffffffffffffffffffffffffffffffffffffff1673ffffffffffffffffffffffffffffffffffffffff1663feaf968c6040518163ffffffff1660e01b815260040160a060405180830381865afa158015611dbc573d6000803e3d6000fd5b505050506040513d601f19601f82011682018060405250810190611de09190612aed565b5050509150508091505090565b604051806101200160405280600061ffff168152602001600073ffffffffffffffffffffffffffffffffffffffff16815260200160008152602001600081526020016000815260200160008152602001600060ff16815260200160008152602001600081525090565b6040518060800160405280600061ffff168152602001600073ffffffffffffffffffffffffffffffffffffffff168152602001600081526020016000151581525090565b6040518060c00160405280600061ffff168152602001600073ffffffffffffffffffffffffffffffffffffffff1681526020016000815260200160008152602001600081526020016000151581525090565b600080fd5b600061ffff82169050919050565b611f0881611ef1565b8114611f1357600080fd5b50565b600081359050611f2581611eff565b92915050565b600073ffffffffffffffffffffffffffffffffffffffff82169050919050565b6000611f5682611f2b565b9050919050565b611f6681611f4b565b8114611f7157600080fd5b50565b600081359050611f8381611f5d565b92915050565b60008060408385031215611fa057611f9f611eec565b5b6000611fae85828601611f16565b9250506020611fbf85828601611f74565b9150509250929050565b611fd281611ef1565b82525050565b611fe181611f4b565b82525050565b6000819050919050565b611ffa81611fe7565b82525050565b60008115159050919050565b61201581612000565b82525050565b60006080820190506120306000830187611fc9565b61203d6020830186611fd8565b61204a6040830185611ff1565b612057606083018461200c565b95945050505050565b6000819050919050565b61207381612060565b811461207e57600080fd5b50565b6000813590506120908161206a565b92915050565b600060ff82169050919050565b6120ac81612096565b81146120b757600080fd5b50565b6000813590506120c9816120a3565b92915050565b6120d881611fe7565b81146120e357600080fd5b50565b6000813590506120f5816120cf565b92915050565b60008060008060008060c0878903121561211857612117611eec565b5b600061212689828a01611f74565b965050602061213789828a01611f74565b955050604061214889828a01612081565b945050606061215989828a016120ba565b935050608061216a89828a016120e6565b92505060a061217b89828a016120e6565b9150509295509295509295565b61219181611ef1565b82525050565b6121a081611f4b565b82525050565b6121af81611fe7565b82525050565b6121be81612060565b82525050565b6121cd81612096565b82525050565b610120820160008201516121ea6000850182612188565b5060208201516121fd6020850182612197565b50604082015161221060408501826121a6565b50606082015161222360608501826121a6565b50608082015161223660808501826121b5565b5060a082015161224960a08501826121b5565b5060c082015161225c60c08501826121c4565b5060e082015161226f60e08501826121a6565b506101008201516122846101008501826121a6565b50505050565b6000610120820190506122a060008301846121d3565b92915050565b600060c0820190506122bb6000830189611fc9565b6122c86020830188611fd8565b6122d56040830187611ff1565b6122e26060830186611ff1565b6122ef6080830185611ff1565b6122fc60a083018461200c565b979650505050505050565b6000806040838503121561231e5761231d611eec565b5b600061232c85828601611f16565b925050602061233d858286016120e6565b9150509250929050565b600060208201905061235c6000830184611ff1565b92915050565b60006020828403121561237857612377611eec565b5b600061238684828501611f16565b91505092915050565b60006020820190506123a46000830184611fc9565b92915050565b6123b381612060565b82525050565b6123c281612096565b82525050565b6000610120820190506123de600083018c611fc9565b6123eb602083018b611fd8565b6123f8604083018a611ff1565b6124056060830189611ff1565b61241260808301886123aa565b61241f60a08301876123aa565b61242c60c08301866123b9565b61243960e0830185611ff1565b612447610100830184611ff1565b9a9950505050505050505050565b7f4e487b7100000000000000000000000000000000000000000000000000000000600052601160045260246000fd5b600061248f82611fe7565b915061249a83611fe7565b9250817fffffffffffffffffffffffffffffffffffffffffffffffffffffffffffffffff04831182151516156124d3576124d2612455565b5b828202905092915050565b60006124e982611fe7565b91506124f483611fe7565b9250827fffffffffffffffffffffffffffffffffffffffffffffffffffffffffffffffff0382111561252957612528612455565b5b828201905092915050565b7f4e487b7100000000000000000000000000000000000000000000000000000000600052601260045260246000fd5b600061256e82612060565b915061257983612060565b92508261258957612588612534565b5b600160000383147f8000000000000000000000000000000000000000000000000000000000000000831416156125c2576125c1612455565b5b828205905092915050565b60006125d882612060565b91506125e383612060565b9250827f7fffffffffffffffffffffffffffffffffffffffffffffffffffffffffffffff048211600084136000841316161561262257612621612455565b5b817f8000000000000000000000000000000000000000000000000000000000000000058312600084126000841316161561265f5761265e612455565b5b827f8000000000000000000000000000000000000000000000000000000000000000058212600084136000841216161561269c5761269b612455565b5b827f7fffffffffffffffffffffffffffffffffffffffffffffffffffffffffffffff05821260008412600084121616156126d9576126d8612455565b5b828202905092915050565b60006126ef82612060565b91506126fa83612060565b9250827f80000000000000000000000000000000000000000000000000000000000000000182126000841215161561273557612734612455565b5b827f7fffffffffffffffffffffffffffffffffffffffffffffffffffffffffffffff01821360008412161561276d5761276c612455565b5b828203905092915050565b6000819050919050565b6000819050919050565b60006127a76127a261279d84612778565b612782565b611fe7565b9050919050565b6127b78161278c565b82525050565b6000610100820190506127d3600083018b611fc9565b6127e0602083018a611fd8565b6127ed60408301896123aa565b6127fa60608301886123aa565b61280760808301876123b9565b61281460a08301866127ae565b61282160c0830185611ff1565b61282e60e0830184611ff1565b9998505050505050505050565b600061284682611ef1565b915061285183611ef1565b92508261ffff0382111561286857612867612455565b5b828201905092915050565b600061287e82611fe7565b915061288983611fe7565b92508261289957612898612534565b5b828204905092915050565b60006128af82611fe7565b91506128ba83611fe7565b9250828210156128cd576128cc612455565b5b828203905092915050565b60006060820190506128ed6000830186611fd8565b6128fa6020830185611fd8565b6129076040830184611ff1565b949350505050565b61291881612000565b811461292357600080fd5b50565b6000815190506129358161290f565b92915050565b60006020828403121561295157612950611eec565b5b600061295f84828501612926565b91505092915050565b60006101008201905061297e600083018b611fc9565b61298b602083018a611fd8565b61299860408301896123aa565b6129a560608301886123aa565b6129b260808301876123b9565b6129bf60a0830186611ff1565b6129cc60c0830185611ff1565b6129d960e0830184611ff1565b9998505050505050505050565b60006020820190506129fb6000830184611fd8565b92915050565b600081519050612a10816120cf565b92915050565b600060208284031215612a2c57612a2b611eec565b5b6000612a3a84828501612a01565b91505092915050565b600060a082019050612a586000830188611fc9565b612a656020830187611fd8565b612a726040830186611fd8565b612a7f6060830185611ff1565b612a8c6080830184611ff1565b9695505050505050565b600069ffffffffffffffffffff82169050919050565b612ab581612a96565b8114612ac057600080fd5b50565b600081519050612ad281612aac565b92915050565b600081519050612ae78161206a565b92915050565b600080600080600060a08688031215612b0957612b08611eec565b5b6000612b1788828901612ac3565b9550506020612b2888828901612ad8565b9450506040612b3988828901612a01565b9350506060612b4a88828901612a01565b9250506080612b5b88828901612ac3565b915050929550929590935056fea264697066735822122010901fde50d7c7a84af314e7c2d09ac4ce7072f01251bb8feab187eaae3966c864736f6c634300080a0033",
  "devdoc": {
    "author": "Alessandro Maci",
    "kind": "dev",
    "methods": {
      "getReimbursement(uint16,uint256)": {
        "params": {
          "_amount": "the amount of token to calculate reimbursement",
          "_id": "the id of the pool to calculate reimbursement"
        },
        "returns": {
          "_0": "the amount of to be paid to user when insurance criteria are met in 10**18"
        }
      },
      "getUserFee(uint16,uint256)": {
        "params": {
          "_amount": "the amount of token that the user wants to be insured",
          "_id": "the id of the pool that users wants to be insured"
        },
        "returns": {
          "_0": "the amount of fee to be paid by user to request an insurance in 10**18"
        }
      },
      "initPool(address,address,int256,uint8,uint256,uint256)": {
        "details": "each pool has a unique id that it is increased by 1 for each new pool. Also, a struct is created for each pool and asseciated to it throug a mapping called poolDataList",
        "params": {
          "_endDateFromDeployInSeconds": "The end of the insurance validity period in seconds from the deployment of the pool. The validity period is the period of time where the insurance is active and no more users/investors can partecipate to the insurance pool.",
          "_fee": "The percentage of fee that it will be charged to the user to request an insurance",
          "_insuranceLossCoverage": "The percentage of loss cover that the user wants to have for the selected token. The input 10 for example represents that the insurance will cover a price loss of 10%",
          "_priceFeed": "The address of the price feed contract",
          "_startDateFromDeployInSeconds": "The beginning of the insurance validity period in seconds from the deployment of the pool. The validity period is the period of time where the insurance is active and no more users/investors can partecipate to the insurance pool.",
          "_tokenAddress": "The ERC20 token address that the pool will be based on"
        },
        "returns": {
          "_0": "the pool data in a struct format"
        }
      },
      "requestInsurance(uint16,uint256)": {
        "details": "there is one check in the function to validate that the user has the balance of the token to cover the insurance. This is done to avoid users misusing the insurance contract and requesting an insurance for an amount they don't have. However, this check is only at the moment of the request. If the user withdraws the insurance before the end of the validity period, the check is not performed. It is a security gap",
        "params": {
          "_amount": "the amount of token to request an insurance for",
          "_id": "the id of the pool to request an insurance"
        }
      },
      "requestReimbursement(uint16)": {
        "details": "only the insurance requester can ask for its own reimbursement",
        "params": {
          "_id": "the id of the pool to request for reimbursement"
        }
      },
      "supplyPool(uint16,uint256)": {
        "details": "the function transfers the amount of token to the pool and updates the pool data. this requires a separate erc20 approve to allow this contract to spend the token in the name of the user",
        "params": {
          "_amount": "the amount of token to add to the insurance pool",
          "_id": "the id of the pool to add new liquidity"
        },
        "returns": {
          "_0": "the liquidity amount supplied to the insurance pool"
        }
      },
      "withdrawPool(uint16)": {
        "params": {
          "_id": "the id of the pool to withdraw liquidity"
        }
      }
    },
    "title": "A decentralized insurance protocol",
    "version": 1
  },
  "userdoc": {
    "kind": "user",
    "methods": {
      "getReimbursement(uint16,uint256)": {
        "notice": "Calculate the amount of reimbursement to be paid by user to request when the insurance criterias are met"
      },
      "getUserFee(uint16,uint256)": {
        "notice": "Calculate the amount of fee to be paid by user to request an insurance"
      },
      "initPool(address,address,int256,uint8,uint256,uint256)": {
        "notice": "It generates a new insurance pool with the given parameters"
      },
      "requestInsurance(uint16,uint256)": {
        "notice": "It allows the user to request an insurance from one of the existing insurance pools"
      },
      "requestReimbursement(uint16)": {
        "notice": "It allows the insurance requester to ask and then receive the reimbursement of the insurance when the criteria are met"
      },
      "supplyPool(uint16,uint256)": {
        "notice": "It allows the user to add new liquidity to the selected insurance pool"
      },
      "withdrawPool(uint16)": {
        "notice": "It allows the insurance provider to withdraw liquidity at the end of the insurance validity period"
      }
    },
    "notice": "You can use this contract for creating and requesting your own insurance contracts.",
    "version": 1
  },
  "storageLayout": {
    "storage": [
      {
        "astId": 135,
        "contract": "contracts/MacInsuranceMain.sol:MacInsuranceMain",
        "label": "id",
        "offset": 0,
        "slot": "0",
        "type": "t_uint16"
      },
      {
        "astId": 137,
        "contract": "contracts/MacInsuranceMain.sol:MacInsuranceMain",
        "label": "tokenAddress",
        "offset": 2,
        "slot": "0",
        "type": "t_address"
      },
      {
        "astId": 140,
        "contract": "contracts/MacInsuranceMain.sol:MacInsuranceMain",
        "label": "priceFeed",
        "offset": 0,
        "slot": "1",
        "type": "t_contract(AggregatorV3Interface)45"
      },
      {
        "astId": 143,
        "contract": "contracts/MacInsuranceMain.sol:MacInsuranceMain",
        "label": "insuredToken",
        "offset": 0,
        "slot": "2",
        "type": "t_contract(IERC20)123"
      },
      {
        "astId": 148,
        "contract": "contracts/MacInsuranceMain.sol:MacInsuranceMain",
        "label": "poolDataList",
        "offset": 0,
        "slot": "3",
        "type": "t_mapping(t_uint16,t_struct(PoolData)1080_storage)"
      },
      {
        "astId": 155,
        "contract": "contracts/MacInsuranceMain.sol:MacInsuranceMain",
        "label": "liquiditySupplyList",
        "offset": 0,
        "slot": "4",
        "type": "t_mapping(t_uint16,t_mapping(t_address,t_struct(PoolLiquiditySupply)1089_storage))"
      },
      {
        "astId": 162,
        "contract": "contracts/MacInsuranceMain.sol:MacInsuranceMain",
        "label": "insuranceRequests",
        "offset": 0,
        "slot": "5",
        "type": "t_mapping(t_uint16,t_mapping(t_address,t_struct(InsuranceRequest)1102_storage))"
      }
    ],
    "types": {
      "t_address": {
        "encoding": "inplace",
        "label": "address",
        "numberOfBytes": "20"
      },
      "t_bool": {
        "encoding": "inplace",
        "label": "bool",
        "numberOfBytes": "1"
      },
      "t_contract(AggregatorV3Interface)45": {
        "encoding": "inplace",
        "label": "contract AggregatorV3Interface",
        "numberOfBytes": "20"
      },
      "t_contract(IERC20)123": {
        "encoding": "inplace",
        "label": "contract IERC20",
        "numberOfBytes": "20"
      },
      "t_int256": {
        "encoding": "inplace",
        "label": "int256",
        "numberOfBytes": "32"
      },
      "t_mapping(t_address,t_struct(InsuranceRequest)1102_storage)": {
        "encoding": "mapping",
        "key": "t_address",
        "label": "mapping(address => struct DataTypes.InsuranceRequest)",
        "numberOfBytes": "32",
        "value": "t_struct(InsuranceRequest)1102_storage"
      },
      "t_mapping(t_address,t_struct(PoolLiquiditySupply)1089_storage)": {
        "encoding": "mapping",
        "key": "t_address",
        "label": "mapping(address => struct DataTypes.PoolLiquiditySupply)",
        "numberOfBytes": "32",
        "value": "t_struct(PoolLiquiditySupply)1089_storage"
      },
      "t_mapping(t_uint16,t_mapping(t_address,t_struct(InsuranceRequest)1102_storage))": {
        "encoding": "mapping",
        "key": "t_uint16",
        "label": "mapping(uint16 => mapping(address => struct DataTypes.InsuranceRequest))",
        "numberOfBytes": "32",
        "value": "t_mapping(t_address,t_struct(InsuranceRequest)1102_storage)"
      },
      "t_mapping(t_uint16,t_mapping(t_address,t_struct(PoolLiquiditySupply)1089_storage))": {
        "encoding": "mapping",
        "key": "t_uint16",
        "label": "mapping(uint16 => mapping(address => struct DataTypes.PoolLiquiditySupply))",
        "numberOfBytes": "32",
        "value": "t_mapping(t_address,t_struct(PoolLiquiditySupply)1089_storage)"
      },
      "t_mapping(t_uint16,t_struct(PoolData)1080_storage)": {
        "encoding": "mapping",
        "key": "t_uint16",
        "label": "mapping(uint16 => struct DataTypes.PoolData)",
        "numberOfBytes": "32",
        "value": "t_struct(PoolData)1080_storage"
      },
      "t_struct(InsuranceRequest)1102_storage": {
        "encoding": "inplace",
        "label": "struct DataTypes.InsuranceRequest",
        "members": [
          {
            "astId": 1091,
            "contract": "contracts/MacInsuranceMain.sol:MacInsuranceMain",
            "label": "id",
            "offset": 0,
            "slot": "0",
            "type": "t_uint16"
          },
          {
            "astId": 1093,
            "contract": "contracts/MacInsuranceMain.sol:MacInsuranceMain",
            "label": "insuranceRequester",
            "offset": 2,
            "slot": "0",
            "type": "t_address"
          },
          {
            "astId": 1095,
            "contract": "contracts/MacInsuranceMain.sol:MacInsuranceMain",
            "label": "liquidtyToInsure",
            "offset": 0,
            "slot": "1",
            "type": "t_uint256"
          },
          {
            "astId": 1097,
            "contract": "contracts/MacInsuranceMain.sol:MacInsuranceMain",
            "label": "reimbursementAmount",
            "offset": 0,
            "slot": "2",
            "type": "t_uint256"
          },
          {
            "astId": 1099,
            "contract": "contracts/MacInsuranceMain.sol:MacInsuranceMain",
            "label": "fee",
            "offset": 0,
            "slot": "3",
            "type": "t_uint256"
          },
          {
            "astId": 1101,
            "contract": "contracts/MacInsuranceMain.sol:MacInsuranceMain",
            "label": "reimbursementReceived",
            "offset": 0,
            "slot": "4",
            "type": "t_bool"
          }
        ],
        "numberOfBytes": "160"
      },
      "t_struct(PoolData)1080_storage": {
        "encoding": "inplace",
        "label": "struct DataTypes.PoolData",
        "members": [
          {
            "astId": 1063,
            "contract": "contracts/MacInsuranceMain.sol:MacInsuranceMain",
            "label": "id",
            "offset": 0,
            "slot": "0",
            "type": "t_uint16"
          },
          {
            "astId": 1065,
            "contract": "contracts/MacInsuranceMain.sol:MacInsuranceMain",
            "label": "tokenAddress",
            "offset": 2,
            "slot": "0",
            "type": "t_address"
          },
          {
            "astId": 1067,
            "contract": "contracts/MacInsuranceMain.sol:MacInsuranceMain",
            "label": "totalLiquidity",
            "offset": 0,
            "slot": "1",
            "type": "t_uint256"
          },
          {
            "astId": 1069,
            "contract": "contracts/MacInsuranceMain.sol:MacInsuranceMain",
            "label": "priceLossCover",
            "offset": 0,
            "slot": "2",
            "type": "t_uint256"
          },
          {
            "astId": 1071,
            "contract": "contracts/MacInsuranceMain.sol:MacInsuranceMain",
            "label": "basePrice",
            "offset": 0,
            "slot": "3",
            "type": "t_int256"
          },
          {
            "astId": 1073,
            "contract": "contracts/MacInsuranceMain.sol:MacInsuranceMain",
            "label": "insuranceTreshold",
            "offset": 0,
            "slot": "4",
            "type": "t_int256"
          },
          {
            "astId": 1075,
            "contract": "contracts/MacInsuranceMain.sol:MacInsuranceMain",
            "label": "fee",
            "offset": 0,
            "slot": "5",
            "type": "t_uint8"
          },
          {
            "astId": 1077,
            "contract": "contracts/MacInsuranceMain.sol:MacInsuranceMain",
            "label": "startDate",
            "offset": 0,
            "slot": "6",
            "type": "t_uint256"
          },
          {
            "astId": 1079,
            "contract": "contracts/MacInsuranceMain.sol:MacInsuranceMain",
            "label": "endDate",
            "offset": 0,
            "slot": "7",
            "type": "t_uint256"
          }
        ],
        "numberOfBytes": "256"
      },
      "t_struct(PoolLiquiditySupply)1089_storage": {
        "encoding": "inplace",
        "label": "struct DataTypes.PoolLiquiditySupply",
        "members": [
          {
            "astId": 1082,
            "contract": "contracts/MacInsuranceMain.sol:MacInsuranceMain",
            "label": "id",
            "offset": 0,
            "slot": "0",
            "type": "t_uint16"
          },
          {
            "astId": 1084,
            "contract": "contracts/MacInsuranceMain.sol:MacInsuranceMain",
            "label": "liquidityProvider",
            "offset": 2,
            "slot": "0",
            "type": "t_address"
          },
          {
            "astId": 1086,
            "contract": "contracts/MacInsuranceMain.sol:MacInsuranceMain",
            "label": "liquidityAdded",
            "offset": 0,
            "slot": "1",
            "type": "t_uint256"
          },
          {
            "astId": 1088,
            "contract": "contracts/MacInsuranceMain.sol:MacInsuranceMain",
            "label": "liquidityWithdrawn",
            "offset": 0,
            "slot": "2",
            "type": "t_bool"
          }
        ],
        "numberOfBytes": "96"
      },
      "t_uint16": {
        "encoding": "inplace",
        "label": "uint16",
        "numberOfBytes": "2"
      },
      "t_uint256": {
        "encoding": "inplace",
        "label": "uint256",
        "numberOfBytes": "32"
      },
      "t_uint8": {
        "encoding": "inplace",
        "label": "uint8",
        "numberOfBytes": "1"
      }
    }
  }
}