{
  "address": "0xdAE3Df222e46f5DdbeD95404f64112ce9B173d6f",
  "abi": [
    {
      "inputs": [],
      "stateMutability": "nonpayable",
      "type": "constructor"
    },
    {
      "inputs": [],
      "name": "EndDateEarlierThanStartDate",
      "type": "error"
    },
    {
      "inputs": [],
      "name": "InsuranceAlreadyRequested",
      "type": "error"
    },
    {
      "inputs": [],
      "name": "InsuranceInActivePeriod",
      "type": "error"
    },
    {
      "inputs": [],
      "name": "NotEnoughInsuranceLiquidity",
      "type": "error"
    },
    {
      "inputs": [],
      "name": "NotEnoughTokenBalance",
      "type": "error"
    },
    {
      "inputs": [],
      "name": "PoolIdNotCreated",
      "type": "error"
    },
    {
      "inputs": [],
      "name": "ReimburesementRequirementNotMet",
      "type": "error"
    },
    {
      "anonymous": false,
      "inputs": [
        {
          "indexed": false,
          "internalType": "uint16",
          "name": "poolId",
          "type": "uint16"
        },
        {
          "indexed": false,
          "internalType": "address",
          "name": "tokenAddress",
          "type": "address"
        },
        {
          "indexed": false,
          "internalType": "address",
          "name": "insuranceRequester",
          "type": "address"
        },
        {
          "indexed": false,
          "internalType": "uint256",
          "name": "liquidtyToInsure",
          "type": "uint256"
        },
        {
          "indexed": false,
          "internalType": "uint256",
          "name": "fee",
          "type": "uint256"
        }
      ],
      "name": "InsuranceRequestCreated",
      "type": "event"
    },
    {
      "anonymous": false,
      "inputs": [
        {
          "indexed": false,
          "internalType": "uint16",
          "name": "poolId",
          "type": "uint16"
        },
        {
          "indexed": false,
          "internalType": "address",
          "name": "tokenAddress",
          "type": "address"
        },
        {
          "indexed": false,
          "internalType": "int256",
          "name": "basePrice",
          "type": "int256"
        },
        {
          "indexed": false,
          "internalType": "int256",
          "name": "tresholdPrice",
          "type": "int256"
        },
        {
          "indexed": false,
          "internalType": "uint8",
          "name": "fee",
          "type": "uint8"
        },
        {
          "indexed": false,
          "internalType": "uint256",
          "name": "liquidityAdded",
          "type": "uint256"
        },
        {
          "indexed": false,
          "internalType": "uint256",
          "name": "startDate",
          "type": "uint256"
        },
        {
          "indexed": false,
          "internalType": "uint256",
          "name": "endDate",
          "type": "uint256"
        }
      ],
      "name": "PoolUpdated",
      "type": "event"
    },
    {
      "inputs": [
        {
          "internalType": "uint16",
          "name": "_id",
          "type": "uint16"
        },
        {
          "internalType": "uint256",
          "name": "_amount",
          "type": "uint256"
        }
      ],
      "name": "getReimbursement",
      "outputs": [
        {
          "internalType": "uint256",
          "name": "",
          "type": "uint256"
        }
      ],
      "stateMutability": "view",
      "type": "function"
    },
    {
      "inputs": [
        {
          "internalType": "uint16",
          "name": "_id",
          "type": "uint16"
        },
        {
          "internalType": "uint256",
          "name": "_amount",
          "type": "uint256"
        }
      ],
      "name": "getUserFee",
      "outputs": [
        {
          "internalType": "uint256",
          "name": "",
          "type": "uint256"
        }
      ],
      "stateMutability": "view",
      "type": "function"
    },
    {
      "inputs": [],
      "name": "id",
      "outputs": [
        {
          "internalType": "uint16",
          "name": "",
          "type": "uint16"
        }
      ],
      "stateMutability": "view",
      "type": "function"
    },
    {
      "inputs": [
        {
          "internalType": "address",
          "name": "_tokenAddress",
          "type": "address"
        },
        {
          "internalType": "address",
          "name": "_priceFeed",
          "type": "address"
        },
        {
          "internalType": "int256",
          "name": "_insuranceLossCoverage",
          "type": "int256"
        },
        {
          "internalType": "uint8",
          "name": "_fee",
          "type": "uint8"
        },
        {
          "internalType": "uint256",
          "name": "_startDateFromDeployInSeconds",
          "type": "uint256"
        },
        {
          "internalType": "uint256",
          "name": "_endDateFromDeployInSeconds",
          "type": "uint256"
        }
      ],
      "name": "initPool",
      "outputs": [
        {
          "components": [
            {
              "internalType": "uint16",
              "name": "id",
              "type": "uint16"
            },
            {
              "internalType": "address",
              "name": "tokenAddress",
              "type": "address"
            },
            {
              "internalType": "uint256",
              "name": "totalLiquidity",
              "type": "uint256"
            },
            {
              "internalType": "uint256",
              "name": "priceLossCover",
              "type": "uint256"
            },
            {
              "internalType": "int256",
              "name": "basePrice",
              "type": "int256"
            },
            {
              "internalType": "int256",
              "name": "insuranceTreshold",
              "type": "int256"
            },
            {
              "internalType": "uint8",
              "name": "fee",
              "type": "uint8"
            },
            {
              "internalType": "uint256",
              "name": "startDate",
              "type": "uint256"
            },
            {
              "internalType": "uint256",
              "name": "endDate",
              "type": "uint256"
            }
          ],
          "internalType": "struct DataTypes.PoolData",
          "name": "",
          "type": "tuple"
        }
      ],
      "stateMutability": "nonpayable",
      "type": "function"
    },
    {
      "inputs": [
        {
          "internalType": "uint16",
          "name": "",
          "type": "uint16"
        },
        {
          "internalType": "address",
          "name": "",
          "type": "address"
        }
      ],
      "name": "insuranceRequests",
      "outputs": [
        {
          "internalType": "uint16",
          "name": "id",
          "type": "uint16"
        },
        {
          "internalType": "address",
          "name": "insuranceRequester",
          "type": "address"
        },
        {
          "internalType": "uint256",
          "name": "liquidtyToInsure",
          "type": "uint256"
        },
        {
          "internalType": "uint256",
          "name": "reimbursementAmount",
          "type": "uint256"
        },
        {
          "internalType": "uint256",
          "name": "fee",
          "type": "uint256"
        }
      ],
      "stateMutability": "view",
      "type": "function"
    },
    {
      "inputs": [
        {
          "internalType": "uint16",
          "name": "",
          "type": "uint16"
        }
      ],
      "name": "liquiditySupplyList",
      "outputs": [
        {
          "internalType": "uint16",
          "name": "id",
          "type": "uint16"
        },
        {
          "internalType": "address",
          "name": "liquidityProvider",
          "type": "address"
        },
        {
          "internalType": "uint256",
          "name": "liquidityAdded",
          "type": "uint256"
        }
      ],
      "stateMutability": "view",
      "type": "function"
    },
    {
      "inputs": [
        {
          "internalType": "uint16",
          "name": "",
          "type": "uint16"
        }
      ],
      "name": "poolDataList",
      "outputs": [
        {
          "internalType": "uint16",
          "name": "id",
          "type": "uint16"
        },
        {
          "internalType": "address",
          "name": "tokenAddress",
          "type": "address"
        },
        {
          "internalType": "uint256",
          "name": "totalLiquidity",
          "type": "uint256"
        },
        {
          "internalType": "uint256",
          "name": "priceLossCover",
          "type": "uint256"
        },
        {
          "internalType": "int256",
          "name": "basePrice",
          "type": "int256"
        },
        {
          "internalType": "int256",
          "name": "insuranceTreshold",
          "type": "int256"
        },
        {
          "internalType": "uint8",
          "name": "fee",
          "type": "uint8"
        },
        {
          "internalType": "uint256",
          "name": "startDate",
          "type": "uint256"
        },
        {
          "internalType": "uint256",
          "name": "endDate",
          "type": "uint256"
        }
      ],
      "stateMutability": "view",
      "type": "function"
    },
    {
      "inputs": [
        {
          "internalType": "uint16",
          "name": "_id",
          "type": "uint16"
        },
        {
          "internalType": "uint256",
          "name": "_amount",
          "type": "uint256"
        }
      ],
      "name": "requestInsurance",
      "outputs": [],
      "stateMutability": "nonpayable",
      "type": "function"
    },
    {
      "inputs": [
        {
          "internalType": "uint16",
          "name": "_id",
          "type": "uint16"
        }
      ],
      "name": "requestReimbursement",
      "outputs": [],
      "stateMutability": "nonpayable",
      "type": "function"
    },
    {
      "inputs": [
        {
          "internalType": "uint16",
          "name": "_id",
          "type": "uint16"
        },
        {
          "internalType": "uint256",
          "name": "_amount",
          "type": "uint256"
        }
      ],
      "name": "supplyPool",
      "outputs": [
        {
          "internalType": "uint256",
          "name": "",
          "type": "uint256"
        }
      ],
      "stateMutability": "nonpayable",
      "type": "function"
    },
    {
      "inputs": [],
      "name": "testTokenPrice",
      "outputs": [
        {
          "internalType": "int256",
          "name": "",
          "type": "int256"
        }
      ],
      "stateMutability": "view",
      "type": "function"
    },
    {
      "inputs": [
        {
          "internalType": "int256",
          "name": "_updatedPrice",
          "type": "int256"
        }
      ],
      "name": "updatePriceToken",
      "outputs": [],
      "stateMutability": "nonpayable",
      "type": "function"
    }
  ],
  "transactionHash": "0xdf456e2a8ce4c00e2c6dc930b57642627efef875f389e5193b5082f509485f7a",
  "args": [],
  "numDeployments": 1,
  "solcInputHash": "4b4ae20ab071f8e22d56e1b5deafa8e8",
  "bytecode": "0x6080604052633b9aca0060015534801561001857600080fd5b5060008060006101000a81548161ffff021916908361ffff16021790555061212a806100456000396000f3fe608060405234801561001057600080fd5b50600436106100b45760003560e01c806382c804dd1161007157806382c804dd146101cd578063a4429eb5146101e9578063a5ff706b14610205578063af640d0f14610235578063b307fc7514610253578063dca5ed481461028b576100b4565b80631f563bfd146100b95780633db0d614146100e95780635fae9b9214610107578063636241071461013b57806368c704a21461016d5780637bbece751461019d575b600080fd5b6100d360048036038101906100ce9190611635565b6102a7565b6040516100e091906117d2565b60405180910390f35b6100f1610691565b6040516100fe91906117fd565b60405180910390f35b610121600480360381019061011c9190611844565b610697565b6040516101329594939291906118b1565b60405180910390f35b61015560048036038101906101509190611904565b610708565b60405161016493929190611931565b60405180910390f35b61018760048036038101906101829190611968565b610760565b60405161019491906119a8565b60405180910390f35b6101b760048036038101906101b29190611968565b6107dd565b6040516101c491906119a8565b60405180910390f35b6101e760048036038101906101e29190611968565b610bbc565b005b61020360048036038101906101fe91906119c3565b61107a565b005b61021f600480360381019061021a9190611968565b611084565b60405161022c91906119a8565b60405180910390f35b61023d611123565b60405161024a91906119f0565b60405180910390f35b61026d60048036038101906102689190611904565b611135565b60405161028299989796959493929190611a1a565b60405180910390f35b6102a560048036038101906102a09190611904565b6111be565b005b6102af611440565b85600360006101000a81548173ffffffffffffffffffffffffffffffffffffffff021916908373ffffffffffffffffffffffffffffffffffffffff16021790555086600460006101000a81548173ffffffffffffffffffffffffffffffffffffffff021916908373ffffffffffffffffffffffffffffffffffffffff16021790555086600260006101000a81548173ffffffffffffffffffffffffffffffffffffffff021916908373ffffffffffffffffffffffffffffffffffffffff16021790555060006001846103819190611ad6565b4261038c9190611b30565b9050600060018461039d9190611ad6565b426103a89190611b30565b90508181116103e3576040517f14cc095100000000000000000000000000000000000000000000000000000000815260040160405180910390fd5b6103eb611440565b600060015490506000896064836104029190611bb5565b61040c9190611c1f565b826104179190611d36565b905060008054906101000a900461ffff16836000019061ffff16908161ffff1681525050600260009054906101000a900473ffffffffffffffffffffffffffffffffffffffff16836020019073ffffffffffffffffffffffffffffffffffffffff16908173ffffffffffffffffffffffffffffffffffffffff16815250508983606001818152505081836080018181525050808360a0018181525050888360c0019060ff16908160ff1681525050848360e0018181525050838361010001818152505082600560008060009054906101000a900461ffff1661ffff1661ffff16815260200190815260200160002060008201518160000160006101000a81548161ffff021916908361ffff16021790555060208201518160000160026101000a81548173ffffffffffffffffffffffffffffffffffffffff021916908373ffffffffffffffffffffffffffffffffffffffff16021790555060408201518160010155606082015181600201556080820151816003015560a0820151816004015560c08201518160050160006101000a81548160ff021916908360ff16021790555060e0820151816006015561010082015181600701559050507f60208157873c458e968e0270eaeab9e1f660d5a1ce88ca3efe8ed007b366f7ec60008054906101000a900461ffff16600260009054906101000a900473ffffffffffffffffffffffffffffffffffffffff1684848d60008b8b60405161063e989796959493929190611e0f565b60405180910390a160016000808282829054906101000a900461ffff166106659190611e8d565b92506101000a81548161ffff021916908361ffff16021790555082955050505050509695505050505050565b60015481565b6007602052816000526040600020602052806000526040600020600091509150508060000160009054906101000a900461ffff16908060000160029054906101000a900473ffffffffffffffffffffffffffffffffffffffff16908060010154908060020154908060030154905085565b60066020528060005260406000206000915090508060000160009054906101000a900461ffff16908060000160029054906101000a900473ffffffffffffffffffffffffffffffffffffffff16908060010154905083565b600080600560008561ffff1661ffff1681526020019081526020016000206002015490506000816064856107949190611ec5565b61079e9190611ad6565b846107a99190611ef6565b90506000818583876107bb9190611ef6565b6107c59190611ad6565b6107cf9190611ec5565b905080935050505092915050565b60008060009054906101000a900461ffff1661ffff168361ffff161115610830576040517ff23f6c1500000000000000000000000000000000000000000000000000000000815260040160405180910390fd5b600560008461ffff1661ffff168152602001908152602001600020600601544210610887576040517fdb589d0800000000000000000000000000000000000000000000000000000000815260040160405180910390fd5b61088f6114a9565b600460009054906101000a900473ffffffffffffffffffffffffffffffffffffffff1673ffffffffffffffffffffffffffffffffffffffff166323b872dd3330866040518463ffffffff1660e01b81526004016108ee93929190611f2a565b6020604051808303816000875af115801561090d573d6000803e3d6000fd5b505050506040513d601f19601f820116820180604052508101906109319190611f99565b5082600560008661ffff1661ffff16815260200190815260200160002060010160008282546109609190611b30565b9250508190555083816000019061ffff16908161ffff168152505033816020019073ffffffffffffffffffffffffffffffffffffffff16908173ffffffffffffffffffffffffffffffffffffffff16815250508281604001818152505080600660008661ffff1661ffff16815260200190815260200160002060008201518160000160006101000a81548161ffff021916908361ffff16021790555060208201518160000160026101000a81548173ffffffffffffffffffffffffffffffffffffffff021916908373ffffffffffffffffffffffffffffffffffffffff160217905550604082015181600101559050507f60208157873c458e968e0270eaeab9e1f660d5a1ce88ca3efe8ed007b366f7ec84600560008761ffff1661ffff16815260200190815260200160002060000160029054906101000a900473ffffffffffffffffffffffffffffffffffffffff16600560008861ffff1661ffff16815260200190815260200160002060030154600560008961ffff1661ffff16815260200190815260200160002060040154600560008a61ffff1661ffff16815260200190815260200160002060050160009054906101000a900460ff16600560008b61ffff1661ffff16815260200190815260200160002060010154600560008c61ffff1661ffff16815260200190815260200160002060060154600560008d61ffff1661ffff16815260200190815260200160002060070154604051610b8c989796959493929190611fc6565b60405180910390a1600560008561ffff1661ffff1681526020019081526020016000206001015491505092915050565b6000600560008461ffff1661ffff168152602001908152602001600020600101549050600560008461ffff1661ffff168152602001908152602001600020600601544210610c36576040517fdb589d0800000000000000000000000000000000000000000000000000000000815260040160405180910390fd5b6000600460009054906101000a900473ffffffffffffffffffffffffffffffffffffffff1673ffffffffffffffffffffffffffffffffffffffff166370a08231336040518263ffffffff1660e01b8152600401610c939190612044565b602060405180830381865afa158015610cb0573d6000803e3d6000fd5b505050506040513d601f19601f82011682018060405250810190610cd49190612074565b905082811015610d10576040517f5dd3b4d100000000000000000000000000000000000000000000000000000000815260040160405180910390fd5b6000600760008661ffff1661ffff16815260200190815260200160002060003373ffffffffffffffffffffffffffffffffffffffff1673ffffffffffffffffffffffffffffffffffffffff1681526020019081526020016000206001015414610da5576040517fc5ea839600000000000000000000000000000000000000000000000000000000815260040160405180910390fd5b610dad6114e4565b6000610db98686611084565b90506000610dc78787610760565b905084811115610e03576040517f3f735c4f00000000000000000000000000000000000000000000000000000000815260040160405180910390fd5b600460009054906101000a900473ffffffffffffffffffffffffffffffffffffffff1673ffffffffffffffffffffffffffffffffffffffff166323b872dd3330856040518463ffffffff1660e01b8152600401610e6293929190611f2a565b6020604051808303816000875af1158015610e81573d6000803e3d6000fd5b505050506040513d601f19601f82011682018060405250810190610ea59190611f99565b5086836000019061ffff16908161ffff168152505033836020019073ffffffffffffffffffffffffffffffffffffffff16908173ffffffffffffffffffffffffffffffffffffffff168152505085836040018181525050808360600181815250508183608001818152505082600760008961ffff1661ffff16815260200190815260200160002060003373ffffffffffffffffffffffffffffffffffffffff1673ffffffffffffffffffffffffffffffffffffffff16815260200190815260200160002060008201518160000160006101000a81548161ffff021916908361ffff16021790555060208201518160000160026101000a81548173ffffffffffffffffffffffffffffffffffffffff021916908373ffffffffffffffffffffffffffffffffffffffff1602179055506040820151816001015560608201518160020155608082015181600301559050507f6f7b24a89bff54221f25713c015469512753a3c6491219a91c0ff35e7812190f87600560008a61ffff1661ffff16815260200190815260200160002060000160029054906101000a900473ffffffffffffffffffffffffffffffffffffffff163389866040516110699594939291906120a1565b60405180910390a150505050505050565b8060018190555050565b600080600560008561ffff1661ffff1681526020019081526020016000206001015490506000600560008661ffff1661ffff16815260200190815260200160002060050160009054906101000a900460ff1660ff169050600060648261ffff16846110ef9190611ad6565b6110f99190611ec5565b9050600083828761110a9190611ad6565b6111149190611ec5565b90508094505050505092915050565b60008054906101000a900461ffff1681565b60056020528060005260406000206000915090508060000160009054906101000a900461ffff16908060000160029054906101000a900473ffffffffffffffffffffffffffffffffffffffff16908060010154908060020154908060030154908060040154908060050160009054906101000a900460ff16908060060154908060070154905089565b600560008261ffff1661ffff168152602001908152602001600020600601544211611215576040517fdb589d0800000000000000000000000000000000000000000000000000000000815260040160405180910390fd5b600560008261ffff1661ffff1681526020019081526020016000206007015442111561126d576040517fdb589d0800000000000000000000000000000000000000000000000000000000815260040160405180910390fd5b60006001549050600560008361ffff1661ffff168152602001908152602001600020600401548113156112cc576040517ff65ecfbb00000000000000000000000000000000000000000000000000000000815260040160405180910390fd5b6000600760008461ffff1661ffff16815260200190815260200160002060003373ffffffffffffffffffffffffffffffffffffffff1673ffffffffffffffffffffffffffffffffffffffff1681526020019081526020016000206002015490506000600460009054906101000a900473ffffffffffffffffffffffffffffffffffffffff1673ffffffffffffffffffffffffffffffffffffffff166323b872dd3033856040518463ffffffff1660e01b815260040161138d93929190611f2a565b6020604051808303816000875af11580156113ac573d6000803e3d6000fd5b505050506040513d601f19601f820116820180604052508101906113d09190611f99565b9050801561143a576000600760008661ffff1661ffff16815260200190815260200160002060003373ffffffffffffffffffffffffffffffffffffffff1673ffffffffffffffffffffffffffffffffffffffff168152602001908152602001600020600101819055505b50505050565b604051806101200160405280600061ffff168152602001600073ffffffffffffffffffffffffffffffffffffffff16815260200160008152602001600081526020016000815260200160008152602001600060ff16815260200160008152602001600081525090565b6040518060600160405280600061ffff168152602001600073ffffffffffffffffffffffffffffffffffffffff168152602001600081525090565b6040518060a00160405280600061ffff168152602001600073ffffffffffffffffffffffffffffffffffffffff1681526020016000815260200160008152602001600081525090565b600080fd5b600073ffffffffffffffffffffffffffffffffffffffff82169050919050565b600061155d82611532565b9050919050565b61156d81611552565b811461157857600080fd5b50565b60008135905061158a81611564565b92915050565b6000819050919050565b6115a381611590565b81146115ae57600080fd5b50565b6000813590506115c08161159a565b92915050565b600060ff82169050919050565b6115dc816115c6565b81146115e757600080fd5b50565b6000813590506115f9816115d3565b92915050565b6000819050919050565b611612816115ff565b811461161d57600080fd5b50565b60008135905061162f81611609565b92915050565b60008060008060008060c087890312156116525761165161152d565b5b600061166089828a0161157b565b965050602061167189828a0161157b565b955050604061168289828a016115b1565b945050606061169389828a016115ea565b93505060806116a489828a01611620565b92505060a06116b589828a01611620565b9150509295509295509295565b600061ffff82169050919050565b6116d9816116c2565b82525050565b6116e881611552565b82525050565b6116f7816115ff565b82525050565b61170681611590565b82525050565b611715816115c6565b82525050565b6101208201600082015161173260008501826116d0565b50602082015161174560208501826116df565b50604082015161175860408501826116ee565b50606082015161176b60608501826116ee565b50608082015161177e60808501826116fd565b5060a082015161179160a08501826116fd565b5060c08201516117a460c085018261170c565b5060e08201516117b760e08501826116ee565b506101008201516117cc6101008501826116ee565b50505050565b6000610120820190506117e8600083018461171b565b92915050565b6117f781611590565b82525050565b600060208201905061181260008301846117ee565b92915050565b611821816116c2565b811461182c57600080fd5b50565b60008135905061183e81611818565b92915050565b6000806040838503121561185b5761185a61152d565b5b60006118698582860161182f565b925050602061187a8582860161157b565b9150509250929050565b61188d816116c2565b82525050565b61189c81611552565b82525050565b6118ab816115ff565b82525050565b600060a0820190506118c66000830188611884565b6118d36020830187611893565b6118e060408301866118a2565b6118ed60608301856118a2565b6118fa60808301846118a2565b9695505050505050565b60006020828403121561191a5761191961152d565b5b60006119288482850161182f565b91505092915050565b60006060820190506119466000830186611884565b6119536020830185611893565b61196060408301846118a2565b949350505050565b6000806040838503121561197f5761197e61152d565b5b600061198d8582860161182f565b925050602061199e85828601611620565b9150509250929050565b60006020820190506119bd60008301846118a2565b92915050565b6000602082840312156119d9576119d861152d565b5b60006119e7848285016115b1565b91505092915050565b6000602082019050611a056000830184611884565b92915050565b611a14816115c6565b82525050565b600061012082019050611a30600083018c611884565b611a3d602083018b611893565b611a4a604083018a6118a2565b611a5760608301896118a2565b611a6460808301886117ee565b611a7160a08301876117ee565b611a7e60c0830186611a0b565b611a8b60e08301856118a2565b611a996101008301846118a2565b9a9950505050505050505050565b7f4e487b7100000000000000000000000000000000000000000000000000000000600052601160045260246000fd5b6000611ae1826115ff565b9150611aec836115ff565b9250817fffffffffffffffffffffffffffffffffffffffffffffffffffffffffffffffff0483118215151615611b2557611b24611aa7565b5b828202905092915050565b6000611b3b826115ff565b9150611b46836115ff565b9250827fffffffffffffffffffffffffffffffffffffffffffffffffffffffffffffffff03821115611b7b57611b7a611aa7565b5b828201905092915050565b7f4e487b7100000000000000000000000000000000000000000000000000000000600052601260045260246000fd5b6000611bc082611590565b9150611bcb83611590565b925082611bdb57611bda611b86565b5b600160000383147f800000000000000000000000000000000000000000000000000000000000000083141615611c1457611c13611aa7565b5b828205905092915050565b6000611c2a82611590565b9150611c3583611590565b9250827f7fffffffffffffffffffffffffffffffffffffffffffffffffffffffffffffff0482116000841360008413161615611c7457611c73611aa7565b5b817f80000000000000000000000000000000000000000000000000000000000000000583126000841260008413161615611cb157611cb0611aa7565b5b827f80000000000000000000000000000000000000000000000000000000000000000582126000841360008412161615611cee57611ced611aa7565b5b827f7fffffffffffffffffffffffffffffffffffffffffffffffffffffffffffffff0582126000841260008412161615611d2b57611d2a611aa7565b5b828202905092915050565b6000611d4182611590565b9150611d4c83611590565b9250827f800000000000000000000000000000000000000000000000000000000000000001821260008412151615611d8757611d86611aa7565b5b827f7fffffffffffffffffffffffffffffffffffffffffffffffffffffffffffffff018213600084121615611dbf57611dbe611aa7565b5b828203905092915050565b6000819050919050565b6000819050919050565b6000611df9611df4611def84611dca565b611dd4565b6115ff565b9050919050565b611e0981611dde565b82525050565b600061010082019050611e25600083018b611884565b611e32602083018a611893565b611e3f60408301896117ee565b611e4c60608301886117ee565b611e596080830187611a0b565b611e6660a0830186611e00565b611e7360c08301856118a2565b611e8060e08301846118a2565b9998505050505050505050565b6000611e98826116c2565b9150611ea3836116c2565b92508261ffff03821115611eba57611eb9611aa7565b5b828201905092915050565b6000611ed0826115ff565b9150611edb836115ff565b925082611eeb57611eea611b86565b5b828204905092915050565b6000611f01826115ff565b9150611f0c836115ff565b925082821015611f1f57611f1e611aa7565b5b828203905092915050565b6000606082019050611f3f6000830186611893565b611f4c6020830185611893565b611f5960408301846118a2565b949350505050565b60008115159050919050565b611f7681611f61565b8114611f8157600080fd5b50565b600081519050611f9381611f6d565b92915050565b600060208284031215611faf57611fae61152d565b5b6000611fbd84828501611f84565b91505092915050565b600061010082019050611fdc600083018b611884565b611fe9602083018a611893565b611ff660408301896117ee565b61200360608301886117ee565b6120106080830187611a0b565b61201d60a08301866118a2565b61202a60c08301856118a2565b61203760e08301846118a2565b9998505050505050505050565b60006020820190506120596000830184611893565b92915050565b60008151905061206e81611609565b92915050565b60006020828403121561208a5761208961152d565b5b60006120988482850161205f565b91505092915050565b600060a0820190506120b66000830188611884565b6120c36020830187611893565b6120d06040830186611893565b6120dd60608301856118a2565b6120ea60808301846118a2565b969550505050505056fea2646970667358221220c3a5c8236d8a3f4d3cb42ec41b19a8edfedc2d3c1e8a0aee5bf9d8a491b15e4564736f6c634300080a0033",
  "devdoc": {
    "kind": "dev",
    "methods": {},
    "version": 1
  },
  "userdoc": {
    "kind": "user",
    "methods": {},
    "version": 1
  },
  "storageLayout": {
    "storage": [
      {
        "astId": 191,
        "contract": "contracts/test/Test_MacInsuranceMain.sol:Test_MacInsuranceMain",
        "label": "id",
        "offset": 0,
        "slot": "0",
        "type": "t_uint16"
      },
      {
        "astId": 194,
        "contract": "contracts/test/Test_MacInsuranceMain.sol:Test_MacInsuranceMain",
        "label": "testTokenPrice",
        "offset": 0,
        "slot": "1",
        "type": "t_int256"
      },
      {
        "astId": 196,
        "contract": "contracts/test/Test_MacInsuranceMain.sol:Test_MacInsuranceMain",
        "label": "tokenAddress",
        "offset": 0,
        "slot": "2",
        "type": "t_address"
      },
      {
        "astId": 199,
        "contract": "contracts/test/Test_MacInsuranceMain.sol:Test_MacInsuranceMain",
        "label": "priceFeed",
        "offset": 0,
        "slot": "3",
        "type": "t_contract(AggregatorV3Interface)45"
      },
      {
        "astId": 202,
        "contract": "contracts/test/Test_MacInsuranceMain.sol:Test_MacInsuranceMain",
        "label": "insuredToken",
        "offset": 0,
        "slot": "4",
        "type": "t_contract(IERC20)123"
      },
      {
        "astId": 207,
        "contract": "contracts/test/Test_MacInsuranceMain.sol:Test_MacInsuranceMain",
        "label": "poolDataList",
        "offset": 0,
        "slot": "5",
        "type": "t_mapping(t_uint16,t_struct(PoolData)144_storage)"
      },
      {
        "astId": 212,
        "contract": "contracts/test/Test_MacInsuranceMain.sol:Test_MacInsuranceMain",
        "label": "liquiditySupplyList",
        "offset": 0,
        "slot": "6",
        "type": "t_mapping(t_uint16,t_struct(PoolLiquiditySupply)151_storage)"
      },
      {
        "astId": 219,
        "contract": "contracts/test/Test_MacInsuranceMain.sol:Test_MacInsuranceMain",
        "label": "insuranceRequests",
        "offset": 0,
        "slot": "7",
        "type": "t_mapping(t_uint16,t_mapping(t_address,t_struct(InsuranceRequest)162_storage))"
      }
    ],
    "types": {
      "t_address": {
        "encoding": "inplace",
        "label": "address",
        "numberOfBytes": "20"
      },
      "t_contract(AggregatorV3Interface)45": {
        "encoding": "inplace",
        "label": "contract AggregatorV3Interface",
        "numberOfBytes": "20"
      },
      "t_contract(IERC20)123": {
        "encoding": "inplace",
        "label": "contract IERC20",
        "numberOfBytes": "20"
      },
      "t_int256": {
        "encoding": "inplace",
        "label": "int256",
        "numberOfBytes": "32"
      },
      "t_mapping(t_address,t_struct(InsuranceRequest)162_storage)": {
        "encoding": "mapping",
        "key": "t_address",
        "label": "mapping(address => struct DataTypes.InsuranceRequest)",
        "numberOfBytes": "32",
        "value": "t_struct(InsuranceRequest)162_storage"
      },
      "t_mapping(t_uint16,t_mapping(t_address,t_struct(InsuranceRequest)162_storage))": {
        "encoding": "mapping",
        "key": "t_uint16",
        "label": "mapping(uint16 => mapping(address => struct DataTypes.InsuranceRequest))",
        "numberOfBytes": "32",
        "value": "t_mapping(t_address,t_struct(InsuranceRequest)162_storage)"
      },
      "t_mapping(t_uint16,t_struct(PoolData)144_storage)": {
        "encoding": "mapping",
        "key": "t_uint16",
        "label": "mapping(uint16 => struct DataTypes.PoolData)",
        "numberOfBytes": "32",
        "value": "t_struct(PoolData)144_storage"
      },
      "t_mapping(t_uint16,t_struct(PoolLiquiditySupply)151_storage)": {
        "encoding": "mapping",
        "key": "t_uint16",
        "label": "mapping(uint16 => struct DataTypes.PoolLiquiditySupply)",
        "numberOfBytes": "32",
        "value": "t_struct(PoolLiquiditySupply)151_storage"
      },
      "t_struct(InsuranceRequest)162_storage": {
        "encoding": "inplace",
        "label": "struct DataTypes.InsuranceRequest",
        "members": [
          {
            "astId": 153,
            "contract": "contracts/test/Test_MacInsuranceMain.sol:Test_MacInsuranceMain",
            "label": "id",
            "offset": 0,
            "slot": "0",
            "type": "t_uint16"
          },
          {
            "astId": 155,
            "contract": "contracts/test/Test_MacInsuranceMain.sol:Test_MacInsuranceMain",
            "label": "insuranceRequester",
            "offset": 2,
            "slot": "0",
            "type": "t_address"
          },
          {
            "astId": 157,
            "contract": "contracts/test/Test_MacInsuranceMain.sol:Test_MacInsuranceMain",
            "label": "liquidtyToInsure",
            "offset": 0,
            "slot": "1",
            "type": "t_uint256"
          },
          {
            "astId": 159,
            "contract": "contracts/test/Test_MacInsuranceMain.sol:Test_MacInsuranceMain",
            "label": "reimbursementAmount",
            "offset": 0,
            "slot": "2",
            "type": "t_uint256"
          },
          {
            "astId": 161,
            "contract": "contracts/test/Test_MacInsuranceMain.sol:Test_MacInsuranceMain",
            "label": "fee",
            "offset": 0,
            "slot": "3",
            "type": "t_uint256"
          }
        ],
        "numberOfBytes": "128"
      },
      "t_struct(PoolData)144_storage": {
        "encoding": "inplace",
        "label": "struct DataTypes.PoolData",
        "members": [
          {
            "astId": 127,
            "contract": "contracts/test/Test_MacInsuranceMain.sol:Test_MacInsuranceMain",
            "label": "id",
            "offset": 0,
            "slot": "0",
            "type": "t_uint16"
          },
          {
            "astId": 129,
            "contract": "contracts/test/Test_MacInsuranceMain.sol:Test_MacInsuranceMain",
            "label": "tokenAddress",
            "offset": 2,
            "slot": "0",
            "type": "t_address"
          },
          {
            "astId": 131,
            "contract": "contracts/test/Test_MacInsuranceMain.sol:Test_MacInsuranceMain",
            "label": "totalLiquidity",
            "offset": 0,
            "slot": "1",
            "type": "t_uint256"
          },
          {
            "astId": 133,
            "contract": "contracts/test/Test_MacInsuranceMain.sol:Test_MacInsuranceMain",
            "label": "priceLossCover",
            "offset": 0,
            "slot": "2",
            "type": "t_uint256"
          },
          {
            "astId": 135,
            "contract": "contracts/test/Test_MacInsuranceMain.sol:Test_MacInsuranceMain",
            "label": "basePrice",
            "offset": 0,
            "slot": "3",
            "type": "t_int256"
          },
          {
            "astId": 137,
            "contract": "contracts/test/Test_MacInsuranceMain.sol:Test_MacInsuranceMain",
            "label": "insuranceTreshold",
            "offset": 0,
            "slot": "4",
            "type": "t_int256"
          },
          {
            "astId": 139,
            "contract": "contracts/test/Test_MacInsuranceMain.sol:Test_MacInsuranceMain",
            "label": "fee",
            "offset": 0,
            "slot": "5",
            "type": "t_uint8"
          },
          {
            "astId": 141,
            "contract": "contracts/test/Test_MacInsuranceMain.sol:Test_MacInsuranceMain",
            "label": "startDate",
            "offset": 0,
            "slot": "6",
            "type": "t_uint256"
          },
          {
            "astId": 143,
            "contract": "contracts/test/Test_MacInsuranceMain.sol:Test_MacInsuranceMain",
            "label": "endDate",
            "offset": 0,
            "slot": "7",
            "type": "t_uint256"
          }
        ],
        "numberOfBytes": "256"
      },
      "t_struct(PoolLiquiditySupply)151_storage": {
        "encoding": "inplace",
        "label": "struct DataTypes.PoolLiquiditySupply",
        "members": [
          {
            "astId": 146,
            "contract": "contracts/test/Test_MacInsuranceMain.sol:Test_MacInsuranceMain",
            "label": "id",
            "offset": 0,
            "slot": "0",
            "type": "t_uint16"
          },
          {
            "astId": 148,
            "contract": "contracts/test/Test_MacInsuranceMain.sol:Test_MacInsuranceMain",
            "label": "liquidityProvider",
            "offset": 2,
            "slot": "0",
            "type": "t_address"
          },
          {
            "astId": 150,
            "contract": "contracts/test/Test_MacInsuranceMain.sol:Test_MacInsuranceMain",
            "label": "liquidityAdded",
            "offset": 0,
            "slot": "1",
            "type": "t_uint256"
          }
        ],
        "numberOfBytes": "64"
      },
      "t_uint16": {
        "encoding": "inplace",
        "label": "uint16",
        "numberOfBytes": "2"
      },
      "t_uint256": {
        "encoding": "inplace",
        "label": "uint256",
        "numberOfBytes": "32"
      },
      "t_uint8": {
        "encoding": "inplace",
        "label": "uint8",
        "numberOfBytes": "1"
      }
    }
  }
}