{
  "address": "0xB06c856C8eaBd1d8321b687E188204C1018BC4E5",
  "abi": [
    {
      "inputs": [
        {
          "internalType": "address",
          "name": "_tokenAddress",
          "type": "address"
        },
        {
          "internalType": "address",
          "name": "_priceFeed",
          "type": "address"
        }
      ],
      "stateMutability": "nonpayable",
      "type": "constructor"
    },
    {
      "inputs": [],
      "name": "InsuranceAlreadyRequested",
      "type": "error"
    },
    {
      "inputs": [],
      "name": "NotEnoughLiquidity",
      "type": "error"
    },
    {
      "inputs": [],
      "name": "NotEnoughTokenBalance",
      "type": "error"
    },
    {
      "inputs": [],
      "name": "PoolIdNotCreated",
      "type": "error"
    },
    {
      "inputs": [],
      "name": "ReimburesementRequirementNotMet",
      "type": "error"
    },
    {
      "anonymous": false,
      "inputs": [
        {
          "indexed": false,
          "internalType": "uint16",
          "name": "poolId",
          "type": "uint16"
        },
        {
          "indexed": false,
          "internalType": "address",
          "name": "tokenAddress",
          "type": "address"
        },
        {
          "indexed": false,
          "internalType": "address",
          "name": "insuranceRequester",
          "type": "address"
        },
        {
          "indexed": false,
          "internalType": "uint256",
          "name": "liquidtyToInsure",
          "type": "uint256"
        },
        {
          "indexed": false,
          "internalType": "uint128",
          "name": "fee",
          "type": "uint128"
        }
      ],
      "name": "InsuranceRequestCreated",
      "type": "event"
    },
    {
      "anonymous": false,
      "inputs": [
        {
          "indexed": false,
          "internalType": "uint16",
          "name": "poolId",
          "type": "uint16"
        },
        {
          "indexed": false,
          "internalType": "address",
          "name": "tokenAddress",
          "type": "address"
        },
        {
          "indexed": false,
          "internalType": "address",
          "name": "owner",
          "type": "address"
        },
        {
          "indexed": false,
          "internalType": "int256",
          "name": "basePrice",
          "type": "int256"
        },
        {
          "indexed": false,
          "internalType": "int256",
          "name": "tresholdPrice",
          "type": "int256"
        }
      ],
      "name": "PoolCreated",
      "type": "event"
    },
    {
      "anonymous": false,
      "inputs": [
        {
          "indexed": false,
          "internalType": "uint16",
          "name": "poolId",
          "type": "uint16"
        },
        {
          "indexed": false,
          "internalType": "address",
          "name": "tokenAddress",
          "type": "address"
        },
        {
          "indexed": false,
          "internalType": "address",
          "name": "liquidityProvider",
          "type": "address"
        },
        {
          "indexed": false,
          "internalType": "uint256",
          "name": "liquidityAdded",
          "type": "uint256"
        }
      ],
      "name": "PoolLiquidityAdded",
      "type": "event"
    },
    {
      "inputs": [],
      "name": "getLatestPrice",
      "outputs": [
        {
          "internalType": "int256",
          "name": "",
          "type": "int256"
        }
      ],
      "stateMutability": "view",
      "type": "function"
    },
    {
      "inputs": [
        {
          "internalType": "int256",
          "name": "_insuranceLossCoverage",
          "type": "int256"
        },
        {
          "internalType": "uint8",
          "name": "_fee",
          "type": "uint8"
        }
      ],
      "name": "initPool",
      "outputs": [
        {
          "components": [
            {
              "internalType": "uint16",
              "name": "id",
              "type": "uint16"
            },
            {
              "internalType": "address",
              "name": "tokenAddress",
              "type": "address"
            },
            {
              "internalType": "uint256",
              "name": "totalLiquidity",
              "type": "uint256"
            },
            {
              "internalType": "uint256",
              "name": "priceLossCover",
              "type": "uint256"
            },
            {
              "internalType": "int256",
              "name": "basePrice",
              "type": "int256"
            },
            {
              "internalType": "int256",
              "name": "insuranceTreshold",
              "type": "int256"
            },
            {
              "internalType": "uint8",
              "name": "fee",
              "type": "uint8"
            }
          ],
          "internalType": "struct DataTypes.PoolData",
          "name": "",
          "type": "tuple"
        }
      ],
      "stateMutability": "nonpayable",
      "type": "function"
    },
    {
      "inputs": [
        {
          "internalType": "uint16",
          "name": "",
          "type": "uint16"
        },
        {
          "internalType": "address",
          "name": "",
          "type": "address"
        }
      ],
      "name": "insuranceRequests",
      "outputs": [
        {
          "internalType": "uint16",
          "name": "id",
          "type": "uint16"
        },
        {
          "internalType": "address",
          "name": "insuranceRequester",
          "type": "address"
        },
        {
          "internalType": "uint256",
          "name": "liquidtyToInsure",
          "type": "uint256"
        },
        {
          "internalType": "uint256",
          "name": "reimbursementAmount",
          "type": "uint256"
        },
        {
          "internalType": "uint256",
          "name": "fee",
          "type": "uint256"
        }
      ],
      "stateMutability": "view",
      "type": "function"
    },
    {
      "inputs": [
        {
          "internalType": "uint16",
          "name": "",
          "type": "uint16"
        }
      ],
      "name": "liquiditySupplyList",
      "outputs": [
        {
          "internalType": "uint16",
          "name": "id",
          "type": "uint16"
        },
        {
          "internalType": "address",
          "name": "liquidityProvider",
          "type": "address"
        },
        {
          "internalType": "uint256",
          "name": "liquidityAdded",
          "type": "uint256"
        }
      ],
      "stateMutability": "view",
      "type": "function"
    },
    {
      "inputs": [
        {
          "internalType": "uint16",
          "name": "",
          "type": "uint16"
        }
      ],
      "name": "poolDataList",
      "outputs": [
        {
          "internalType": "uint16",
          "name": "id",
          "type": "uint16"
        },
        {
          "internalType": "address",
          "name": "tokenAddress",
          "type": "address"
        },
        {
          "internalType": "uint256",
          "name": "totalLiquidity",
          "type": "uint256"
        },
        {
          "internalType": "uint256",
          "name": "priceLossCover",
          "type": "uint256"
        },
        {
          "internalType": "int256",
          "name": "basePrice",
          "type": "int256"
        },
        {
          "internalType": "int256",
          "name": "insuranceTreshold",
          "type": "int256"
        },
        {
          "internalType": "uint8",
          "name": "fee",
          "type": "uint8"
        }
      ],
      "stateMutability": "view",
      "type": "function"
    },
    {
      "inputs": [
        {
          "internalType": "uint16",
          "name": "_id",
          "type": "uint16"
        },
        {
          "internalType": "uint32",
          "name": "_amount",
          "type": "uint32"
        }
      ],
      "name": "requestInsurance",
      "outputs": [],
      "stateMutability": "nonpayable",
      "type": "function"
    },
    {
      "inputs": [
        {
          "internalType": "uint16",
          "name": "_id",
          "type": "uint16"
        }
      ],
      "name": "requestReimbursement",
      "outputs": [],
      "stateMutability": "nonpayable",
      "type": "function"
    },
    {
      "inputs": [
        {
          "internalType": "uint16",
          "name": "_id",
          "type": "uint16"
        },
        {
          "internalType": "uint256",
          "name": "_amount",
          "type": "uint256"
        }
      ],
      "name": "supplyPool",
      "outputs": [
        {
          "internalType": "uint256",
          "name": "",
          "type": "uint256"
        }
      ],
      "stateMutability": "nonpayable",
      "type": "function"
    }
  ],
  "transactionHash": "0x6ac04d509bf768afcaab80e8afadb0817a294fd8f399628fe9c571ff67c488b7",
  "args": [
    "0x1f9840a85d5aF5bf1D1762F925BDADdC4201F984",
    "0x553303d460EE0afB37EdFf9bE42922D8FF63220e"
  ],
  "numDeployments": 1,
  "solcInputHash": "89a38c35db6e4e692c86f8a3df527916",
  "bytecode": "0x608060405260008060006101000a81548161ffff021916908361ffff1602179055503480156200002e57600080fd5b5060405162001d7038038062001d70833981810160405281019062000054919062000189565b80600160006101000a81548173ffffffffffffffffffffffffffffffffffffffff021916908373ffffffffffffffffffffffffffffffffffffffff16021790555081600260006101000a81548173ffffffffffffffffffffffffffffffffffffffff021916908373ffffffffffffffffffffffffffffffffffffffff16021790555081600060026101000a81548173ffffffffffffffffffffffffffffffffffffffff021916908373ffffffffffffffffffffffffffffffffffffffff1602179055505050620001d0565b600080fd5b600073ffffffffffffffffffffffffffffffffffffffff82169050919050565b6000620001518262000124565b9050919050565b620001638162000144565b81146200016f57600080fd5b50565b600081519050620001838162000158565b92915050565b60008060408385031215620001a357620001a26200011f565b5b6000620001b38582860162000172565b9250506020620001c68582860162000172565b9150509250929050565b611b9080620001e06000396000f3fe608060405234801561001057600080fd5b50600436106100885760003560e01c8063b307fc751161005b578063b307fc7514610141578063dca5ed4814610177578063f33e2f1914610193578063f66502dc146101c357610088565b80635fae9b921461008d57806363624107146100c15780637bbece75146100f35780638e15f47314610123575b600080fd5b6100a760048036038101906100a29190611149565b6101df565b6040516100b89594939291906111c0565b60405180910390f35b6100db60048036038101906100d69190611213565b610250565b6040516100ea93929190611240565b60405180910390f35b61010d600480360381019061010891906112a3565b6102a8565b60405161011a91906112e3565b60405180910390f35b61012b61054b565b6040516101389190611317565b60405180910390f35b61015b60048036038101906101569190611213565b6105ec565b60405161016e979695949392919061134e565b60405180910390f35b610191600480360381019061018c9190611213565b610669565b005b6101ad60048036038101906101a89190611415565b610841565b6040516101ba919061152e565b60405180910390f35b6101dd60048036038101906101d89190611585565b610ac5565b005b6005602052816000526040600020602052806000526040600020600091509150508060000160009054906101000a900461ffff16908060000160029054906101000a900473ffffffffffffffffffffffffffffffffffffffff16908060010154908060020154908060030154905085565b60046020528060005260406000206000915090508060000160009054906101000a900461ffff16908060000160029054906101000a900473ffffffffffffffffffffffffffffffffffffffff16908060010154905083565b60008060009054906101000a900461ffff1661ffff168361ffff1611156102fb576040517ff23f6c1500000000000000000000000000000000000000000000000000000000815260040160405180910390fd5b610303610fce565b600260009054906101000a900473ffffffffffffffffffffffffffffffffffffffff1673ffffffffffffffffffffffffffffffffffffffff166323b872dd3330866040518463ffffffff1660e01b8152600401610362939291906115c5565b6020604051808303816000875af1158015610381573d6000803e3d6000fd5b505050506040513d601f19601f820116820180604052508101906103a59190611634565b5082600360008661ffff1661ffff16815260200190815260200160002060010160008282546103d49190611690565b9250508190555083816000019061ffff16908161ffff168152505033816020019073ffffffffffffffffffffffffffffffffffffffff16908173ffffffffffffffffffffffffffffffffffffffff16815250508281604001818152505080600460008661ffff1661ffff16815260200190815260200160002060008201518160000160006101000a81548161ffff021916908361ffff16021790555060208201518160000160026101000a81548173ffffffffffffffffffffffffffffffffffffffff021916908373ffffffffffffffffffffffffffffffffffffffff160217905550604082015181600101559050507fefc185627fbeb42eb774e21094bf0aa9e5dc0ccd679ef612c35716b5bfdc13ca84600060029054906101000a900473ffffffffffffffffffffffffffffffffffffffff16338660405161051b94939291906116e6565b60405180910390a1600360008561ffff1661ffff1681526020019081526020016000206001015491505092915050565b600080600160009054906101000a900473ffffffffffffffffffffffffffffffffffffffff1673ffffffffffffffffffffffffffffffffffffffff1663feaf968c6040518163ffffffff1660e01b815260040160a060405180830381865afa1580156105bb573d6000803e3d6000fd5b505050506040513d601f19601f820116820180604052508101906105df9190611797565b5050509150508091505090565b60036020528060005260406000206000915090508060000160009054906101000a900461ffff16908060000160029054906101000a900473ffffffffffffffffffffffffffffffffffffffff16908060010154908060020154908060030154908060040154908060050160009054906101000a900460ff16905087565b600061067361054b565b9050600360008361ffff1661ffff168152602001908152602001600020600401548112156106cd576040517ff65ecfbb00000000000000000000000000000000000000000000000000000000815260040160405180910390fd5b6000600560008461ffff1661ffff16815260200190815260200160002060003373ffffffffffffffffffffffffffffffffffffffff1673ffffffffffffffffffffffffffffffffffffffff1681526020019081526020016000206002015490506000600260009054906101000a900473ffffffffffffffffffffffffffffffffffffffff1673ffffffffffffffffffffffffffffffffffffffff166323b872dd3033856040518463ffffffff1660e01b815260040161078e939291906115c5565b6020604051808303816000875af11580156107ad573d6000803e3d6000fd5b505050506040513d601f19601f820116820180604052508101906107d19190611634565b9050801561083b576000600560008661ffff1661ffff16815260200190815260200160002060003373ffffffffffffffffffffffffffffffffffffffff1673ffffffffffffffffffffffffffffffffffffffff168152602001908152602001600020600101819055505b50505050565b610849611009565b610851611009565b600061085b61054b565b905060008560648361086d9190611841565b61087791906118ab565b8261088291906119c2565b905060008054906101000a900461ffff16836000019061ffff16908161ffff1681525050600060029054906101000a900473ffffffffffffffffffffffffffffffffffffffff16836020019073ffffffffffffffffffffffffffffffffffffffff16908173ffffffffffffffffffffffffffffffffffffffff16815250508583606001818152505081836080018181525050808360a0018181525050848360c0019060ff16908160ff168152505082600360008060009054906101000a900461ffff1661ffff1661ffff16815260200190815260200160002060008201518160000160006101000a81548161ffff021916908361ffff16021790555060208201518160000160026101000a81548173ffffffffffffffffffffffffffffffffffffffff021916908373ffffffffffffffffffffffffffffffffffffffff16021790555060408201518160010155606082015181600201556080820151816003015560a0820151816004015560c08201518160050160006101000a81548160ff021916908360ff1602179055509050507f97d6e960f4f13b19399cf9da98eecb8f9d664d58dbf04d8ef7491c83800dd53f60008054906101000a900461ffff16600060029054906101000a900473ffffffffffffffffffffffffffffffffffffffff16338585604051610a78959493929190611a56565b60405180910390a160016000808282829054906101000a900461ffff16610a9f9190611aa9565b92506101000a81548161ffff021916908361ffff16021790555082935050505092915050565b6000600360008461ffff1661ffff168152602001908152602001600020600101549050808263ffffffff161115610b28576040517f4323a55500000000000000000000000000000000000000000000000000000000815260040160405180910390fd5b6000600260009054906101000a900473ffffffffffffffffffffffffffffffffffffffff1673ffffffffffffffffffffffffffffffffffffffff166370a08231336040518263ffffffff1660e01b8152600401610b859190611ae1565b602060405180830381865afa158015610ba2573d6000803e3d6000fd5b505050506040513d601f19601f82011682018060405250810190610bc69190611afc565b90508263ffffffff16811015610c08576040517f5dd3b4d100000000000000000000000000000000000000000000000000000000815260040160405180910390fd5b6000600560008661ffff1661ffff16815260200190815260200160002060003373ffffffffffffffffffffffffffffffffffffffff1673ffffffffffffffffffffffffffffffffffffffff1681526020019081526020016000206001015414610c9d576040517fc5ea839600000000000000000000000000000000000000000000000000000000815260040160405180910390fd5b610ca5611063565b6000610cb7868663ffffffff16610ecd565b90506000610ccb878763ffffffff16610f60565b9050600260009054906101000a900473ffffffffffffffffffffffffffffffffffffffff1673ffffffffffffffffffffffffffffffffffffffff166323b872dd3330856040518463ffffffff1660e01b8152600401610d2c939291906115c5565b6020604051808303816000875af1158015610d4b573d6000803e3d6000fd5b505050506040513d601f19601f82011682018060405250810190610d6f9190611634565b5086836000019061ffff16908161ffff168152505033836020019073ffffffffffffffffffffffffffffffffffffffff16908173ffffffffffffffffffffffffffffffffffffffff16815250508563ffffffff16836040018181525050808360600181815250508183608001818152505082600560008961ffff1661ffff16815260200190815260200160002060003373ffffffffffffffffffffffffffffffffffffffff1673ffffffffffffffffffffffffffffffffffffffff16815260200190815260200160002060008201518160000160006101000a81548161ffff021916908361ffff16021790555060208201518160000160026101000a81548173ffffffffffffffffffffffffffffffffffffffff021916908373ffffffffffffffffffffffffffffffffffffffff16021790555060408201518160010155606082015181600201556080820151816003015590505050505050505050565b600080600360008561ffff1661ffff1681526020019081526020016000206001015490506000600360008661ffff1661ffff16815260200190815260200160002060050160009054906101000a900460ff1660ff16905060008161ffff1683610f369190611b29565b90506000818487610f479190611b29565b610f519190611b29565b90508094505050505092915050565b600080600360008561ffff1661ffff1681526020019081526020016000206002015490506000600360008661ffff1661ffff1681526020019081526020016000206004015490506000818386610fb69190611b29565b610fc09190611b29565b905080935050505092915050565b6040518060600160405280600061ffff168152602001600073ffffffffffffffffffffffffffffffffffffffff168152602001600081525090565b6040518060e00160405280600061ffff168152602001600073ffffffffffffffffffffffffffffffffffffffff16815260200160008152602001600081526020016000815260200160008152602001600060ff1681525090565b6040518060a00160405280600061ffff168152602001600073ffffffffffffffffffffffffffffffffffffffff1681526020016000815260200160008152602001600081525090565b600080fd5b600061ffff82169050919050565b6110c8816110b1565b81146110d357600080fd5b50565b6000813590506110e5816110bf565b92915050565b600073ffffffffffffffffffffffffffffffffffffffff82169050919050565b6000611116826110eb565b9050919050565b6111268161110b565b811461113157600080fd5b50565b6000813590506111438161111d565b92915050565b600080604083850312156111605761115f6110ac565b5b600061116e858286016110d6565b925050602061117f85828601611134565b9150509250929050565b611192816110b1565b82525050565b6111a18161110b565b82525050565b6000819050919050565b6111ba816111a7565b82525050565b600060a0820190506111d56000830188611189565b6111e26020830187611198565b6111ef60408301866111b1565b6111fc60608301856111b1565b61120960808301846111b1565b9695505050505050565b600060208284031215611229576112286110ac565b5b6000611237848285016110d6565b91505092915050565b60006060820190506112556000830186611189565b6112626020830185611198565b61126f60408301846111b1565b949350505050565b611280816111a7565b811461128b57600080fd5b50565b60008135905061129d81611277565b92915050565b600080604083850312156112ba576112b96110ac565b5b60006112c8858286016110d6565b92505060206112d98582860161128e565b9150509250929050565b60006020820190506112f860008301846111b1565b92915050565b6000819050919050565b611311816112fe565b82525050565b600060208201905061132c6000830184611308565b92915050565b600060ff82169050919050565b61134881611332565b82525050565b600060e082019050611363600083018a611189565b6113706020830189611198565b61137d60408301886111b1565b61138a60608301876111b1565b6113976080830186611308565b6113a460a0830185611308565b6113b160c083018461133f565b98975050505050505050565b6113c6816112fe565b81146113d157600080fd5b50565b6000813590506113e3816113bd565b92915050565b6113f281611332565b81146113fd57600080fd5b50565b60008135905061140f816113e9565b92915050565b6000806040838503121561142c5761142b6110ac565b5b600061143a858286016113d4565b925050602061144b85828601611400565b9150509250929050565b61145e816110b1565b82525050565b61146d8161110b565b82525050565b61147c816111a7565b82525050565b61148b816112fe565b82525050565b61149a81611332565b82525050565b60e0820160008201516114b66000850182611455565b5060208201516114c96020850182611464565b5060408201516114dc6040850182611473565b5060608201516114ef6060850182611473565b5060808201516115026080850182611482565b5060a082015161151560a0850182611482565b5060c082015161152860c0850182611491565b50505050565b600060e08201905061154360008301846114a0565b92915050565b600063ffffffff82169050919050565b61156281611549565b811461156d57600080fd5b50565b60008135905061157f81611559565b92915050565b6000806040838503121561159c5761159b6110ac565b5b60006115aa858286016110d6565b92505060206115bb85828601611570565b9150509250929050565b60006060820190506115da6000830186611198565b6115e76020830185611198565b6115f460408301846111b1565b949350505050565b60008115159050919050565b611611816115fc565b811461161c57600080fd5b50565b60008151905061162e81611608565b92915050565b60006020828403121561164a576116496110ac565b5b60006116588482850161161f565b91505092915050565b7f4e487b7100000000000000000000000000000000000000000000000000000000600052601160045260246000fd5b600061169b826111a7565b91506116a6836111a7565b9250827fffffffffffffffffffffffffffffffffffffffffffffffffffffffffffffffff038211156116db576116da611661565b5b828201905092915050565b60006080820190506116fb6000830187611189565b6117086020830186611198565b6117156040830185611198565b61172260608301846111b1565b95945050505050565b600069ffffffffffffffffffff82169050919050565b61174a8161172b565b811461175557600080fd5b50565b60008151905061176781611741565b92915050565b60008151905061177c816113bd565b92915050565b60008151905061179181611277565b92915050565b600080600080600060a086880312156117b3576117b26110ac565b5b60006117c188828901611758565b95505060206117d28882890161176d565b94505060406117e388828901611782565b93505060606117f488828901611782565b925050608061180588828901611758565b9150509295509295909350565b7f4e487b7100000000000000000000000000000000000000000000000000000000600052601260045260246000fd5b600061184c826112fe565b9150611857836112fe565b92508261186757611866611812565b5b600160000383147f8000000000000000000000000000000000000000000000000000000000000000831416156118a05761189f611661565b5b828205905092915050565b60006118b6826112fe565b91506118c1836112fe565b9250827f7fffffffffffffffffffffffffffffffffffffffffffffffffffffffffffffff0482116000841360008413161615611900576118ff611661565b5b817f8000000000000000000000000000000000000000000000000000000000000000058312600084126000841316161561193d5761193c611661565b5b827f8000000000000000000000000000000000000000000000000000000000000000058212600084136000841216161561197a57611979611661565b5b827f7fffffffffffffffffffffffffffffffffffffffffffffffffffffffffffffff05821260008412600084121616156119b7576119b6611661565b5b828202905092915050565b60006119cd826112fe565b91506119d8836112fe565b9250827f800000000000000000000000000000000000000000000000000000000000000001821260008412151615611a1357611a12611661565b5b827f7fffffffffffffffffffffffffffffffffffffffffffffffffffffffffffffff018213600084121615611a4b57611a4a611661565b5b828203905092915050565b600060a082019050611a6b6000830188611189565b611a786020830187611198565b611a856040830186611198565b611a926060830185611308565b611a9f6080830184611308565b9695505050505050565b6000611ab4826110b1565b9150611abf836110b1565b92508261ffff03821115611ad657611ad5611661565b5b828201905092915050565b6000602082019050611af66000830184611198565b92915050565b600060208284031215611b1257611b116110ac565b5b6000611b2084828501611782565b91505092915050565b6000611b34826111a7565b9150611b3f836111a7565b925082611b4f57611b4e611812565b5b82820490509291505056fea2646970667358221220012eeca909b02f76e52fb904d94c1121a72de4da347ad04de0dd31261183715d64736f6c634300080a0033",
  "devdoc": {
    "kind": "dev",
    "methods": {},
    "version": 1
  },
  "userdoc": {
    "kind": "user",
    "methods": {},
    "version": 1
  },
  "storageLayout": {
    "storage": [
      {
        "astId": 135,
        "contract": "contracts/DeltaInsurancePool.sol:DeltaInsurancePool",
        "label": "id",
        "offset": 0,
        "slot": "0",
        "type": "t_uint16"
      },
      {
        "astId": 137,
        "contract": "contracts/DeltaInsurancePool.sol:DeltaInsurancePool",
        "label": "tokenAddress",
        "offset": 2,
        "slot": "0",
        "type": "t_address"
      },
      {
        "astId": 140,
        "contract": "contracts/DeltaInsurancePool.sol:DeltaInsurancePool",
        "label": "priceFeed",
        "offset": 0,
        "slot": "1",
        "type": "t_contract(AggregatorV3Interface)45"
      },
      {
        "astId": 143,
        "contract": "contracts/DeltaInsurancePool.sol:DeltaInsurancePool",
        "label": "insuredToken",
        "offset": 0,
        "slot": "2",
        "type": "t_contract(IERC20)123"
      },
      {
        "astId": 148,
        "contract": "contracts/DeltaInsurancePool.sol:DeltaInsurancePool",
        "label": "poolDataList",
        "offset": 0,
        "slot": "3",
        "type": "t_mapping(t_uint16,t_struct(PoolData)702_storage)"
      },
      {
        "astId": 153,
        "contract": "contracts/DeltaInsurancePool.sol:DeltaInsurancePool",
        "label": "liquiditySupplyList",
        "offset": 0,
        "slot": "4",
        "type": "t_mapping(t_uint16,t_struct(PoolLiquiditySupply)709_storage)"
      },
      {
        "astId": 160,
        "contract": "contracts/DeltaInsurancePool.sol:DeltaInsurancePool",
        "label": "insuranceRequests",
        "offset": 0,
        "slot": "5",
        "type": "t_mapping(t_uint16,t_mapping(t_address,t_struct(InsuranceRequest)720_storage))"
      }
    ],
    "types": {
      "t_address": {
        "encoding": "inplace",
        "label": "address",
        "numberOfBytes": "20"
      },
      "t_contract(AggregatorV3Interface)45": {
        "encoding": "inplace",
        "label": "contract AggregatorV3Interface",
        "numberOfBytes": "20"
      },
      "t_contract(IERC20)123": {
        "encoding": "inplace",
        "label": "contract IERC20",
        "numberOfBytes": "20"
      },
      "t_int256": {
        "encoding": "inplace",
        "label": "int256",
        "numberOfBytes": "32"
      },
      "t_mapping(t_address,t_struct(InsuranceRequest)720_storage)": {
        "encoding": "mapping",
        "key": "t_address",
        "label": "mapping(address => struct DataTypes.InsuranceRequest)",
        "numberOfBytes": "32",
        "value": "t_struct(InsuranceRequest)720_storage"
      },
      "t_mapping(t_uint16,t_mapping(t_address,t_struct(InsuranceRequest)720_storage))": {
        "encoding": "mapping",
        "key": "t_uint16",
        "label": "mapping(uint16 => mapping(address => struct DataTypes.InsuranceRequest))",
        "numberOfBytes": "32",
        "value": "t_mapping(t_address,t_struct(InsuranceRequest)720_storage)"
      },
      "t_mapping(t_uint16,t_struct(PoolData)702_storage)": {
        "encoding": "mapping",
        "key": "t_uint16",
        "label": "mapping(uint16 => struct DataTypes.PoolData)",
        "numberOfBytes": "32",
        "value": "t_struct(PoolData)702_storage"
      },
      "t_mapping(t_uint16,t_struct(PoolLiquiditySupply)709_storage)": {
        "encoding": "mapping",
        "key": "t_uint16",
        "label": "mapping(uint16 => struct DataTypes.PoolLiquiditySupply)",
        "numberOfBytes": "32",
        "value": "t_struct(PoolLiquiditySupply)709_storage"
      },
      "t_struct(InsuranceRequest)720_storage": {
        "encoding": "inplace",
        "label": "struct DataTypes.InsuranceRequest",
        "members": [
          {
            "astId": 711,
            "contract": "contracts/DeltaInsurancePool.sol:DeltaInsurancePool",
            "label": "id",
            "offset": 0,
            "slot": "0",
            "type": "t_uint16"
          },
          {
            "astId": 713,
            "contract": "contracts/DeltaInsurancePool.sol:DeltaInsurancePool",
            "label": "insuranceRequester",
            "offset": 2,
            "slot": "0",
            "type": "t_address"
          },
          {
            "astId": 715,
            "contract": "contracts/DeltaInsurancePool.sol:DeltaInsurancePool",
            "label": "liquidtyToInsure",
            "offset": 0,
            "slot": "1",
            "type": "t_uint256"
          },
          {
            "astId": 717,
            "contract": "contracts/DeltaInsurancePool.sol:DeltaInsurancePool",
            "label": "reimbursementAmount",
            "offset": 0,
            "slot": "2",
            "type": "t_uint256"
          },
          {
            "astId": 719,
            "contract": "contracts/DeltaInsurancePool.sol:DeltaInsurancePool",
            "label": "fee",
            "offset": 0,
            "slot": "3",
            "type": "t_uint256"
          }
        ],
        "numberOfBytes": "128"
      },
      "t_struct(PoolData)702_storage": {
        "encoding": "inplace",
        "label": "struct DataTypes.PoolData",
        "members": [
          {
            "astId": 689,
            "contract": "contracts/DeltaInsurancePool.sol:DeltaInsurancePool",
            "label": "id",
            "offset": 0,
            "slot": "0",
            "type": "t_uint16"
          },
          {
            "astId": 691,
            "contract": "contracts/DeltaInsurancePool.sol:DeltaInsurancePool",
            "label": "tokenAddress",
            "offset": 2,
            "slot": "0",
            "type": "t_address"
          },
          {
            "astId": 693,
            "contract": "contracts/DeltaInsurancePool.sol:DeltaInsurancePool",
            "label": "totalLiquidity",
            "offset": 0,
            "slot": "1",
            "type": "t_uint256"
          },
          {
            "astId": 695,
            "contract": "contracts/DeltaInsurancePool.sol:DeltaInsurancePool",
            "label": "priceLossCover",
            "offset": 0,
            "slot": "2",
            "type": "t_uint256"
          },
          {
            "astId": 697,
            "contract": "contracts/DeltaInsurancePool.sol:DeltaInsurancePool",
            "label": "basePrice",
            "offset": 0,
            "slot": "3",
            "type": "t_int256"
          },
          {
            "astId": 699,
            "contract": "contracts/DeltaInsurancePool.sol:DeltaInsurancePool",
            "label": "insuranceTreshold",
            "offset": 0,
            "slot": "4",
            "type": "t_int256"
          },
          {
            "astId": 701,
            "contract": "contracts/DeltaInsurancePool.sol:DeltaInsurancePool",
            "label": "fee",
            "offset": 0,
            "slot": "5",
            "type": "t_uint8"
          }
        ],
        "numberOfBytes": "192"
      },
      "t_struct(PoolLiquiditySupply)709_storage": {
        "encoding": "inplace",
        "label": "struct DataTypes.PoolLiquiditySupply",
        "members": [
          {
            "astId": 704,
            "contract": "contracts/DeltaInsurancePool.sol:DeltaInsurancePool",
            "label": "id",
            "offset": 0,
            "slot": "0",
            "type": "t_uint16"
          },
          {
            "astId": 706,
            "contract": "contracts/DeltaInsurancePool.sol:DeltaInsurancePool",
            "label": "liquidityProvider",
            "offset": 2,
            "slot": "0",
            "type": "t_address"
          },
          {
            "astId": 708,
            "contract": "contracts/DeltaInsurancePool.sol:DeltaInsurancePool",
            "label": "liquidityAdded",
            "offset": 0,
            "slot": "1",
            "type": "t_uint256"
          }
        ],
        "numberOfBytes": "64"
      },
      "t_uint16": {
        "encoding": "inplace",
        "label": "uint16",
        "numberOfBytes": "2"
      },
      "t_uint256": {
        "encoding": "inplace",
        "label": "uint256",
        "numberOfBytes": "32"
      },
      "t_uint8": {
        "encoding": "inplace",
        "label": "uint8",
        "numberOfBytes": "1"
      }
    }
  }
}