{
  "address": "0x02df3a3F960393F5B349E40A599FEda91a7cc1A7",
  "abi": [
    {
      "inputs": [],
      "stateMutability": "nonpayable",
      "type": "constructor"
    },
    {
      "inputs": [],
      "name": "EndDateEarlierThanStartDate",
      "type": "error"
    },
    {
      "inputs": [],
      "name": "InsuranceAlreadyRequested",
      "type": "error"
    },
    {
      "inputs": [],
      "name": "InsuranceInActivePeriod",
      "type": "error"
    },
    {
      "inputs": [],
      "name": "NotEnoughInsuranceLiquidity",
      "type": "error"
    },
    {
      "inputs": [],
      "name": "NotEnoughTokenBalance",
      "type": "error"
    },
    {
      "inputs": [],
      "name": "PoolIdNotCreated",
      "type": "error"
    },
    {
      "inputs": [],
      "name": "ReimburesementRequirementNotMet",
      "type": "error"
    },
    {
      "anonymous": false,
      "inputs": [
        {
          "indexed": false,
          "internalType": "uint16",
          "name": "poolId",
          "type": "uint16"
        },
        {
          "indexed": false,
          "internalType": "address",
          "name": "tokenAddress",
          "type": "address"
        },
        {
          "indexed": false,
          "internalType": "address",
          "name": "insuranceRequester",
          "type": "address"
        },
        {
          "indexed": false,
          "internalType": "uint256",
          "name": "liquidtyToInsure",
          "type": "uint256"
        },
        {
          "indexed": false,
          "internalType": "uint128",
          "name": "fee",
          "type": "uint128"
        }
      ],
      "name": "InsuranceRequestCreated",
      "type": "event"
    },
    {
      "anonymous": false,
      "inputs": [
        {
          "indexed": false,
          "internalType": "uint16",
          "name": "poolId",
          "type": "uint16"
        },
        {
          "indexed": false,
          "internalType": "address",
          "name": "tokenAddress",
          "type": "address"
        },
        {
          "indexed": false,
          "internalType": "address",
          "name": "owner",
          "type": "address"
        },
        {
          "indexed": false,
          "internalType": "int256",
          "name": "basePrice",
          "type": "int256"
        },
        {
          "indexed": false,
          "internalType": "int256",
          "name": "tresholdPrice",
          "type": "int256"
        },
        {
          "indexed": false,
          "internalType": "uint8",
          "name": "fee",
          "type": "uint8"
        },
        {
          "indexed": false,
          "internalType": "uint256",
          "name": "startDate",
          "type": "uint256"
        },
        {
          "indexed": false,
          "internalType": "uint256",
          "name": "endDate",
          "type": "uint256"
        }
      ],
      "name": "PoolCreated",
      "type": "event"
    },
    {
      "anonymous": false,
      "inputs": [
        {
          "indexed": false,
          "internalType": "uint16",
          "name": "poolId",
          "type": "uint16"
        },
        {
          "indexed": false,
          "internalType": "address",
          "name": "liquidityProvider",
          "type": "address"
        },
        {
          "indexed": false,
          "internalType": "uint256",
          "name": "liquidityAdded",
          "type": "uint256"
        }
      ],
      "name": "PoolLiquidityAdded",
      "type": "event"
    },
    {
      "inputs": [],
      "name": "id",
      "outputs": [
        {
          "internalType": "uint16",
          "name": "",
          "type": "uint16"
        }
      ],
      "stateMutability": "view",
      "type": "function"
    },
    {
      "inputs": [
        {
          "internalType": "address",
          "name": "_tokenAddress",
          "type": "address"
        },
        {
          "internalType": "address",
          "name": "_priceFeed",
          "type": "address"
        },
        {
          "internalType": "int256",
          "name": "_insuranceLossCoverage",
          "type": "int256"
        },
        {
          "internalType": "uint8",
          "name": "_fee",
          "type": "uint8"
        },
        {
          "internalType": "uint256",
          "name": "_startDateFromDeployInSeconds",
          "type": "uint256"
        },
        {
          "internalType": "uint256",
          "name": "_endDateFromDeployInSeconds",
          "type": "uint256"
        }
      ],
      "name": "initPool",
      "outputs": [
        {
          "components": [
            {
              "internalType": "uint16",
              "name": "id",
              "type": "uint16"
            },
            {
              "internalType": "address",
              "name": "tokenAddress",
              "type": "address"
            },
            {
              "internalType": "uint256",
              "name": "totalLiquidity",
              "type": "uint256"
            },
            {
              "internalType": "uint256",
              "name": "priceLossCover",
              "type": "uint256"
            },
            {
              "internalType": "int256",
              "name": "basePrice",
              "type": "int256"
            },
            {
              "internalType": "int256",
              "name": "insuranceTreshold",
              "type": "int256"
            },
            {
              "internalType": "uint8",
              "name": "fee",
              "type": "uint8"
            },
            {
              "internalType": "uint256",
              "name": "startDate",
              "type": "uint256"
            },
            {
              "internalType": "uint256",
              "name": "endDate",
              "type": "uint256"
            }
          ],
          "internalType": "struct DataTypes.PoolData",
          "name": "",
          "type": "tuple"
        }
      ],
      "stateMutability": "nonpayable",
      "type": "function"
    },
    {
      "inputs": [
        {
          "internalType": "uint16",
          "name": "",
          "type": "uint16"
        },
        {
          "internalType": "address",
          "name": "",
          "type": "address"
        }
      ],
      "name": "insuranceRequests",
      "outputs": [
        {
          "internalType": "uint16",
          "name": "id",
          "type": "uint16"
        },
        {
          "internalType": "address",
          "name": "insuranceRequester",
          "type": "address"
        },
        {
          "internalType": "uint256",
          "name": "liquidtyToInsure",
          "type": "uint256"
        },
        {
          "internalType": "uint256",
          "name": "reimbursementAmount",
          "type": "uint256"
        },
        {
          "internalType": "uint256",
          "name": "fee",
          "type": "uint256"
        }
      ],
      "stateMutability": "view",
      "type": "function"
    },
    {
      "inputs": [
        {
          "internalType": "uint16",
          "name": "",
          "type": "uint16"
        }
      ],
      "name": "liquiditySupplyList",
      "outputs": [
        {
          "internalType": "uint16",
          "name": "id",
          "type": "uint16"
        },
        {
          "internalType": "address",
          "name": "liquidityProvider",
          "type": "address"
        },
        {
          "internalType": "uint256",
          "name": "liquidityAdded",
          "type": "uint256"
        }
      ],
      "stateMutability": "view",
      "type": "function"
    },
    {
      "inputs": [
        {
          "internalType": "uint16",
          "name": "",
          "type": "uint16"
        }
      ],
      "name": "poolDataList",
      "outputs": [
        {
          "internalType": "uint16",
          "name": "id",
          "type": "uint16"
        },
        {
          "internalType": "address",
          "name": "tokenAddress",
          "type": "address"
        },
        {
          "internalType": "uint256",
          "name": "totalLiquidity",
          "type": "uint256"
        },
        {
          "internalType": "uint256",
          "name": "priceLossCover",
          "type": "uint256"
        },
        {
          "internalType": "int256",
          "name": "basePrice",
          "type": "int256"
        },
        {
          "internalType": "int256",
          "name": "insuranceTreshold",
          "type": "int256"
        },
        {
          "internalType": "uint8",
          "name": "fee",
          "type": "uint8"
        },
        {
          "internalType": "uint256",
          "name": "startDate",
          "type": "uint256"
        },
        {
          "internalType": "uint256",
          "name": "endDate",
          "type": "uint256"
        }
      ],
      "stateMutability": "view",
      "type": "function"
    },
    {
      "inputs": [
        {
          "internalType": "uint16",
          "name": "_id",
          "type": "uint16"
        },
        {
          "internalType": "uint256",
          "name": "_amount",
          "type": "uint256"
        }
      ],
      "name": "requestInsurance",
      "outputs": [],
      "stateMutability": "nonpayable",
      "type": "function"
    },
    {
      "inputs": [
        {
          "internalType": "uint16",
          "name": "_id",
          "type": "uint16"
        }
      ],
      "name": "requestReimbursement",
      "outputs": [],
      "stateMutability": "nonpayable",
      "type": "function"
    },
    {
      "inputs": [
        {
          "internalType": "uint16",
          "name": "_id",
          "type": "uint16"
        },
        {
          "internalType": "uint256",
          "name": "_amount",
          "type": "uint256"
        }
      ],
      "name": "supplyPool",
      "outputs": [
        {
          "internalType": "uint256",
          "name": "",
          "type": "uint256"
        }
      ],
      "stateMutability": "nonpayable",
      "type": "function"
    }
  ],
  "transactionHash": "0xa4a129f0259f23dedcb769f749d0592575851db76de061967592f8d56858cc77",
  "args": [],
  "numDeployments": 1,
  "solcInputHash": "08c0b9dd9673c35bab59ed8c5d18afc8",
  "bytecode": "0x608060405234801561001057600080fd5b5060008060006101000a81548161ffff021916908361ffff160217905550611eb98061003d6000396000f3fe608060405234801561001057600080fd5b50600436106100885760003560e01c806382c804dd1161005b57806382c804dd14610153578063af640d0f1461016f578063b307fc751461018d578063dca5ed48146101c557610088565b80631f563bfd1461008d5780635fae9b92146100bd57806363624107146100f15780637bbece7514610123575b600080fd5b6100a760048036038101906100a29190611484565b6101e1565b6040516100b49190611621565b60405180910390f35b6100d760048036038101906100d29190611669565b6105cf565b6040516100e89594939291906116d6565b60405180910390f35b61010b60048036038101906101069190611729565b610640565b60405161011a93929190611756565b60405180910390f35b61013d6004803603810190610138919061178d565b610698565b60405161014a91906117cd565b60405180910390f35b61016d6004803603810190610168919061178d565b61096e565b005b610177610daf565b60405161018491906117e8565b60405180910390f35b6101a760048036038101906101a29190611729565b610dc1565b6040516101bc99989796959493929190611821565b60405180910390f35b6101df60048036038101906101da9190611729565b610e4a565b005b6101e961128f565b85600160006101000a81548173ffffffffffffffffffffffffffffffffffffffff021916908373ffffffffffffffffffffffffffffffffffffffff16021790555086600260006101000a81548173ffffffffffffffffffffffffffffffffffffffff021916908373ffffffffffffffffffffffffffffffffffffffff16021790555086600060026101000a81548173ffffffffffffffffffffffffffffffffffffffff021916908373ffffffffffffffffffffffffffffffffffffffff16021790555060006001846102bb91906118dd565b426102c69190611937565b905060006001846102d791906118dd565b426102e29190611937565b905081811161031d576040517f14cc095100000000000000000000000000000000000000000000000000000000815260040160405180910390fd5b61032561128f565b600061032f6110d1565b905060008960648361034191906119bc565b61034b9190611a26565b826103569190611b3d565b905060008054906101000a900461ffff16836000019061ffff16908161ffff1681525050600060029054906101000a900473ffffffffffffffffffffffffffffffffffffffff16836020019073ffffffffffffffffffffffffffffffffffffffff16908173ffffffffffffffffffffffffffffffffffffffff16815250508983606001818152505081836080018181525050808360a0018181525050888360c0019060ff16908160ff1681525050848360e0018181525050838361010001818152505082600360008060009054906101000a900461ffff1661ffff1661ffff16815260200190815260200160002060008201518160000160006101000a81548161ffff021916908361ffff16021790555060208201518160000160026101000a81548173ffffffffffffffffffffffffffffffffffffffff021916908373ffffffffffffffffffffffffffffffffffffffff16021790555060408201518160010155606082015181600201556080820151816003015560a0820151816004015560c08201518160050160006101000a81548160ff021916908360ff16021790555060e0820151816006015561010082015181600701559050507f659ebddaafcb3ad3be42ebd12af06f8e454388f4ee17482e82212e2abffcbc2f60008054906101000a900461ffff16600060029054906101000a900473ffffffffffffffffffffffffffffffffffffffff163385858e8b8b60405161057c989796959493929190611bd1565b60405180910390a160016000808282829054906101000a900461ffff166105a39190611c4f565b92506101000a81548161ffff021916908361ffff16021790555082955050505050509695505050505050565b6005602052816000526040600020602052806000526040600020600091509150508060000160009054906101000a900461ffff16908060000160029054906101000a900473ffffffffffffffffffffffffffffffffffffffff16908060010154908060020154908060030154905085565b60046020528060005260406000206000915090508060000160009054906101000a900461ffff16908060000160029054906101000a900473ffffffffffffffffffffffffffffffffffffffff16908060010154905083565b60008060009054906101000a900461ffff1661ffff168361ffff1611156106eb576040517ff23f6c1500000000000000000000000000000000000000000000000000000000815260040160405180910390fd5b600360008461ffff1661ffff168152602001908152602001600020600601544210610742576040517fdb589d0800000000000000000000000000000000000000000000000000000000815260040160405180910390fd5b61074a6112f8565b600260009054906101000a900473ffffffffffffffffffffffffffffffffffffffff1673ffffffffffffffffffffffffffffffffffffffff166323b872dd3330866040518463ffffffff1660e01b81526004016107a993929190611c87565b6020604051808303816000875af11580156107c8573d6000803e3d6000fd5b505050506040513d601f19601f820116820180604052508101906107ec9190611cf6565b5082600360008661ffff1661ffff168152602001908152602001600020600101600082825461081b9190611937565b9250508190555083816000019061ffff16908161ffff168152505033816020019073ffffffffffffffffffffffffffffffffffffffff16908173ffffffffffffffffffffffffffffffffffffffff16815250508281604001818152505080600460008661ffff1661ffff16815260200190815260200160002060008201518160000160006101000a81548161ffff021916908361ffff16021790555060208201518160000160026101000a81548173ffffffffffffffffffffffffffffffffffffffff021916908373ffffffffffffffffffffffffffffffffffffffff160217905550604082015181600101559050507fb59fb6b7f81c4b116222f2e6feea340f3ce6818a0a6870b31e0019b24396d8db84338560405161093e93929190611756565b60405180910390a1600360008561ffff1661ffff1681526020019081526020016000206001015491505092915050565b6000600360008461ffff1661ffff168152602001908152602001600020600101549050600360008461ffff1661ffff1681526020019081526020016000206006015442106109e8576040517fdb589d0800000000000000000000000000000000000000000000000000000000815260040160405180910390fd5b6000600260009054906101000a900473ffffffffffffffffffffffffffffffffffffffff1673ffffffffffffffffffffffffffffffffffffffff166370a08231336040518263ffffffff1660e01b8152600401610a459190611d23565b602060405180830381865afa158015610a62573d6000803e3d6000fd5b505050506040513d601f19601f82011682018060405250810190610a869190611d53565b905082811015610ac2576040517f5dd3b4d100000000000000000000000000000000000000000000000000000000815260040160405180910390fd5b6000600560008661ffff1661ffff16815260200190815260200160002060003373ffffffffffffffffffffffffffffffffffffffff1673ffffffffffffffffffffffffffffffffffffffff1681526020019081526020016000206001015414610b57576040517fc5ea839600000000000000000000000000000000000000000000000000000000815260040160405180910390fd5b610b5f611333565b6000610b6b8686611172565b90506000610b798787611211565b905084811115610bb5576040517f3f735c4f00000000000000000000000000000000000000000000000000000000815260040160405180910390fd5b600260009054906101000a900473ffffffffffffffffffffffffffffffffffffffff1673ffffffffffffffffffffffffffffffffffffffff166323b872dd3330856040518463ffffffff1660e01b8152600401610c1493929190611c87565b6020604051808303816000875af1158015610c33573d6000803e3d6000fd5b505050506040513d601f19601f82011682018060405250810190610c579190611cf6565b5086836000019061ffff16908161ffff168152505033836020019073ffffffffffffffffffffffffffffffffffffffff16908173ffffffffffffffffffffffffffffffffffffffff168152505085836040018181525050808360600181815250508183608001818152505082600560008961ffff1661ffff16815260200190815260200160002060003373ffffffffffffffffffffffffffffffffffffffff1673ffffffffffffffffffffffffffffffffffffffff16815260200190815260200160002060008201518160000160006101000a81548161ffff021916908361ffff16021790555060208201518160000160026101000a81548173ffffffffffffffffffffffffffffffffffffffff021916908373ffffffffffffffffffffffffffffffffffffffff16021790555060408201518160010155606082015181600201556080820151816003015590505050505050505050565b60008054906101000a900461ffff1681565b60036020528060005260406000206000915090508060000160009054906101000a900461ffff16908060000160029054906101000a900473ffffffffffffffffffffffffffffffffffffffff16908060010154908060020154908060030154908060040154908060050160009054906101000a900460ff16908060060154908060070154905089565b600360008261ffff1661ffff168152602001908152602001600020600601544211610ea1576040517fdb589d0800000000000000000000000000000000000000000000000000000000815260040160405180910390fd5b600360008261ffff1661ffff16815260200190815260200160002060070154421115610ef9576040517fdb589d0800000000000000000000000000000000000000000000000000000000815260040160405180910390fd5b6000610f036110d1565b9050600360008361ffff1661ffff16815260200190815260200160002060040154811315610f5d576040517ff65ecfbb00000000000000000000000000000000000000000000000000000000815260040160405180910390fd5b6000600560008461ffff1661ffff16815260200190815260200160002060003373ffffffffffffffffffffffffffffffffffffffff1673ffffffffffffffffffffffffffffffffffffffff1681526020019081526020016000206002015490506000600260009054906101000a900473ffffffffffffffffffffffffffffffffffffffff1673ffffffffffffffffffffffffffffffffffffffff166323b872dd3033856040518463ffffffff1660e01b815260040161101e93929190611c87565b6020604051808303816000875af115801561103d573d6000803e3d6000fd5b505050506040513d601f19601f820116820180604052508101906110619190611cf6565b905080156110cb576000600560008661ffff1661ffff16815260200190815260200160002060003373ffffffffffffffffffffffffffffffffffffffff1673ffffffffffffffffffffffffffffffffffffffff168152602001908152602001600020600101819055505b50505050565b600080600160009054906101000a900473ffffffffffffffffffffffffffffffffffffffff1673ffffffffffffffffffffffffffffffffffffffff1663feaf968c6040518163ffffffff1660e01b815260040160a060405180830381865afa158015611141573d6000803e3d6000fd5b505050506040513d601f19601f820116820180604052508101906111659190611dd7565b5050509150508091505090565b600080600360008561ffff1661ffff1681526020019081526020016000206001015490506000600360008661ffff1661ffff16815260200190815260200160002060050160009054906101000a900460ff1660ff169050600060648261ffff16846111dd91906118dd565b6111e79190611e52565b905060008382876111f891906118dd565b6112029190611e52565b90508094505050505092915050565b600080600360008561ffff1661ffff1681526020019081526020016000206002015490506000600360008661ffff1661ffff16815260200190815260200160002060040154905060006402540be40082848761126d9190611e52565b6112779190611e52565b61128191906118dd565b905080935050505092915050565b604051806101200160405280600061ffff168152602001600073ffffffffffffffffffffffffffffffffffffffff16815260200160008152602001600081526020016000815260200160008152602001600060ff16815260200160008152602001600081525090565b6040518060600160405280600061ffff168152602001600073ffffffffffffffffffffffffffffffffffffffff168152602001600081525090565b6040518060a00160405280600061ffff168152602001600073ffffffffffffffffffffffffffffffffffffffff1681526020016000815260200160008152602001600081525090565b600080fd5b600073ffffffffffffffffffffffffffffffffffffffff82169050919050565b60006113ac82611381565b9050919050565b6113bc816113a1565b81146113c757600080fd5b50565b6000813590506113d9816113b3565b92915050565b6000819050919050565b6113f2816113df565b81146113fd57600080fd5b50565b60008135905061140f816113e9565b92915050565b600060ff82169050919050565b61142b81611415565b811461143657600080fd5b50565b60008135905061144881611422565b92915050565b6000819050919050565b6114618161144e565b811461146c57600080fd5b50565b60008135905061147e81611458565b92915050565b60008060008060008060c087890312156114a1576114a061137c565b5b60006114af89828a016113ca565b96505060206114c089828a016113ca565b95505060406114d189828a01611400565b94505060606114e289828a01611439565b93505060806114f389828a0161146f565b92505060a061150489828a0161146f565b9150509295509295509295565b600061ffff82169050919050565b61152881611511565b82525050565b611537816113a1565b82525050565b6115468161144e565b82525050565b611555816113df565b82525050565b61156481611415565b82525050565b61012082016000820151611581600085018261151f565b506020820151611594602085018261152e565b5060408201516115a7604085018261153d565b5060608201516115ba606085018261153d565b5060808201516115cd608085018261154c565b5060a08201516115e060a085018261154c565b5060c08201516115f360c085018261155b565b5060e082015161160660e085018261153d565b5061010082015161161b61010085018261153d565b50505050565b600061012082019050611637600083018461156a565b92915050565b61164681611511565b811461165157600080fd5b50565b6000813590506116638161163d565b92915050565b600080604083850312156116805761167f61137c565b5b600061168e85828601611654565b925050602061169f858286016113ca565b9150509250929050565b6116b281611511565b82525050565b6116c1816113a1565b82525050565b6116d08161144e565b82525050565b600060a0820190506116eb60008301886116a9565b6116f860208301876116b8565b61170560408301866116c7565b61171260608301856116c7565b61171f60808301846116c7565b9695505050505050565b60006020828403121561173f5761173e61137c565b5b600061174d84828501611654565b91505092915050565b600060608201905061176b60008301866116a9565b61177860208301856116b8565b61178560408301846116c7565b949350505050565b600080604083850312156117a4576117a361137c565b5b60006117b285828601611654565b92505060206117c38582860161146f565b9150509250929050565b60006020820190506117e260008301846116c7565b92915050565b60006020820190506117fd60008301846116a9565b92915050565b61180c816113df565b82525050565b61181b81611415565b82525050565b600061012082019050611837600083018c6116a9565b611844602083018b6116b8565b611851604083018a6116c7565b61185e60608301896116c7565b61186b6080830188611803565b61187860a0830187611803565b61188560c0830186611812565b61189260e08301856116c7565b6118a06101008301846116c7565b9a9950505050505050505050565b7f4e487b7100000000000000000000000000000000000000000000000000000000600052601160045260246000fd5b60006118e88261144e565b91506118f38361144e565b9250817fffffffffffffffffffffffffffffffffffffffffffffffffffffffffffffffff048311821515161561192c5761192b6118ae565b5b828202905092915050565b60006119428261144e565b915061194d8361144e565b9250827fffffffffffffffffffffffffffffffffffffffffffffffffffffffffffffffff03821115611982576119816118ae565b5b828201905092915050565b7f4e487b7100000000000000000000000000000000000000000000000000000000600052601260045260246000fd5b60006119c7826113df565b91506119d2836113df565b9250826119e2576119e161198d565b5b600160000383147f800000000000000000000000000000000000000000000000000000000000000083141615611a1b57611a1a6118ae565b5b828205905092915050565b6000611a31826113df565b9150611a3c836113df565b9250827f7fffffffffffffffffffffffffffffffffffffffffffffffffffffffffffffff0482116000841360008413161615611a7b57611a7a6118ae565b5b817f80000000000000000000000000000000000000000000000000000000000000000583126000841260008413161615611ab857611ab76118ae565b5b827f80000000000000000000000000000000000000000000000000000000000000000582126000841360008412161615611af557611af46118ae565b5b827f7fffffffffffffffffffffffffffffffffffffffffffffffffffffffffffffff0582126000841260008412161615611b3257611b316118ae565b5b828202905092915050565b6000611b48826113df565b9150611b53836113df565b9250827f800000000000000000000000000000000000000000000000000000000000000001821260008412151615611b8e57611b8d6118ae565b5b827f7fffffffffffffffffffffffffffffffffffffffffffffffffffffffffffffff018213600084121615611bc657611bc56118ae565b5b828203905092915050565b600061010082019050611be7600083018b6116a9565b611bf4602083018a6116b8565b611c0160408301896116b8565b611c0e6060830188611803565b611c1b6080830187611803565b611c2860a0830186611812565b611c3560c08301856116c7565b611c4260e08301846116c7565b9998505050505050505050565b6000611c5a82611511565b9150611c6583611511565b92508261ffff03821115611c7c57611c7b6118ae565b5b828201905092915050565b6000606082019050611c9c60008301866116b8565b611ca960208301856116b8565b611cb660408301846116c7565b949350505050565b60008115159050919050565b611cd381611cbe565b8114611cde57600080fd5b50565b600081519050611cf081611cca565b92915050565b600060208284031215611d0c57611d0b61137c565b5b6000611d1a84828501611ce1565b91505092915050565b6000602082019050611d3860008301846116b8565b92915050565b600081519050611d4d81611458565b92915050565b600060208284031215611d6957611d6861137c565b5b6000611d7784828501611d3e565b91505092915050565b600069ffffffffffffffffffff82169050919050565b611d9f81611d80565b8114611daa57600080fd5b50565b600081519050611dbc81611d96565b92915050565b600081519050611dd1816113e9565b92915050565b600080600080600060a08688031215611df357611df261137c565b5b6000611e0188828901611dad565b9550506020611e1288828901611dc2565b9450506040611e2388828901611d3e565b9350506060611e3488828901611d3e565b9250506080611e4588828901611dad565b9150509295509295909350565b6000611e5d8261144e565b9150611e688361144e565b925082611e7857611e7761198d565b5b82820490509291505056fea2646970667358221220127a300f6a35ba3305f446394404fe470a188bba238a5bf9677ca511b0e7a8bb64736f6c634300080a0033",
  "devdoc": {
    "kind": "dev",
    "methods": {},
    "version": 1
  },
  "userdoc": {
    "kind": "user",
    "methods": {},
    "version": 1
  },
  "storageLayout": {
    "storage": [
      {
        "astId": 134,
        "contract": "contracts/MacInsuranceMain.sol:MacInsuranceMain",
        "label": "id",
        "offset": 0,
        "slot": "0",
        "type": "t_uint16"
      },
      {
        "astId": 136,
        "contract": "contracts/MacInsuranceMain.sol:MacInsuranceMain",
        "label": "tokenAddress",
        "offset": 2,
        "slot": "0",
        "type": "t_address"
      },
      {
        "astId": 139,
        "contract": "contracts/MacInsuranceMain.sol:MacInsuranceMain",
        "label": "priceFeed",
        "offset": 0,
        "slot": "1",
        "type": "t_contract(AggregatorV3Interface)45"
      },
      {
        "astId": 142,
        "contract": "contracts/MacInsuranceMain.sol:MacInsuranceMain",
        "label": "insuredToken",
        "offset": 0,
        "slot": "2",
        "type": "t_contract(IERC20)123"
      },
      {
        "astId": 147,
        "contract": "contracts/MacInsuranceMain.sol:MacInsuranceMain",
        "label": "poolDataList",
        "offset": 0,
        "slot": "3",
        "type": "t_mapping(t_uint16,t_struct(PoolData)822_storage)"
      },
      {
        "astId": 152,
        "contract": "contracts/MacInsuranceMain.sol:MacInsuranceMain",
        "label": "liquiditySupplyList",
        "offset": 0,
        "slot": "4",
        "type": "t_mapping(t_uint16,t_struct(PoolLiquiditySupply)829_storage)"
      },
      {
        "astId": 159,
        "contract": "contracts/MacInsuranceMain.sol:MacInsuranceMain",
        "label": "insuranceRequests",
        "offset": 0,
        "slot": "5",
        "type": "t_mapping(t_uint16,t_mapping(t_address,t_struct(InsuranceRequest)840_storage))"
      }
    ],
    "types": {
      "t_address": {
        "encoding": "inplace",
        "label": "address",
        "numberOfBytes": "20"
      },
      "t_contract(AggregatorV3Interface)45": {
        "encoding": "inplace",
        "label": "contract AggregatorV3Interface",
        "numberOfBytes": "20"
      },
      "t_contract(IERC20)123": {
        "encoding": "inplace",
        "label": "contract IERC20",
        "numberOfBytes": "20"
      },
      "t_int256": {
        "encoding": "inplace",
        "label": "int256",
        "numberOfBytes": "32"
      },
      "t_mapping(t_address,t_struct(InsuranceRequest)840_storage)": {
        "encoding": "mapping",
        "key": "t_address",
        "label": "mapping(address => struct DataTypes.InsuranceRequest)",
        "numberOfBytes": "32",
        "value": "t_struct(InsuranceRequest)840_storage"
      },
      "t_mapping(t_uint16,t_mapping(t_address,t_struct(InsuranceRequest)840_storage))": {
        "encoding": "mapping",
        "key": "t_uint16",
        "label": "mapping(uint16 => mapping(address => struct DataTypes.InsuranceRequest))",
        "numberOfBytes": "32",
        "value": "t_mapping(t_address,t_struct(InsuranceRequest)840_storage)"
      },
      "t_mapping(t_uint16,t_struct(PoolData)822_storage)": {
        "encoding": "mapping",
        "key": "t_uint16",
        "label": "mapping(uint16 => struct DataTypes.PoolData)",
        "numberOfBytes": "32",
        "value": "t_struct(PoolData)822_storage"
      },
      "t_mapping(t_uint16,t_struct(PoolLiquiditySupply)829_storage)": {
        "encoding": "mapping",
        "key": "t_uint16",
        "label": "mapping(uint16 => struct DataTypes.PoolLiquiditySupply)",
        "numberOfBytes": "32",
        "value": "t_struct(PoolLiquiditySupply)829_storage"
      },
      "t_struct(InsuranceRequest)840_storage": {
        "encoding": "inplace",
        "label": "struct DataTypes.InsuranceRequest",
        "members": [
          {
            "astId": 831,
            "contract": "contracts/MacInsuranceMain.sol:MacInsuranceMain",
            "label": "id",
            "offset": 0,
            "slot": "0",
            "type": "t_uint16"
          },
          {
            "astId": 833,
            "contract": "contracts/MacInsuranceMain.sol:MacInsuranceMain",
            "label": "insuranceRequester",
            "offset": 2,
            "slot": "0",
            "type": "t_address"
          },
          {
            "astId": 835,
            "contract": "contracts/MacInsuranceMain.sol:MacInsuranceMain",
            "label": "liquidtyToInsure",
            "offset": 0,
            "slot": "1",
            "type": "t_uint256"
          },
          {
            "astId": 837,
            "contract": "contracts/MacInsuranceMain.sol:MacInsuranceMain",
            "label": "reimbursementAmount",
            "offset": 0,
            "slot": "2",
            "type": "t_uint256"
          },
          {
            "astId": 839,
            "contract": "contracts/MacInsuranceMain.sol:MacInsuranceMain",
            "label": "fee",
            "offset": 0,
            "slot": "3",
            "type": "t_uint256"
          }
        ],
        "numberOfBytes": "128"
      },
      "t_struct(PoolData)822_storage": {
        "encoding": "inplace",
        "label": "struct DataTypes.PoolData",
        "members": [
          {
            "astId": 805,
            "contract": "contracts/MacInsuranceMain.sol:MacInsuranceMain",
            "label": "id",
            "offset": 0,
            "slot": "0",
            "type": "t_uint16"
          },
          {
            "astId": 807,
            "contract": "contracts/MacInsuranceMain.sol:MacInsuranceMain",
            "label": "tokenAddress",
            "offset": 2,
            "slot": "0",
            "type": "t_address"
          },
          {
            "astId": 809,
            "contract": "contracts/MacInsuranceMain.sol:MacInsuranceMain",
            "label": "totalLiquidity",
            "offset": 0,
            "slot": "1",
            "type": "t_uint256"
          },
          {
            "astId": 811,
            "contract": "contracts/MacInsuranceMain.sol:MacInsuranceMain",
            "label": "priceLossCover",
            "offset": 0,
            "slot": "2",
            "type": "t_uint256"
          },
          {
            "astId": 813,
            "contract": "contracts/MacInsuranceMain.sol:MacInsuranceMain",
            "label": "basePrice",
            "offset": 0,
            "slot": "3",
            "type": "t_int256"
          },
          {
            "astId": 815,
            "contract": "contracts/MacInsuranceMain.sol:MacInsuranceMain",
            "label": "insuranceTreshold",
            "offset": 0,
            "slot": "4",
            "type": "t_int256"
          },
          {
            "astId": 817,
            "contract": "contracts/MacInsuranceMain.sol:MacInsuranceMain",
            "label": "fee",
            "offset": 0,
            "slot": "5",
            "type": "t_uint8"
          },
          {
            "astId": 819,
            "contract": "contracts/MacInsuranceMain.sol:MacInsuranceMain",
            "label": "startDate",
            "offset": 0,
            "slot": "6",
            "type": "t_uint256"
          },
          {
            "astId": 821,
            "contract": "contracts/MacInsuranceMain.sol:MacInsuranceMain",
            "label": "endDate",
            "offset": 0,
            "slot": "7",
            "type": "t_uint256"
          }
        ],
        "numberOfBytes": "256"
      },
      "t_struct(PoolLiquiditySupply)829_storage": {
        "encoding": "inplace",
        "label": "struct DataTypes.PoolLiquiditySupply",
        "members": [
          {
            "astId": 824,
            "contract": "contracts/MacInsuranceMain.sol:MacInsuranceMain",
            "label": "id",
            "offset": 0,
            "slot": "0",
            "type": "t_uint16"
          },
          {
            "astId": 826,
            "contract": "contracts/MacInsuranceMain.sol:MacInsuranceMain",
            "label": "liquidityProvider",
            "offset": 2,
            "slot": "0",
            "type": "t_address"
          },
          {
            "astId": 828,
            "contract": "contracts/MacInsuranceMain.sol:MacInsuranceMain",
            "label": "liquidityAdded",
            "offset": 0,
            "slot": "1",
            "type": "t_uint256"
          }
        ],
        "numberOfBytes": "64"
      },
      "t_uint16": {
        "encoding": "inplace",
        "label": "uint16",
        "numberOfBytes": "2"
      },
      "t_uint256": {
        "encoding": "inplace",
        "label": "uint256",
        "numberOfBytes": "32"
      },
      "t_uint8": {
        "encoding": "inplace",
        "label": "uint8",
        "numberOfBytes": "1"
      }
    }
  }
}