{
  "address": "0x02df3a3F960393F5B349E40A599FEda91a7cc1A7",
  "abi": [
    {
      "inputs": [],
      "stateMutability": "nonpayable",
      "type": "constructor"
    },
    {
      "inputs": [],
      "name": "EndDateEarlierThanStartDate",
      "type": "error"
    },
    {
      "inputs": [],
      "name": "InsuranceAlreadyRequested",
      "type": "error"
    },
    {
      "inputs": [],
      "name": "InsuranceInActivePeriod",
      "type": "error"
    },
    {
      "inputs": [],
      "name": "NotEnoughLiquidity",
      "type": "error"
    },
    {
      "inputs": [],
      "name": "NotEnoughTokenBalance",
      "type": "error"
    },
    {
      "inputs": [],
      "name": "PoolIdNotCreated",
      "type": "error"
    },
    {
      "inputs": [],
      "name": "ReimburesementRequirementNotMet",
      "type": "error"
    },
    {
      "anonymous": false,
      "inputs": [
        {
          "indexed": false,
          "internalType": "uint16",
          "name": "poolId",
          "type": "uint16"
        },
        {
          "indexed": false,
          "internalType": "address",
          "name": "tokenAddress",
          "type": "address"
        },
        {
          "indexed": false,
          "internalType": "address",
          "name": "insuranceRequester",
          "type": "address"
        },
        {
          "indexed": false,
          "internalType": "uint256",
          "name": "liquidtyToInsure",
          "type": "uint256"
        },
        {
          "indexed": false,
          "internalType": "uint128",
          "name": "fee",
          "type": "uint128"
        }
      ],
      "name": "InsuranceRequestCreated",
      "type": "event"
    },
    {
      "anonymous": false,
      "inputs": [
        {
          "indexed": false,
          "internalType": "uint16",
          "name": "poolId",
          "type": "uint16"
        },
        {
          "indexed": false,
          "internalType": "address",
          "name": "tokenAddress",
          "type": "address"
        },
        {
          "indexed": false,
          "internalType": "address",
          "name": "owner",
          "type": "address"
        },
        {
          "indexed": false,
          "internalType": "int256",
          "name": "basePrice",
          "type": "int256"
        },
        {
          "indexed": false,
          "internalType": "int256",
          "name": "tresholdPrice",
          "type": "int256"
        },
        {
          "indexed": false,
          "internalType": "uint8",
          "name": "fee",
          "type": "uint8"
        },
        {
          "indexed": false,
          "internalType": "uint256",
          "name": "startDate",
          "type": "uint256"
        },
        {
          "indexed": false,
          "internalType": "uint256",
          "name": "endDate",
          "type": "uint256"
        }
      ],
      "name": "PoolCreated",
      "type": "event"
    },
    {
      "anonymous": false,
      "inputs": [
        {
          "indexed": false,
          "internalType": "uint16",
          "name": "poolId",
          "type": "uint16"
        },
        {
          "indexed": false,
          "internalType": "address",
          "name": "liquidityProvider",
          "type": "address"
        },
        {
          "indexed": false,
          "internalType": "uint256",
          "name": "liquidityAdded",
          "type": "uint256"
        }
      ],
      "name": "PoolLiquidityAdded",
      "type": "event"
    },
    {
      "inputs": [],
      "name": "id",
      "outputs": [
        {
          "internalType": "uint16",
          "name": "",
          "type": "uint16"
        }
      ],
      "stateMutability": "view",
      "type": "function"
    },
    {
      "inputs": [
        {
          "internalType": "address",
          "name": "_tokenAddress",
          "type": "address"
        },
        {
          "internalType": "address",
          "name": "_priceFeed",
          "type": "address"
        },
        {
          "internalType": "int256",
          "name": "_insuranceLossCoverage",
          "type": "int256"
        },
        {
          "internalType": "uint8",
          "name": "_fee",
          "type": "uint8"
        },
        {
          "internalType": "uint32",
          "name": "_startDateFromDeployInDays",
          "type": "uint32"
        },
        {
          "internalType": "uint32",
          "name": "_endDateFromDeployInDays",
          "type": "uint32"
        }
      ],
      "name": "initPool",
      "outputs": [
        {
          "components": [
            {
              "internalType": "uint16",
              "name": "id",
              "type": "uint16"
            },
            {
              "internalType": "address",
              "name": "tokenAddress",
              "type": "address"
            },
            {
              "internalType": "uint256",
              "name": "totalLiquidity",
              "type": "uint256"
            },
            {
              "internalType": "uint256",
              "name": "priceLossCover",
              "type": "uint256"
            },
            {
              "internalType": "int256",
              "name": "basePrice",
              "type": "int256"
            },
            {
              "internalType": "int256",
              "name": "insuranceTreshold",
              "type": "int256"
            },
            {
              "internalType": "uint8",
              "name": "fee",
              "type": "uint8"
            },
            {
              "internalType": "uint256",
              "name": "startDate",
              "type": "uint256"
            },
            {
              "internalType": "uint256",
              "name": "endDate",
              "type": "uint256"
            }
          ],
          "internalType": "struct DataTypes.PoolData",
          "name": "",
          "type": "tuple"
        }
      ],
      "stateMutability": "nonpayable",
      "type": "function"
    },
    {
      "inputs": [
        {
          "internalType": "uint16",
          "name": "",
          "type": "uint16"
        },
        {
          "internalType": "address",
          "name": "",
          "type": "address"
        }
      ],
      "name": "insuranceRequests",
      "outputs": [
        {
          "internalType": "uint16",
          "name": "id",
          "type": "uint16"
        },
        {
          "internalType": "address",
          "name": "insuranceRequester",
          "type": "address"
        },
        {
          "internalType": "uint256",
          "name": "liquidtyToInsure",
          "type": "uint256"
        },
        {
          "internalType": "uint256",
          "name": "reimbursementAmount",
          "type": "uint256"
        },
        {
          "internalType": "uint256",
          "name": "fee",
          "type": "uint256"
        }
      ],
      "stateMutability": "view",
      "type": "function"
    },
    {
      "inputs": [
        {
          "internalType": "uint16",
          "name": "",
          "type": "uint16"
        }
      ],
      "name": "liquiditySupplyList",
      "outputs": [
        {
          "internalType": "uint16",
          "name": "id",
          "type": "uint16"
        },
        {
          "internalType": "address",
          "name": "liquidityProvider",
          "type": "address"
        },
        {
          "internalType": "uint256",
          "name": "liquidityAdded",
          "type": "uint256"
        }
      ],
      "stateMutability": "view",
      "type": "function"
    },
    {
      "inputs": [
        {
          "internalType": "uint16",
          "name": "",
          "type": "uint16"
        }
      ],
      "name": "poolDataList",
      "outputs": [
        {
          "internalType": "uint16",
          "name": "id",
          "type": "uint16"
        },
        {
          "internalType": "address",
          "name": "tokenAddress",
          "type": "address"
        },
        {
          "internalType": "uint256",
          "name": "totalLiquidity",
          "type": "uint256"
        },
        {
          "internalType": "uint256",
          "name": "priceLossCover",
          "type": "uint256"
        },
        {
          "internalType": "int256",
          "name": "basePrice",
          "type": "int256"
        },
        {
          "internalType": "int256",
          "name": "insuranceTreshold",
          "type": "int256"
        },
        {
          "internalType": "uint8",
          "name": "fee",
          "type": "uint8"
        },
        {
          "internalType": "uint256",
          "name": "startDate",
          "type": "uint256"
        },
        {
          "internalType": "uint256",
          "name": "endDate",
          "type": "uint256"
        }
      ],
      "stateMutability": "view",
      "type": "function"
    },
    {
      "inputs": [
        {
          "internalType": "uint16",
          "name": "_id",
          "type": "uint16"
        },
        {
          "internalType": "uint32",
          "name": "_amount",
          "type": "uint32"
        }
      ],
      "name": "requestInsurance",
      "outputs": [],
      "stateMutability": "nonpayable",
      "type": "function"
    },
    {
      "inputs": [
        {
          "internalType": "uint16",
          "name": "_id",
          "type": "uint16"
        }
      ],
      "name": "requestReimbursement",
      "outputs": [],
      "stateMutability": "nonpayable",
      "type": "function"
    },
    {
      "inputs": [
        {
          "internalType": "uint16",
          "name": "_id",
          "type": "uint16"
        },
        {
          "internalType": "uint256",
          "name": "_amount",
          "type": "uint256"
        }
      ],
      "name": "supplyPool",
      "outputs": [
        {
          "internalType": "uint256",
          "name": "",
          "type": "uint256"
        }
      ],
      "stateMutability": "nonpayable",
      "type": "function"
    }
  ],
  "transactionHash": "0x58889b0829f9f4f2a95163924221f5b01fb322bd08052664907bc1b1e89a6fad",
  "args": [],
  "numDeployments": 1,
  "solcInputHash": "585620d0e9f7b4fbb0b8a4485b21135a",
  "bytecode": "0x608060405234801561001057600080fd5b5060008060006101000a81548161ffff021916908361ffff160217905550611e7c8061003d6000396000f3fe608060405234801561001057600080fd5b50600436106100885760003560e01c8063af640d0f1161005b578063af640d0f14610153578063b307fc7514610171578063dca5ed48146101a9578063f66502dc146101c557610088565b8063445a66f11461008d5780635fae9b92146100bd57806363624107146100f15780637bbece7514610123575b600080fd5b6100a760048036038101906100a291906113ed565b6101e1565b6040516100b49190611594565b60405180910390f35b6100d760048036038101906100d291906115dc565b6105df565b6040516100e8959493929190611649565b60405180910390f35b61010b6004803603810190610106919061169c565b610650565b60405161011a939291906116c9565b60405180910390f35b61013d6004803603810190610138919061172c565b6106a8565b60405161014a919061176c565b60405180910390f35b61015b61097e565b6040516101689190611787565b60405180910390f35b61018b6004803603810190610186919061169c565b610990565b6040516101a0999897969594939291906117c0565b60405180910390f35b6101c360048036038101906101be919061169c565b610a19565b005b6101df60048036038101906101da919061184d565b610bf1565b005b6101e96111f2565b85600160006101000a81548173ffffffffffffffffffffffffffffffffffffffff021916908373ffffffffffffffffffffffffffffffffffffffff16021790555086600260006101000a81548173ffffffffffffffffffffffffffffffffffffffff021916908373ffffffffffffffffffffffffffffffffffffffff16021790555086600060026101000a81548173ffffffffffffffffffffffffffffffffffffffff021916908373ffffffffffffffffffffffffffffffffffffffff160217905550600062015180846102bd91906118bc565b63ffffffff16426102ce91906118fa565b9050600062015180846102e191906118bc565b63ffffffff16426102f291906118fa565b905081811161032d576040517f14cc095100000000000000000000000000000000000000000000000000000000815260040160405180910390fd5b6103356111f2565b600061033f611050565b9050600089606483610351919061197f565b61035b91906119e9565b826103669190611b00565b905060008054906101000a900461ffff16836000019061ffff16908161ffff1681525050600060029054906101000a900473ffffffffffffffffffffffffffffffffffffffff16836020019073ffffffffffffffffffffffffffffffffffffffff16908173ffffffffffffffffffffffffffffffffffffffff16815250508983606001818152505081836080018181525050808360a0018181525050888360c0019060ff16908160ff1681525050848360e0018181525050838361010001818152505082600360008060009054906101000a900461ffff1661ffff1661ffff16815260200190815260200160002060008201518160000160006101000a81548161ffff021916908361ffff16021790555060208201518160000160026101000a81548173ffffffffffffffffffffffffffffffffffffffff021916908373ffffffffffffffffffffffffffffffffffffffff16021790555060408201518160010155606082015181600201556080820151816003015560a0820151816004015560c08201518160050160006101000a81548160ff021916908360ff16021790555060e0820151816006015561010082015181600701559050507f659ebddaafcb3ad3be42ebd12af06f8e454388f4ee17482e82212e2abffcbc2f60008054906101000a900461ffff16600060029054906101000a900473ffffffffffffffffffffffffffffffffffffffff163385858e8b8b60405161058c989796959493929190611b94565b60405180910390a160016000808282829054906101000a900461ffff166105b39190611c12565b92506101000a81548161ffff021916908361ffff16021790555082955050505050509695505050505050565b6005602052816000526040600020602052806000526040600020600091509150508060000160009054906101000a900461ffff16908060000160029054906101000a900473ffffffffffffffffffffffffffffffffffffffff16908060010154908060020154908060030154905085565b60046020528060005260406000206000915090508060000160009054906101000a900461ffff16908060000160029054906101000a900473ffffffffffffffffffffffffffffffffffffffff16908060010154905083565b60008060009054906101000a900461ffff1661ffff168361ffff1611156106fb576040517ff23f6c1500000000000000000000000000000000000000000000000000000000815260040160405180910390fd5b600360008461ffff1661ffff168152602001908152602001600020600601544211610752576040517fdb589d0800000000000000000000000000000000000000000000000000000000815260040160405180910390fd5b61075a61125b565b600260009054906101000a900473ffffffffffffffffffffffffffffffffffffffff1673ffffffffffffffffffffffffffffffffffffffff166323b872dd3330866040518463ffffffff1660e01b81526004016107b993929190611c4a565b6020604051808303816000875af11580156107d8573d6000803e3d6000fd5b505050506040513d601f19601f820116820180604052508101906107fc9190611cb9565b5082600360008661ffff1661ffff168152602001908152602001600020600101600082825461082b91906118fa565b9250508190555083816000019061ffff16908161ffff168152505033816020019073ffffffffffffffffffffffffffffffffffffffff16908173ffffffffffffffffffffffffffffffffffffffff16815250508281604001818152505080600460008661ffff1661ffff16815260200190815260200160002060008201518160000160006101000a81548161ffff021916908361ffff16021790555060208201518160000160026101000a81548173ffffffffffffffffffffffffffffffffffffffff021916908373ffffffffffffffffffffffffffffffffffffffff160217905550604082015181600101559050507fb59fb6b7f81c4b116222f2e6feea340f3ce6818a0a6870b31e0019b24396d8db84338560405161094e939291906116c9565b60405180910390a1600360008561ffff1661ffff1681526020019081526020016000206001015491505092915050565b60008054906101000a900461ffff1681565b60036020528060005260406000206000915090508060000160009054906101000a900461ffff16908060000160029054906101000a900473ffffffffffffffffffffffffffffffffffffffff16908060010154908060020154908060030154908060040154908060050160009054906101000a900460ff16908060060154908060070154905089565b6000610a23611050565b9050600360008361ffff1661ffff16815260200190815260200160002060040154811215610a7d576040517ff65ecfbb00000000000000000000000000000000000000000000000000000000815260040160405180910390fd5b6000600560008461ffff1661ffff16815260200190815260200160002060003373ffffffffffffffffffffffffffffffffffffffff1673ffffffffffffffffffffffffffffffffffffffff1681526020019081526020016000206002015490506000600260009054906101000a900473ffffffffffffffffffffffffffffffffffffffff1673ffffffffffffffffffffffffffffffffffffffff166323b872dd3033856040518463ffffffff1660e01b8152600401610b3e93929190611c4a565b6020604051808303816000875af1158015610b5d573d6000803e3d6000fd5b505050506040513d601f19601f82011682018060405250810190610b819190611cb9565b90508015610beb576000600560008661ffff1661ffff16815260200190815260200160002060003373ffffffffffffffffffffffffffffffffffffffff1673ffffffffffffffffffffffffffffffffffffffff168152602001908152602001600020600101819055505b50505050565b6000600360008461ffff1661ffff168152602001908152602001600020600101549050808263ffffffff161115610c54576040517f4323a55500000000000000000000000000000000000000000000000000000000815260040160405180910390fd5b600360008461ffff1661ffff168152602001908152602001600020600601544211610cab576040517fdb589d0800000000000000000000000000000000000000000000000000000000815260040160405180910390fd5b6000600260009054906101000a900473ffffffffffffffffffffffffffffffffffffffff1673ffffffffffffffffffffffffffffffffffffffff166370a08231336040518263ffffffff1660e01b8152600401610d089190611ce6565b602060405180830381865afa158015610d25573d6000803e3d6000fd5b505050506040513d601f19601f82011682018060405250810190610d499190611d16565b90508263ffffffff16811015610d8b576040517f5dd3b4d100000000000000000000000000000000000000000000000000000000815260040160405180910390fd5b6000600560008661ffff1661ffff16815260200190815260200160002060003373ffffffffffffffffffffffffffffffffffffffff1673ffffffffffffffffffffffffffffffffffffffff1681526020019081526020016000206001015414610e20576040517fc5ea839600000000000000000000000000000000000000000000000000000000815260040160405180910390fd5b610e28611296565b6000610e3a868663ffffffff166110f1565b90506000610e4e878763ffffffff16611184565b9050600260009054906101000a900473ffffffffffffffffffffffffffffffffffffffff1673ffffffffffffffffffffffffffffffffffffffff166323b872dd3330856040518463ffffffff1660e01b8152600401610eaf93929190611c4a565b6020604051808303816000875af1158015610ece573d6000803e3d6000fd5b505050506040513d601f19601f82011682018060405250810190610ef29190611cb9565b5086836000019061ffff16908161ffff168152505033836020019073ffffffffffffffffffffffffffffffffffffffff16908173ffffffffffffffffffffffffffffffffffffffff16815250508563ffffffff16836040018181525050808360600181815250508183608001818152505082600560008961ffff1661ffff16815260200190815260200160002060003373ffffffffffffffffffffffffffffffffffffffff1673ffffffffffffffffffffffffffffffffffffffff16815260200190815260200160002060008201518160000160006101000a81548161ffff021916908361ffff16021790555060208201518160000160026101000a81548173ffffffffffffffffffffffffffffffffffffffff021916908373ffffffffffffffffffffffffffffffffffffffff16021790555060408201518160010155606082015181600201556080820151816003015590505050505050505050565b600080600160009054906101000a900473ffffffffffffffffffffffffffffffffffffffff1673ffffffffffffffffffffffffffffffffffffffff1663feaf968c6040518163ffffffff1660e01b815260040160a060405180830381865afa1580156110c0573d6000803e3d6000fd5b505050506040513d601f19601f820116820180604052508101906110e49190611d9a565b5050509150508091505090565b600080600360008561ffff1661ffff1681526020019081526020016000206001015490506000600360008661ffff1661ffff16815260200190815260200160002060050160009054906101000a900460ff1660ff16905060008161ffff168361115a9190611e15565b9050600081848761116b9190611e15565b6111759190611e15565b90508094505050505092915050565b600080600360008561ffff1661ffff1681526020019081526020016000206002015490506000600360008661ffff1661ffff16815260200190815260200160002060040154905060008183866111da9190611e15565b6111e49190611e15565b905080935050505092915050565b604051806101200160405280600061ffff168152602001600073ffffffffffffffffffffffffffffffffffffffff16815260200160008152602001600081526020016000815260200160008152602001600060ff16815260200160008152602001600081525090565b6040518060600160405280600061ffff168152602001600073ffffffffffffffffffffffffffffffffffffffff168152602001600081525090565b6040518060a00160405280600061ffff168152602001600073ffffffffffffffffffffffffffffffffffffffff1681526020016000815260200160008152602001600081525090565b600080fd5b600073ffffffffffffffffffffffffffffffffffffffff82169050919050565b600061130f826112e4565b9050919050565b61131f81611304565b811461132a57600080fd5b50565b60008135905061133c81611316565b92915050565b6000819050919050565b61135581611342565b811461136057600080fd5b50565b6000813590506113728161134c565b92915050565b600060ff82169050919050565b61138e81611378565b811461139957600080fd5b50565b6000813590506113ab81611385565b92915050565b600063ffffffff82169050919050565b6113ca816113b1565b81146113d557600080fd5b50565b6000813590506113e7816113c1565b92915050565b60008060008060008060c0878903121561140a576114096112df565b5b600061141889828a0161132d565b965050602061142989828a0161132d565b955050604061143a89828a01611363565b945050606061144b89828a0161139c565b935050608061145c89828a016113d8565b92505060a061146d89828a016113d8565b9150509295509295509295565b600061ffff82169050919050565b6114918161147a565b82525050565b6114a081611304565b82525050565b6000819050919050565b6114b9816114a6565b82525050565b6114c881611342565b82525050565b6114d781611378565b82525050565b610120820160008201516114f46000850182611488565b5060208201516115076020850182611497565b50604082015161151a60408501826114b0565b50606082015161152d60608501826114b0565b50608082015161154060808501826114bf565b5060a082015161155360a08501826114bf565b5060c082015161156660c08501826114ce565b5060e082015161157960e08501826114b0565b5061010082015161158e6101008501826114b0565b50505050565b6000610120820190506115aa60008301846114dd565b92915050565b6115b98161147a565b81146115c457600080fd5b50565b6000813590506115d6816115b0565b92915050565b600080604083850312156115f3576115f26112df565b5b6000611601858286016115c7565b92505060206116128582860161132d565b9150509250929050565b6116258161147a565b82525050565b61163481611304565b82525050565b611643816114a6565b82525050565b600060a08201905061165e600083018861161c565b61166b602083018761162b565b611678604083018661163a565b611685606083018561163a565b611692608083018461163a565b9695505050505050565b6000602082840312156116b2576116b16112df565b5b60006116c0848285016115c7565b91505092915050565b60006060820190506116de600083018661161c565b6116eb602083018561162b565b6116f8604083018461163a565b949350505050565b611709816114a6565b811461171457600080fd5b50565b60008135905061172681611700565b92915050565b60008060408385031215611743576117426112df565b5b6000611751858286016115c7565b925050602061176285828601611717565b9150509250929050565b6000602082019050611781600083018461163a565b92915050565b600060208201905061179c600083018461161c565b92915050565b6117ab81611342565b82525050565b6117ba81611378565b82525050565b6000610120820190506117d6600083018c61161c565b6117e3602083018b61162b565b6117f0604083018a61163a565b6117fd606083018961163a565b61180a60808301886117a2565b61181760a08301876117a2565b61182460c08301866117b1565b61183160e083018561163a565b61183f61010083018461163a565b9a9950505050505050505050565b60008060408385031215611864576118636112df565b5b6000611872858286016115c7565b9250506020611883858286016113d8565b9150509250929050565b7f4e487b7100000000000000000000000000000000000000000000000000000000600052601160045260246000fd5b60006118c7826113b1565b91506118d2836113b1565b92508163ffffffff04831182151516156118ef576118ee61188d565b5b828202905092915050565b6000611905826114a6565b9150611910836114a6565b9250827fffffffffffffffffffffffffffffffffffffffffffffffffffffffffffffffff038211156119455761194461188d565b5b828201905092915050565b7f4e487b7100000000000000000000000000000000000000000000000000000000600052601260045260246000fd5b600061198a82611342565b915061199583611342565b9250826119a5576119a4611950565b5b600160000383147f8000000000000000000000000000000000000000000000000000000000000000831416156119de576119dd61188d565b5b828205905092915050565b60006119f482611342565b91506119ff83611342565b9250827f7fffffffffffffffffffffffffffffffffffffffffffffffffffffffffffffff0482116000841360008413161615611a3e57611a3d61188d565b5b817f80000000000000000000000000000000000000000000000000000000000000000583126000841260008413161615611a7b57611a7a61188d565b5b827f80000000000000000000000000000000000000000000000000000000000000000582126000841360008412161615611ab857611ab761188d565b5b827f7fffffffffffffffffffffffffffffffffffffffffffffffffffffffffffffff0582126000841260008412161615611af557611af461188d565b5b828202905092915050565b6000611b0b82611342565b9150611b1683611342565b9250827f800000000000000000000000000000000000000000000000000000000000000001821260008412151615611b5157611b5061188d565b5b827f7fffffffffffffffffffffffffffffffffffffffffffffffffffffffffffffff018213600084121615611b8957611b8861188d565b5b828203905092915050565b600061010082019050611baa600083018b61161c565b611bb7602083018a61162b565b611bc4604083018961162b565b611bd160608301886117a2565b611bde60808301876117a2565b611beb60a08301866117b1565b611bf860c083018561163a565b611c0560e083018461163a565b9998505050505050505050565b6000611c1d8261147a565b9150611c288361147a565b92508261ffff03821115611c3f57611c3e61188d565b5b828201905092915050565b6000606082019050611c5f600083018661162b565b611c6c602083018561162b565b611c79604083018461163a565b949350505050565b60008115159050919050565b611c9681611c81565b8114611ca157600080fd5b50565b600081519050611cb381611c8d565b92915050565b600060208284031215611ccf57611cce6112df565b5b6000611cdd84828501611ca4565b91505092915050565b6000602082019050611cfb600083018461162b565b92915050565b600081519050611d1081611700565b92915050565b600060208284031215611d2c57611d2b6112df565b5b6000611d3a84828501611d01565b91505092915050565b600069ffffffffffffffffffff82169050919050565b611d6281611d43565b8114611d6d57600080fd5b50565b600081519050611d7f81611d59565b92915050565b600081519050611d948161134c565b92915050565b600080600080600060a08688031215611db657611db56112df565b5b6000611dc488828901611d70565b9550506020611dd588828901611d85565b9450506040611de688828901611d01565b9350506060611df788828901611d01565b9250506080611e0888828901611d70565b9150509295509295909350565b6000611e20826114a6565b9150611e2b836114a6565b925082611e3b57611e3a611950565b5b82820490509291505056fea26469706673582212208c98f4293fb7eb9b072fa73b49f62acc8a694c423196fcbcb73866adf9294b1464736f6c634300080a0033",
  "devdoc": {
    "kind": "dev",
    "methods": {},
    "version": 1
  },
  "userdoc": {
    "kind": "user",
    "methods": {},
    "version": 1
  },
  "storageLayout": {
    "storage": [
      {
        "astId": 134,
        "contract": "contracts/MacInsuranceMain.sol:MacInsuranceMain",
        "label": "id",
        "offset": 0,
        "slot": "0",
        "type": "t_uint16"
      },
      {
        "astId": 136,
        "contract": "contracts/MacInsuranceMain.sol:MacInsuranceMain",
        "label": "tokenAddress",
        "offset": 2,
        "slot": "0",
        "type": "t_address"
      },
      {
        "astId": 139,
        "contract": "contracts/MacInsuranceMain.sol:MacInsuranceMain",
        "label": "priceFeed",
        "offset": 0,
        "slot": "1",
        "type": "t_contract(AggregatorV3Interface)45"
      },
      {
        "astId": 142,
        "contract": "contracts/MacInsuranceMain.sol:MacInsuranceMain",
        "label": "insuredToken",
        "offset": 0,
        "slot": "2",
        "type": "t_contract(IERC20)123"
      },
      {
        "astId": 147,
        "contract": "contracts/MacInsuranceMain.sol:MacInsuranceMain",
        "label": "poolDataList",
        "offset": 0,
        "slot": "3",
        "type": "t_mapping(t_uint16,t_struct(PoolData)787_storage)"
      },
      {
        "astId": 152,
        "contract": "contracts/MacInsuranceMain.sol:MacInsuranceMain",
        "label": "liquiditySupplyList",
        "offset": 0,
        "slot": "4",
        "type": "t_mapping(t_uint16,t_struct(PoolLiquiditySupply)794_storage)"
      },
      {
        "astId": 159,
        "contract": "contracts/MacInsuranceMain.sol:MacInsuranceMain",
        "label": "insuranceRequests",
        "offset": 0,
        "slot": "5",
        "type": "t_mapping(t_uint16,t_mapping(t_address,t_struct(InsuranceRequest)805_storage))"
      }
    ],
    "types": {
      "t_address": {
        "encoding": "inplace",
        "label": "address",
        "numberOfBytes": "20"
      },
      "t_contract(AggregatorV3Interface)45": {
        "encoding": "inplace",
        "label": "contract AggregatorV3Interface",
        "numberOfBytes": "20"
      },
      "t_contract(IERC20)123": {
        "encoding": "inplace",
        "label": "contract IERC20",
        "numberOfBytes": "20"
      },
      "t_int256": {
        "encoding": "inplace",
        "label": "int256",
        "numberOfBytes": "32"
      },
      "t_mapping(t_address,t_struct(InsuranceRequest)805_storage)": {
        "encoding": "mapping",
        "key": "t_address",
        "label": "mapping(address => struct DataTypes.InsuranceRequest)",
        "numberOfBytes": "32",
        "value": "t_struct(InsuranceRequest)805_storage"
      },
      "t_mapping(t_uint16,t_mapping(t_address,t_struct(InsuranceRequest)805_storage))": {
        "encoding": "mapping",
        "key": "t_uint16",
        "label": "mapping(uint16 => mapping(address => struct DataTypes.InsuranceRequest))",
        "numberOfBytes": "32",
        "value": "t_mapping(t_address,t_struct(InsuranceRequest)805_storage)"
      },
      "t_mapping(t_uint16,t_struct(PoolData)787_storage)": {
        "encoding": "mapping",
        "key": "t_uint16",
        "label": "mapping(uint16 => struct DataTypes.PoolData)",
        "numberOfBytes": "32",
        "value": "t_struct(PoolData)787_storage"
      },
      "t_mapping(t_uint16,t_struct(PoolLiquiditySupply)794_storage)": {
        "encoding": "mapping",
        "key": "t_uint16",
        "label": "mapping(uint16 => struct DataTypes.PoolLiquiditySupply)",
        "numberOfBytes": "32",
        "value": "t_struct(PoolLiquiditySupply)794_storage"
      },
      "t_struct(InsuranceRequest)805_storage": {
        "encoding": "inplace",
        "label": "struct DataTypes.InsuranceRequest",
        "members": [
          {
            "astId": 796,
            "contract": "contracts/MacInsuranceMain.sol:MacInsuranceMain",
            "label": "id",
            "offset": 0,
            "slot": "0",
            "type": "t_uint16"
          },
          {
            "astId": 798,
            "contract": "contracts/MacInsuranceMain.sol:MacInsuranceMain",
            "label": "insuranceRequester",
            "offset": 2,
            "slot": "0",
            "type": "t_address"
          },
          {
            "astId": 800,
            "contract": "contracts/MacInsuranceMain.sol:MacInsuranceMain",
            "label": "liquidtyToInsure",
            "offset": 0,
            "slot": "1",
            "type": "t_uint256"
          },
          {
            "astId": 802,
            "contract": "contracts/MacInsuranceMain.sol:MacInsuranceMain",
            "label": "reimbursementAmount",
            "offset": 0,
            "slot": "2",
            "type": "t_uint256"
          },
          {
            "astId": 804,
            "contract": "contracts/MacInsuranceMain.sol:MacInsuranceMain",
            "label": "fee",
            "offset": 0,
            "slot": "3",
            "type": "t_uint256"
          }
        ],
        "numberOfBytes": "128"
      },
      "t_struct(PoolData)787_storage": {
        "encoding": "inplace",
        "label": "struct DataTypes.PoolData",
        "members": [
          {
            "astId": 770,
            "contract": "contracts/MacInsuranceMain.sol:MacInsuranceMain",
            "label": "id",
            "offset": 0,
            "slot": "0",
            "type": "t_uint16"
          },
          {
            "astId": 772,
            "contract": "contracts/MacInsuranceMain.sol:MacInsuranceMain",
            "label": "tokenAddress",
            "offset": 2,
            "slot": "0",
            "type": "t_address"
          },
          {
            "astId": 774,
            "contract": "contracts/MacInsuranceMain.sol:MacInsuranceMain",
            "label": "totalLiquidity",
            "offset": 0,
            "slot": "1",
            "type": "t_uint256"
          },
          {
            "astId": 776,
            "contract": "contracts/MacInsuranceMain.sol:MacInsuranceMain",
            "label": "priceLossCover",
            "offset": 0,
            "slot": "2",
            "type": "t_uint256"
          },
          {
            "astId": 778,
            "contract": "contracts/MacInsuranceMain.sol:MacInsuranceMain",
            "label": "basePrice",
            "offset": 0,
            "slot": "3",
            "type": "t_int256"
          },
          {
            "astId": 780,
            "contract": "contracts/MacInsuranceMain.sol:MacInsuranceMain",
            "label": "insuranceTreshold",
            "offset": 0,
            "slot": "4",
            "type": "t_int256"
          },
          {
            "astId": 782,
            "contract": "contracts/MacInsuranceMain.sol:MacInsuranceMain",
            "label": "fee",
            "offset": 0,
            "slot": "5",
            "type": "t_uint8"
          },
          {
            "astId": 784,
            "contract": "contracts/MacInsuranceMain.sol:MacInsuranceMain",
            "label": "startDate",
            "offset": 0,
            "slot": "6",
            "type": "t_uint256"
          },
          {
            "astId": 786,
            "contract": "contracts/MacInsuranceMain.sol:MacInsuranceMain",
            "label": "endDate",
            "offset": 0,
            "slot": "7",
            "type": "t_uint256"
          }
        ],
        "numberOfBytes": "256"
      },
      "t_struct(PoolLiquiditySupply)794_storage": {
        "encoding": "inplace",
        "label": "struct DataTypes.PoolLiquiditySupply",
        "members": [
          {
            "astId": 789,
            "contract": "contracts/MacInsuranceMain.sol:MacInsuranceMain",
            "label": "id",
            "offset": 0,
            "slot": "0",
            "type": "t_uint16"
          },
          {
            "astId": 791,
            "contract": "contracts/MacInsuranceMain.sol:MacInsuranceMain",
            "label": "liquidityProvider",
            "offset": 2,
            "slot": "0",
            "type": "t_address"
          },
          {
            "astId": 793,
            "contract": "contracts/MacInsuranceMain.sol:MacInsuranceMain",
            "label": "liquidityAdded",
            "offset": 0,
            "slot": "1",
            "type": "t_uint256"
          }
        ],
        "numberOfBytes": "64"
      },
      "t_uint16": {
        "encoding": "inplace",
        "label": "uint16",
        "numberOfBytes": "2"
      },
      "t_uint256": {
        "encoding": "inplace",
        "label": "uint256",
        "numberOfBytes": "32"
      },
      "t_uint8": {
        "encoding": "inplace",
        "label": "uint8",
        "numberOfBytes": "1"
      }
    }
  }
}