{
  "address": "0x821f3361D454cc98b7555221A06Be563a7E2E0A6",
  "abi": [
    {
      "inputs": [],
      "stateMutability": "nonpayable",
      "type": "constructor"
    },
    {
      "inputs": [],
      "name": "EndDateEarlierThanStartDate",
      "type": "error"
    },
    {
      "inputs": [],
      "name": "InsuranceAlreadyRequested",
      "type": "error"
    },
    {
      "inputs": [],
      "name": "InsuranceInActivePeriod",
      "type": "error"
    },
    {
      "inputs": [],
      "name": "NotEnoughInsuranceLiquidity",
      "type": "error"
    },
    {
      "inputs": [],
      "name": "NotEnoughTokenBalance",
      "type": "error"
    },
    {
      "inputs": [],
      "name": "PoolIdNotCreated",
      "type": "error"
    },
    {
      "inputs": [],
      "name": "ReimburesementRequirementNotMet",
      "type": "error"
    },
    {
      "anonymous": false,
      "inputs": [
        {
          "indexed": false,
          "internalType": "uint16",
          "name": "poolId",
          "type": "uint16"
        },
        {
          "indexed": false,
          "internalType": "address",
          "name": "tokenAddress",
          "type": "address"
        },
        {
          "indexed": false,
          "internalType": "address",
          "name": "insuranceRequester",
          "type": "address"
        },
        {
          "indexed": false,
          "internalType": "uint256",
          "name": "liquidtyToInsure",
          "type": "uint256"
        },
        {
          "indexed": false,
          "internalType": "uint128",
          "name": "fee",
          "type": "uint128"
        }
      ],
      "name": "InsuranceRequestCreated",
      "type": "event"
    },
    {
      "anonymous": false,
      "inputs": [
        {
          "indexed": false,
          "internalType": "uint16",
          "name": "poolId",
          "type": "uint16"
        },
        {
          "indexed": false,
          "internalType": "address",
          "name": "tokenAddress",
          "type": "address"
        },
        {
          "indexed": false,
          "internalType": "address",
          "name": "owner",
          "type": "address"
        },
        {
          "indexed": false,
          "internalType": "int256",
          "name": "basePrice",
          "type": "int256"
        },
        {
          "indexed": false,
          "internalType": "int256",
          "name": "tresholdPrice",
          "type": "int256"
        },
        {
          "indexed": false,
          "internalType": "uint8",
          "name": "fee",
          "type": "uint8"
        },
        {
          "indexed": false,
          "internalType": "uint256",
          "name": "startDate",
          "type": "uint256"
        },
        {
          "indexed": false,
          "internalType": "uint256",
          "name": "endDate",
          "type": "uint256"
        }
      ],
      "name": "PoolCreated",
      "type": "event"
    },
    {
      "anonymous": false,
      "inputs": [
        {
          "indexed": false,
          "internalType": "uint16",
          "name": "poolId",
          "type": "uint16"
        },
        {
          "indexed": false,
          "internalType": "address",
          "name": "liquidityProvider",
          "type": "address"
        },
        {
          "indexed": false,
          "internalType": "uint256",
          "name": "liquidityAdded",
          "type": "uint256"
        }
      ],
      "name": "PoolLiquidityAdded",
      "type": "event"
    },
    {
      "inputs": [],
      "name": "id",
      "outputs": [
        {
          "internalType": "uint16",
          "name": "",
          "type": "uint16"
        }
      ],
      "stateMutability": "view",
      "type": "function"
    },
    {
      "inputs": [
        {
          "internalType": "address",
          "name": "_tokenAddress",
          "type": "address"
        },
        {
          "internalType": "address",
          "name": "_priceFeed",
          "type": "address"
        },
        {
          "internalType": "int256",
          "name": "_insuranceLossCoverage",
          "type": "int256"
        },
        {
          "internalType": "uint8",
          "name": "_fee",
          "type": "uint8"
        },
        {
          "internalType": "uint256",
          "name": "_startDateFromDeployInSeconds",
          "type": "uint256"
        },
        {
          "internalType": "uint256",
          "name": "_endDateFromDeployInSeconds",
          "type": "uint256"
        }
      ],
      "name": "initPool",
      "outputs": [
        {
          "components": [
            {
              "internalType": "uint16",
              "name": "id",
              "type": "uint16"
            },
            {
              "internalType": "address",
              "name": "tokenAddress",
              "type": "address"
            },
            {
              "internalType": "uint256",
              "name": "totalLiquidity",
              "type": "uint256"
            },
            {
              "internalType": "uint256",
              "name": "priceLossCover",
              "type": "uint256"
            },
            {
              "internalType": "int256",
              "name": "basePrice",
              "type": "int256"
            },
            {
              "internalType": "int256",
              "name": "insuranceTreshold",
              "type": "int256"
            },
            {
              "internalType": "uint8",
              "name": "fee",
              "type": "uint8"
            },
            {
              "internalType": "uint256",
              "name": "startDate",
              "type": "uint256"
            },
            {
              "internalType": "uint256",
              "name": "endDate",
              "type": "uint256"
            }
          ],
          "internalType": "struct DataTypes.PoolData",
          "name": "",
          "type": "tuple"
        }
      ],
      "stateMutability": "nonpayable",
      "type": "function"
    },
    {
      "inputs": [
        {
          "internalType": "uint16",
          "name": "",
          "type": "uint16"
        },
        {
          "internalType": "address",
          "name": "",
          "type": "address"
        }
      ],
      "name": "insuranceRequests",
      "outputs": [
        {
          "internalType": "uint16",
          "name": "id",
          "type": "uint16"
        },
        {
          "internalType": "address",
          "name": "insuranceRequester",
          "type": "address"
        },
        {
          "internalType": "uint256",
          "name": "liquidtyToInsure",
          "type": "uint256"
        },
        {
          "internalType": "uint256",
          "name": "reimbursementAmount",
          "type": "uint256"
        },
        {
          "internalType": "uint256",
          "name": "fee",
          "type": "uint256"
        }
      ],
      "stateMutability": "view",
      "type": "function"
    },
    {
      "inputs": [
        {
          "internalType": "uint16",
          "name": "",
          "type": "uint16"
        }
      ],
      "name": "liquiditySupplyList",
      "outputs": [
        {
          "internalType": "uint16",
          "name": "id",
          "type": "uint16"
        },
        {
          "internalType": "address",
          "name": "liquidityProvider",
          "type": "address"
        },
        {
          "internalType": "uint256",
          "name": "liquidityAdded",
          "type": "uint256"
        }
      ],
      "stateMutability": "view",
      "type": "function"
    },
    {
      "inputs": [
        {
          "internalType": "uint16",
          "name": "",
          "type": "uint16"
        }
      ],
      "name": "poolDataList",
      "outputs": [
        {
          "internalType": "uint16",
          "name": "id",
          "type": "uint16"
        },
        {
          "internalType": "address",
          "name": "tokenAddress",
          "type": "address"
        },
        {
          "internalType": "uint256",
          "name": "totalLiquidity",
          "type": "uint256"
        },
        {
          "internalType": "uint256",
          "name": "priceLossCover",
          "type": "uint256"
        },
        {
          "internalType": "int256",
          "name": "basePrice",
          "type": "int256"
        },
        {
          "internalType": "int256",
          "name": "insuranceTreshold",
          "type": "int256"
        },
        {
          "internalType": "uint8",
          "name": "fee",
          "type": "uint8"
        },
        {
          "internalType": "uint256",
          "name": "startDate",
          "type": "uint256"
        },
        {
          "internalType": "uint256",
          "name": "endDate",
          "type": "uint256"
        }
      ],
      "stateMutability": "view",
      "type": "function"
    },
    {
      "inputs": [
        {
          "internalType": "uint16",
          "name": "_id",
          "type": "uint16"
        },
        {
          "internalType": "uint256",
          "name": "_amount",
          "type": "uint256"
        }
      ],
      "name": "requestInsurance",
      "outputs": [],
      "stateMutability": "nonpayable",
      "type": "function"
    },
    {
      "inputs": [
        {
          "internalType": "uint16",
          "name": "_id",
          "type": "uint16"
        }
      ],
      "name": "requestReimbursement",
      "outputs": [],
      "stateMutability": "nonpayable",
      "type": "function"
    },
    {
      "inputs": [
        {
          "internalType": "uint16",
          "name": "_id",
          "type": "uint16"
        },
        {
          "internalType": "uint256",
          "name": "_amount",
          "type": "uint256"
        }
      ],
      "name": "supplyPool",
      "outputs": [
        {
          "internalType": "uint256",
          "name": "",
          "type": "uint256"
        }
      ],
      "stateMutability": "nonpayable",
      "type": "function"
    },
    {
      "inputs": [],
      "name": "testTokenPrice",
      "outputs": [
        {
          "internalType": "int256",
          "name": "",
          "type": "int256"
        }
      ],
      "stateMutability": "view",
      "type": "function"
    },
    {
      "inputs": [
        {
          "internalType": "int256",
          "name": "_updatedPrice",
          "type": "int256"
        }
      ],
      "name": "updatePriceToken",
      "outputs": [],
      "stateMutability": "nonpayable",
      "type": "function"
    }
  ],
  "transactionHash": "0x96650af354e0a0a00208044b6390d47e4c8fac73aec3a95500e5508c13318a92",
  "args": [],
  "numDeployments": 1,
  "solcInputHash": "2e3ef238f2a9448eed40fd95c316ad59",
  "bytecode": "0x6080604052633b9aca0060015534801561001857600080fd5b5060008060006101000a81548161ffff021916908361ffff160217905550611de4806100456000396000f3fe608060405234801561001057600080fd5b506004361061009e5760003560e01c806382c804dd1161006657806382c804dd14610187578063a4429eb5146101a3578063af640d0f146101bf578063b307fc75146101dd578063dca5ed48146102155761009e565b80631f563bfd146100a35780633db0d614146100d35780635fae9b92146100f157806363624107146101255780637bbece7514610157575b600080fd5b6100bd60048036038101906100b89190611439565b610231565b6040516100ca91906115d6565b60405180910390f35b6100db61061a565b6040516100e89190611601565b60405180910390f35b61010b60048036038101906101069190611648565b610620565b60405161011c9594939291906116b5565b60405180910390f35b61013f600480360381019061013a9190611708565b610691565b60405161014e93929190611735565b60405180910390f35b610171600480360381019061016c919061176c565b6106e9565b60405161017e91906117ac565b60405180910390f35b6101a1600480360381019061019c919061176c565b6109bf565b005b6101bd60048036038101906101b891906117c7565b610e00565b005b6101c7610e0a565b6040516101d491906117f4565b60405180910390f35b6101f760048036038101906101f29190611708565b610e1c565b60405161020c9998979695949392919061181e565b60405180910390f35b61022f600480360381019061022a9190611708565b610ea5565b005b610239611244565b85600360006101000a81548173ffffffffffffffffffffffffffffffffffffffff021916908373ffffffffffffffffffffffffffffffffffffffff16021790555086600460006101000a81548173ffffffffffffffffffffffffffffffffffffffff021916908373ffffffffffffffffffffffffffffffffffffffff16021790555086600260006101000a81548173ffffffffffffffffffffffffffffffffffffffff021916908373ffffffffffffffffffffffffffffffffffffffff160217905550600060018461030b91906118da565b426103169190611934565b9050600060018461032791906118da565b426103329190611934565b905081811161036d576040517f14cc095100000000000000000000000000000000000000000000000000000000815260040160405180910390fd5b610375611244565b6000600154905060008960648361038c91906119b9565b6103969190611a23565b826103a19190611b3a565b905060008054906101000a900461ffff16836000019061ffff16908161ffff1681525050600260009054906101000a900473ffffffffffffffffffffffffffffffffffffffff16836020019073ffffffffffffffffffffffffffffffffffffffff16908173ffffffffffffffffffffffffffffffffffffffff16815250508983606001818152505081836080018181525050808360a0018181525050888360c0019060ff16908160ff1681525050848360e0018181525050838361010001818152505082600560008060009054906101000a900461ffff1661ffff1661ffff16815260200190815260200160002060008201518160000160006101000a81548161ffff021916908361ffff16021790555060208201518160000160026101000a81548173ffffffffffffffffffffffffffffffffffffffff021916908373ffffffffffffffffffffffffffffffffffffffff16021790555060408201518160010155606082015181600201556080820151816003015560a0820151816004015560c08201518160050160006101000a81548160ff021916908360ff16021790555060e0820151816006015561010082015181600701559050507f659ebddaafcb3ad3be42ebd12af06f8e454388f4ee17482e82212e2abffcbc2f60008054906101000a900461ffff16600260009054906101000a900473ffffffffffffffffffffffffffffffffffffffff163385858e8b8b6040516105c7989796959493929190611bce565b60405180910390a160016000808282829054906101000a900461ffff166105ee9190611c4c565b92506101000a81548161ffff021916908361ffff16021790555082955050505050509695505050505050565b60015481565b6007602052816000526040600020602052806000526040600020600091509150508060000160009054906101000a900461ffff16908060000160029054906101000a900473ffffffffffffffffffffffffffffffffffffffff16908060010154908060020154908060030154905085565b60066020528060005260406000206000915090508060000160009054906101000a900461ffff16908060000160029054906101000a900473ffffffffffffffffffffffffffffffffffffffff16908060010154905083565b60008060009054906101000a900461ffff1661ffff168361ffff16111561073c576040517ff23f6c1500000000000000000000000000000000000000000000000000000000815260040160405180910390fd5b600560008461ffff1661ffff168152602001908152602001600020600601544210610793576040517fdb589d0800000000000000000000000000000000000000000000000000000000815260040160405180910390fd5b61079b6112ad565b600460009054906101000a900473ffffffffffffffffffffffffffffffffffffffff1673ffffffffffffffffffffffffffffffffffffffff166323b872dd3330866040518463ffffffff1660e01b81526004016107fa93929190611c84565b6020604051808303816000875af1158015610819573d6000803e3d6000fd5b505050506040513d601f19601f8201168201806040525081019061083d9190611cf3565b5082600560008661ffff1661ffff168152602001908152602001600020600101600082825461086c9190611934565b9250508190555083816000019061ffff16908161ffff168152505033816020019073ffffffffffffffffffffffffffffffffffffffff16908173ffffffffffffffffffffffffffffffffffffffff16815250508281604001818152505080600660008661ffff1661ffff16815260200190815260200160002060008201518160000160006101000a81548161ffff021916908361ffff16021790555060208201518160000160026101000a81548173ffffffffffffffffffffffffffffffffffffffff021916908373ffffffffffffffffffffffffffffffffffffffff160217905550604082015181600101559050507fb59fb6b7f81c4b116222f2e6feea340f3ce6818a0a6870b31e0019b24396d8db84338560405161098f93929190611735565b60405180910390a1600560008561ffff1661ffff1681526020019081526020016000206001015491505092915050565b6000600560008461ffff1661ffff168152602001908152602001600020600101549050600560008461ffff1661ffff168152602001908152602001600020600601544210610a39576040517fdb589d0800000000000000000000000000000000000000000000000000000000815260040160405180910390fd5b6000600460009054906101000a900473ffffffffffffffffffffffffffffffffffffffff1673ffffffffffffffffffffffffffffffffffffffff166370a08231336040518263ffffffff1660e01b8152600401610a969190611d20565b602060405180830381865afa158015610ab3573d6000803e3d6000fd5b505050506040513d601f19601f82011682018060405250810190610ad79190611d50565b905082811015610b13576040517f5dd3b4d100000000000000000000000000000000000000000000000000000000815260040160405180910390fd5b6000600760008661ffff1661ffff16815260200190815260200160002060003373ffffffffffffffffffffffffffffffffffffffff1673ffffffffffffffffffffffffffffffffffffffff1681526020019081526020016000206001015414610ba8576040517fc5ea839600000000000000000000000000000000000000000000000000000000815260040160405180910390fd5b610bb06112e8565b6000610bbc8686611127565b90506000610bca87876111c6565b905084811115610c06576040517f3f735c4f00000000000000000000000000000000000000000000000000000000815260040160405180910390fd5b600460009054906101000a900473ffffffffffffffffffffffffffffffffffffffff1673ffffffffffffffffffffffffffffffffffffffff166323b872dd3330856040518463ffffffff1660e01b8152600401610c6593929190611c84565b6020604051808303816000875af1158015610c84573d6000803e3d6000fd5b505050506040513d601f19601f82011682018060405250810190610ca89190611cf3565b5086836000019061ffff16908161ffff168152505033836020019073ffffffffffffffffffffffffffffffffffffffff16908173ffffffffffffffffffffffffffffffffffffffff168152505085836040018181525050808360600181815250508183608001818152505082600760008961ffff1661ffff16815260200190815260200160002060003373ffffffffffffffffffffffffffffffffffffffff1673ffffffffffffffffffffffffffffffffffffffff16815260200190815260200160002060008201518160000160006101000a81548161ffff021916908361ffff16021790555060208201518160000160026101000a81548173ffffffffffffffffffffffffffffffffffffffff021916908373ffffffffffffffffffffffffffffffffffffffff16021790555060408201518160010155606082015181600201556080820151816003015590505050505050505050565b8060018190555050565b60008054906101000a900461ffff1681565b60056020528060005260406000206000915090508060000160009054906101000a900461ffff16908060000160029054906101000a900473ffffffffffffffffffffffffffffffffffffffff16908060010154908060020154908060030154908060040154908060050160009054906101000a900460ff16908060060154908060070154905089565b600560008261ffff1661ffff168152602001908152602001600020600601544211610efc576040517fdb589d0800000000000000000000000000000000000000000000000000000000815260040160405180910390fd5b600560008261ffff1661ffff16815260200190815260200160002060070154421115610f54576040517fdb589d0800000000000000000000000000000000000000000000000000000000815260040160405180910390fd5b60006001549050600560008361ffff1661ffff16815260200190815260200160002060040154811315610fb3576040517ff65ecfbb00000000000000000000000000000000000000000000000000000000815260040160405180910390fd5b6000600760008461ffff1661ffff16815260200190815260200160002060003373ffffffffffffffffffffffffffffffffffffffff1673ffffffffffffffffffffffffffffffffffffffff1681526020019081526020016000206002015490506000600460009054906101000a900473ffffffffffffffffffffffffffffffffffffffff1673ffffffffffffffffffffffffffffffffffffffff166323b872dd3033856040518463ffffffff1660e01b815260040161107493929190611c84565b6020604051808303816000875af1158015611093573d6000803e3d6000fd5b505050506040513d601f19601f820116820180604052508101906110b79190611cf3565b90508015611121576000600760008661ffff1661ffff16815260200190815260200160002060003373ffffffffffffffffffffffffffffffffffffffff1673ffffffffffffffffffffffffffffffffffffffff168152602001908152602001600020600101819055505b50505050565b600080600560008561ffff1661ffff1681526020019081526020016000206001015490506000600560008661ffff1661ffff16815260200190815260200160002060050160009054906101000a900460ff1660ff169050600060648261ffff168461119291906118da565b61119c9190611d7d565b905060008382876111ad91906118da565b6111b79190611d7d565b90508094505050505092915050565b600080600560008561ffff1661ffff1681526020019081526020016000206002015490506000600560008661ffff1661ffff16815260200190815260200160002060040154905060006402540be4008284876112229190611d7d565b61122c9190611d7d565b61123691906118da565b905080935050505092915050565b604051806101200160405280600061ffff168152602001600073ffffffffffffffffffffffffffffffffffffffff16815260200160008152602001600081526020016000815260200160008152602001600060ff16815260200160008152602001600081525090565b6040518060600160405280600061ffff168152602001600073ffffffffffffffffffffffffffffffffffffffff168152602001600081525090565b6040518060a00160405280600061ffff168152602001600073ffffffffffffffffffffffffffffffffffffffff1681526020016000815260200160008152602001600081525090565b600080fd5b600073ffffffffffffffffffffffffffffffffffffffff82169050919050565b600061136182611336565b9050919050565b61137181611356565b811461137c57600080fd5b50565b60008135905061138e81611368565b92915050565b6000819050919050565b6113a781611394565b81146113b257600080fd5b50565b6000813590506113c48161139e565b92915050565b600060ff82169050919050565b6113e0816113ca565b81146113eb57600080fd5b50565b6000813590506113fd816113d7565b92915050565b6000819050919050565b61141681611403565b811461142157600080fd5b50565b6000813590506114338161140d565b92915050565b60008060008060008060c0878903121561145657611455611331565b5b600061146489828a0161137f565b965050602061147589828a0161137f565b955050604061148689828a016113b5565b945050606061149789828a016113ee565b93505060806114a889828a01611424565b92505060a06114b989828a01611424565b9150509295509295509295565b600061ffff82169050919050565b6114dd816114c6565b82525050565b6114ec81611356565b82525050565b6114fb81611403565b82525050565b61150a81611394565b82525050565b611519816113ca565b82525050565b6101208201600082015161153660008501826114d4565b50602082015161154960208501826114e3565b50604082015161155c60408501826114f2565b50606082015161156f60608501826114f2565b5060808201516115826080850182611501565b5060a082015161159560a0850182611501565b5060c08201516115a860c0850182611510565b5060e08201516115bb60e08501826114f2565b506101008201516115d06101008501826114f2565b50505050565b6000610120820190506115ec600083018461151f565b92915050565b6115fb81611394565b82525050565b600060208201905061161660008301846115f2565b92915050565b611625816114c6565b811461163057600080fd5b50565b6000813590506116428161161c565b92915050565b6000806040838503121561165f5761165e611331565b5b600061166d85828601611633565b925050602061167e8582860161137f565b9150509250929050565b611691816114c6565b82525050565b6116a081611356565b82525050565b6116af81611403565b82525050565b600060a0820190506116ca6000830188611688565b6116d76020830187611697565b6116e460408301866116a6565b6116f160608301856116a6565b6116fe60808301846116a6565b9695505050505050565b60006020828403121561171e5761171d611331565b5b600061172c84828501611633565b91505092915050565b600060608201905061174a6000830186611688565b6117576020830185611697565b61176460408301846116a6565b949350505050565b6000806040838503121561178357611782611331565b5b600061179185828601611633565b92505060206117a285828601611424565b9150509250929050565b60006020820190506117c160008301846116a6565b92915050565b6000602082840312156117dd576117dc611331565b5b60006117eb848285016113b5565b91505092915050565b60006020820190506118096000830184611688565b92915050565b611818816113ca565b82525050565b600061012082019050611834600083018c611688565b611841602083018b611697565b61184e604083018a6116a6565b61185b60608301896116a6565b61186860808301886115f2565b61187560a08301876115f2565b61188260c083018661180f565b61188f60e08301856116a6565b61189d6101008301846116a6565b9a9950505050505050505050565b7f4e487b7100000000000000000000000000000000000000000000000000000000600052601160045260246000fd5b60006118e582611403565b91506118f083611403565b9250817fffffffffffffffffffffffffffffffffffffffffffffffffffffffffffffffff0483118215151615611929576119286118ab565b5b828202905092915050565b600061193f82611403565b915061194a83611403565b9250827fffffffffffffffffffffffffffffffffffffffffffffffffffffffffffffffff0382111561197f5761197e6118ab565b5b828201905092915050565b7f4e487b7100000000000000000000000000000000000000000000000000000000600052601260045260246000fd5b60006119c482611394565b91506119cf83611394565b9250826119df576119de61198a565b5b600160000383147f800000000000000000000000000000000000000000000000000000000000000083141615611a1857611a176118ab565b5b828205905092915050565b6000611a2e82611394565b9150611a3983611394565b9250827f7fffffffffffffffffffffffffffffffffffffffffffffffffffffffffffffff0482116000841360008413161615611a7857611a776118ab565b5b817f80000000000000000000000000000000000000000000000000000000000000000583126000841260008413161615611ab557611ab46118ab565b5b827f80000000000000000000000000000000000000000000000000000000000000000582126000841360008412161615611af257611af16118ab565b5b827f7fffffffffffffffffffffffffffffffffffffffffffffffffffffffffffffff0582126000841260008412161615611b2f57611b2e6118ab565b5b828202905092915050565b6000611b4582611394565b9150611b5083611394565b9250827f800000000000000000000000000000000000000000000000000000000000000001821260008412151615611b8b57611b8a6118ab565b5b827f7fffffffffffffffffffffffffffffffffffffffffffffffffffffffffffffff018213600084121615611bc357611bc26118ab565b5b828203905092915050565b600061010082019050611be4600083018b611688565b611bf1602083018a611697565b611bfe6040830189611697565b611c0b60608301886115f2565b611c1860808301876115f2565b611c2560a083018661180f565b611c3260c08301856116a6565b611c3f60e08301846116a6565b9998505050505050505050565b6000611c57826114c6565b9150611c62836114c6565b92508261ffff03821115611c7957611c786118ab565b5b828201905092915050565b6000606082019050611c996000830186611697565b611ca66020830185611697565b611cb360408301846116a6565b949350505050565b60008115159050919050565b611cd081611cbb565b8114611cdb57600080fd5b50565b600081519050611ced81611cc7565b92915050565b600060208284031215611d0957611d08611331565b5b6000611d1784828501611cde565b91505092915050565b6000602082019050611d356000830184611697565b92915050565b600081519050611d4a8161140d565b92915050565b600060208284031215611d6657611d65611331565b5b6000611d7484828501611d3b565b91505092915050565b6000611d8882611403565b9150611d9383611403565b925082611da357611da261198a565b5b82820490509291505056fea264697066735822122022f3670acb650745bf4c6e2dc7f9b05089b4d95013f41de8cb673ecd404a03de64736f6c634300080a0033",
  "devdoc": {
    "kind": "dev",
    "methods": {},
    "version": 1
  },
  "userdoc": {
    "kind": "user",
    "methods": {},
    "version": 1
  },
  "storageLayout": {
    "storage": [
      {
        "astId": 191,
        "contract": "contracts/test/Test_MacInsuranceMain.sol:Test_MacInsuranceMain",
        "label": "id",
        "offset": 0,
        "slot": "0",
        "type": "t_uint16"
      },
      {
        "astId": 194,
        "contract": "contracts/test/Test_MacInsuranceMain.sol:Test_MacInsuranceMain",
        "label": "testTokenPrice",
        "offset": 0,
        "slot": "1",
        "type": "t_int256"
      },
      {
        "astId": 196,
        "contract": "contracts/test/Test_MacInsuranceMain.sol:Test_MacInsuranceMain",
        "label": "tokenAddress",
        "offset": 0,
        "slot": "2",
        "type": "t_address"
      },
      {
        "astId": 199,
        "contract": "contracts/test/Test_MacInsuranceMain.sol:Test_MacInsuranceMain",
        "label": "priceFeed",
        "offset": 0,
        "slot": "3",
        "type": "t_contract(AggregatorV3Interface)45"
      },
      {
        "astId": 202,
        "contract": "contracts/test/Test_MacInsuranceMain.sol:Test_MacInsuranceMain",
        "label": "insuredToken",
        "offset": 0,
        "slot": "4",
        "type": "t_contract(IERC20)123"
      },
      {
        "astId": 207,
        "contract": "contracts/test/Test_MacInsuranceMain.sol:Test_MacInsuranceMain",
        "label": "poolDataList",
        "offset": 0,
        "slot": "5",
        "type": "t_mapping(t_uint16,t_struct(PoolData)144_storage)"
      },
      {
        "astId": 212,
        "contract": "contracts/test/Test_MacInsuranceMain.sol:Test_MacInsuranceMain",
        "label": "liquiditySupplyList",
        "offset": 0,
        "slot": "6",
        "type": "t_mapping(t_uint16,t_struct(PoolLiquiditySupply)151_storage)"
      },
      {
        "astId": 219,
        "contract": "contracts/test/Test_MacInsuranceMain.sol:Test_MacInsuranceMain",
        "label": "insuranceRequests",
        "offset": 0,
        "slot": "7",
        "type": "t_mapping(t_uint16,t_mapping(t_address,t_struct(InsuranceRequest)162_storage))"
      }
    ],
    "types": {
      "t_address": {
        "encoding": "inplace",
        "label": "address",
        "numberOfBytes": "20"
      },
      "t_contract(AggregatorV3Interface)45": {
        "encoding": "inplace",
        "label": "contract AggregatorV3Interface",
        "numberOfBytes": "20"
      },
      "t_contract(IERC20)123": {
        "encoding": "inplace",
        "label": "contract IERC20",
        "numberOfBytes": "20"
      },
      "t_int256": {
        "encoding": "inplace",
        "label": "int256",
        "numberOfBytes": "32"
      },
      "t_mapping(t_address,t_struct(InsuranceRequest)162_storage)": {
        "encoding": "mapping",
        "key": "t_address",
        "label": "mapping(address => struct DataTypes.InsuranceRequest)",
        "numberOfBytes": "32",
        "value": "t_struct(InsuranceRequest)162_storage"
      },
      "t_mapping(t_uint16,t_mapping(t_address,t_struct(InsuranceRequest)162_storage))": {
        "encoding": "mapping",
        "key": "t_uint16",
        "label": "mapping(uint16 => mapping(address => struct DataTypes.InsuranceRequest))",
        "numberOfBytes": "32",
        "value": "t_mapping(t_address,t_struct(InsuranceRequest)162_storage)"
      },
      "t_mapping(t_uint16,t_struct(PoolData)144_storage)": {
        "encoding": "mapping",
        "key": "t_uint16",
        "label": "mapping(uint16 => struct DataTypes.PoolData)",
        "numberOfBytes": "32",
        "value": "t_struct(PoolData)144_storage"
      },
      "t_mapping(t_uint16,t_struct(PoolLiquiditySupply)151_storage)": {
        "encoding": "mapping",
        "key": "t_uint16",
        "label": "mapping(uint16 => struct DataTypes.PoolLiquiditySupply)",
        "numberOfBytes": "32",
        "value": "t_struct(PoolLiquiditySupply)151_storage"
      },
      "t_struct(InsuranceRequest)162_storage": {
        "encoding": "inplace",
        "label": "struct DataTypes.InsuranceRequest",
        "members": [
          {
            "astId": 153,
            "contract": "contracts/test/Test_MacInsuranceMain.sol:Test_MacInsuranceMain",
            "label": "id",
            "offset": 0,
            "slot": "0",
            "type": "t_uint16"
          },
          {
            "astId": 155,
            "contract": "contracts/test/Test_MacInsuranceMain.sol:Test_MacInsuranceMain",
            "label": "insuranceRequester",
            "offset": 2,
            "slot": "0",
            "type": "t_address"
          },
          {
            "astId": 157,
            "contract": "contracts/test/Test_MacInsuranceMain.sol:Test_MacInsuranceMain",
            "label": "liquidtyToInsure",
            "offset": 0,
            "slot": "1",
            "type": "t_uint256"
          },
          {
            "astId": 159,
            "contract": "contracts/test/Test_MacInsuranceMain.sol:Test_MacInsuranceMain",
            "label": "reimbursementAmount",
            "offset": 0,
            "slot": "2",
            "type": "t_uint256"
          },
          {
            "astId": 161,
            "contract": "contracts/test/Test_MacInsuranceMain.sol:Test_MacInsuranceMain",
            "label": "fee",
            "offset": 0,
            "slot": "3",
            "type": "t_uint256"
          }
        ],
        "numberOfBytes": "128"
      },
      "t_struct(PoolData)144_storage": {
        "encoding": "inplace",
        "label": "struct DataTypes.PoolData",
        "members": [
          {
            "astId": 127,
            "contract": "contracts/test/Test_MacInsuranceMain.sol:Test_MacInsuranceMain",
            "label": "id",
            "offset": 0,
            "slot": "0",
            "type": "t_uint16"
          },
          {
            "astId": 129,
            "contract": "contracts/test/Test_MacInsuranceMain.sol:Test_MacInsuranceMain",
            "label": "tokenAddress",
            "offset": 2,
            "slot": "0",
            "type": "t_address"
          },
          {
            "astId": 131,
            "contract": "contracts/test/Test_MacInsuranceMain.sol:Test_MacInsuranceMain",
            "label": "totalLiquidity",
            "offset": 0,
            "slot": "1",
            "type": "t_uint256"
          },
          {
            "astId": 133,
            "contract": "contracts/test/Test_MacInsuranceMain.sol:Test_MacInsuranceMain",
            "label": "priceLossCover",
            "offset": 0,
            "slot": "2",
            "type": "t_uint256"
          },
          {
            "astId": 135,
            "contract": "contracts/test/Test_MacInsuranceMain.sol:Test_MacInsuranceMain",
            "label": "basePrice",
            "offset": 0,
            "slot": "3",
            "type": "t_int256"
          },
          {
            "astId": 137,
            "contract": "contracts/test/Test_MacInsuranceMain.sol:Test_MacInsuranceMain",
            "label": "insuranceTreshold",
            "offset": 0,
            "slot": "4",
            "type": "t_int256"
          },
          {
            "astId": 139,
            "contract": "contracts/test/Test_MacInsuranceMain.sol:Test_MacInsuranceMain",
            "label": "fee",
            "offset": 0,
            "slot": "5",
            "type": "t_uint8"
          },
          {
            "astId": 141,
            "contract": "contracts/test/Test_MacInsuranceMain.sol:Test_MacInsuranceMain",
            "label": "startDate",
            "offset": 0,
            "slot": "6",
            "type": "t_uint256"
          },
          {
            "astId": 143,
            "contract": "contracts/test/Test_MacInsuranceMain.sol:Test_MacInsuranceMain",
            "label": "endDate",
            "offset": 0,
            "slot": "7",
            "type": "t_uint256"
          }
        ],
        "numberOfBytes": "256"
      },
      "t_struct(PoolLiquiditySupply)151_storage": {
        "encoding": "inplace",
        "label": "struct DataTypes.PoolLiquiditySupply",
        "members": [
          {
            "astId": 146,
            "contract": "contracts/test/Test_MacInsuranceMain.sol:Test_MacInsuranceMain",
            "label": "id",
            "offset": 0,
            "slot": "0",
            "type": "t_uint16"
          },
          {
            "astId": 148,
            "contract": "contracts/test/Test_MacInsuranceMain.sol:Test_MacInsuranceMain",
            "label": "liquidityProvider",
            "offset": 2,
            "slot": "0",
            "type": "t_address"
          },
          {
            "astId": 150,
            "contract": "contracts/test/Test_MacInsuranceMain.sol:Test_MacInsuranceMain",
            "label": "liquidityAdded",
            "offset": 0,
            "slot": "1",
            "type": "t_uint256"
          }
        ],
        "numberOfBytes": "64"
      },
      "t_uint16": {
        "encoding": "inplace",
        "label": "uint16",
        "numberOfBytes": "2"
      },
      "t_uint256": {
        "encoding": "inplace",
        "label": "uint256",
        "numberOfBytes": "32"
      },
      "t_uint8": {
        "encoding": "inplace",
        "label": "uint8",
        "numberOfBytes": "1"
      }
    }
  }
}